{
  "abi": [
    {
      "inputs": [
        {
          "internalType": "contract AuctionDemo",
          "name": "_auctionDemo",
          "type": "address"
        },
        {
          "internalType": "uint256",
          "name": "_tokenId",
          "type": "uint256"
        }
      ],
      "stateMutability": "nonpayable",
      "type": "constructor"
    },
    {
      "stateMutability": "payable",
      "type": "fallback"
    },
    {
      "inputs": [],
      "name": "attack",
      "outputs": [],
      "stateMutability": "payable",
      "type": "function"
    },
    {
      "inputs": [],
      "name": "attacker",
      "outputs": [
        {
          "internalType": "address",
          "name": "",
          "type": "address"
        }
      ],
      "stateMutability": "view",
      "type": "function"
    },
    {
      "inputs": [],
      "name": "auctionDemo",
      "outputs": [
        {
          "internalType": "contract AuctionDemo",
          "name": "",
          "type": "address"
        }
      ],
      "stateMutability": "view",
      "type": "function"
    },
    {
      "inputs": [],
      "name": "getBalance",
      "outputs": [
        {
          "internalType": "uint256",
          "name": "",
          "type": "uint256"
        }
      ],
      "stateMutability": "view",
      "type": "function"
    },
    {
      "inputs": [
        {
          "internalType": "address",
          "name": "",
          "type": "address"
        },
        {
          "internalType": "address",
          "name": "",
          "type": "address"
        },
        {
          "internalType": "uint256",
          "name": "",
          "type": "uint256"
        },
        {
          "internalType": "bytes",
          "name": "",
          "type": "bytes"
        }
      ],
      "name": "onERC721Received",
      "outputs": [
        {
          "internalType": "bytes4",
          "name": "",
          "type": "bytes4"
        }
      ],
      "stateMutability": "nonpayable",
      "type": "function"
    },
    {
      "inputs": [],
      "name": "tokenId",
      "outputs": [
        {
          "internalType": "uint256",
          "name": "",
          "type": "uint256"
        }
      ],
      "stateMutability": "view",
      "type": "function"
    },
    {
      "inputs": [],
      "name": "withdraw",
      "outputs": [],
      "stateMutability": "nonpayable",
      "type": "function"
    }
  ],
  "bytecode": {
    "object": "0x60e060405234801561001057600080fd5b5060405161068e38038061068e83398101604081905261002f91610049565b6001600160a01b0390911660a0523360805260c052610083565b6000806040838503121561005c57600080fd5b82516001600160a01b038116811461007357600080fd5b6020939093015192949293505050565b60805160a05160c0516105ad6100e160003960008181607f0152818161017f015261039a01526000818160a50152818161021401526103c00152600081816101c80152818161024901528181610293015261034e01526105ad6000f3fe6080604052600436106100705760003560e01c80633ccfd60b1161004e5780633ccfd60b146101a157806348eb76ee146101b65780638bb127a0146102025780639e5faafc1461023657610070565b806312065fe014610107578063150b7a021461012957806317d70f7c1461016d575b604051635d5bc34760e01b81527f000000000000000000000000000000000000000000000000000000000000000060048201527f00000000000000000000000000000000000000000000000000000000000000006001600160a01b031690635d5bc34790602401600060405180830381600087803b1580156100f157600080fd5b505af1158015610105573d6000803e3d6000fd5b005b34801561011357600080fd5b50475b6040519081526020015b60405180910390f35b34801561013557600080fd5b5061015461014436600461045a565b630a85bd0160e11b949350505050565b6040516001600160e01b03199091168152602001610120565b34801561017957600080fd5b506101167f000000000000000000000000000000000000000000000000000000000000000081565b3480156101ad57600080fd5b5061010561023e565b3480156101c257600080fd5b506101ea7f000000000000000000000000000000000000000000000000000000000000000081565b6040516001600160a01b039091168152602001610120565b34801561020e57600080fd5b506101ea7f000000000000000000000000000000000000000000000000000000000000000081565b610105610343565b336001600160a01b037f0000000000000000000000000000000000000000000000000000000000000000161461028f5760405162461bcd60e51b815260040161028690610536565b60405180910390fd5b60007f00000000000000000000000000000000000000000000000000000000000000006001600160a01b03164760405160006040518083038185875af1925050503d80600081146102fc576040519150601f19603f3d011682016040523d82523d6000602084013e610301565b606091505b50509050806103405760405162461bcd60e51b815260206004820152600b60248201526a10d85b1b0819985a5b195960aa1b6044820152606401610286565b50565b336001600160a01b037f0000000000000000000000000000000000000000000000000000000000000000161461038b5760405162461bcd60e51b815260040161028690610536565b60405163249a825160e21b81527f000000000000000000000000000000000000000000000000000000000000000060048201527f00000000000000000000000000000000000000000000000000000000000000006001600160a01b03169063926a09449034906024016000604051808303818588803b15801561040d57600080fd5b505af1158015610421573d6000803e3d6000fd5b5050505050565b80356001600160a01b038116811461043f57600080fd5b919050565b634e487b7160e01b600052604160045260246000fd5b6000806000806080858703121561047057600080fd5b61047985610428565b935061048760208601610428565b925060408501359150606085013567ffffffffffffffff808211156104ab57600080fd5b818701915087601f8301126104bf57600080fd5b8135818111156104d1576104d1610444565b604051601f8201601f19908116603f011681019083821181831017156104f9576104f9610444565b816040528281528a602084870101111561051257600080fd5b82602086016020830137600060208483010152809550505050505092959194509250565b60208082526021908201527f536f7272792c206f6e6c792061747461636b65722063616c2063616c6c202d5f6040820152602d60f81b60608201526080019056fea2646970667358221220b6a06a450338aaeea887541dfab8b291f3c075f810ed9d1c92dd19ae0cb9924f64736f6c63430008130033",
    "linkReferences": {}
  },
  "methodIdentifiers": {
    "attack()": "9e5faafc",
    "attacker()": "48eb76ee",
    "auctionDemo()": "8bb127a0",
    "getBalance()": "12065fe0",
    "onERC721Received(address,address,uint256,bytes)": "150b7a02",
    "tokenId()": "17d70f7c",
    "withdraw()": "3ccfd60b"
  },
  "id": 52
}