{
  "abi": [
    {
      "inputs": [
        {
          "internalType": "string",
          "name": "_name",
          "type": "string"
        },
        {
          "internalType": "string",
          "name": "_symbol",
          "type": "string"
        },
        {
          "internalType": "address",
          "name": "_adminsContract",
          "type": "address"
        }
      ],
      "stateMutability": "nonpayable",
      "type": "constructor"
    },
    {
      "inputs": [
        {
          "internalType": "uint256",
          "name": "numerator",
          "type": "uint256"
        },
        {
          "internalType": "uint256",
          "name": "denominator",
          "type": "uint256"
        }
      ],
      "name": "ERC2981InvalidDefaultRoyalty",
      "type": "error"
    },
    {
      "inputs": [
        {
          "internalType": "address",
          "name": "receiver",
          "type": "address"
        }
      ],
      "name": "ERC2981InvalidDefaultRoyaltyReceiver",
      "type": "error"
    },
    {
      "inputs": [
        {
          "internalType": "uint256",
          "name": "tokenId",
          "type": "uint256"
        },
        {
          "internalType": "uint256",
          "name": "numerator",
          "type": "uint256"
        },
        {
          "internalType": "uint256",
          "name": "denominator",
          "type": "uint256"
        }
      ],
      "name": "ERC2981InvalidTokenRoyalty",
      "type": "error"
    },
    {
      "inputs": [
        {
          "internalType": "uint256",
          "name": "tokenId",
          "type": "uint256"
        },
        {
          "internalType": "address",
          "name": "receiver",
          "type": "address"
        }
      ],
      "name": "ERC2981InvalidTokenRoyaltyReceiver",
      "type": "error"
    },
    {
      "anonymous": false,
      "inputs": [
        {
          "indexed": true,
          "internalType": "address",
          "name": "owner",
          "type": "address"
        },
        {
          "indexed": true,
          "internalType": "address",
          "name": "approved",
          "type": "address"
        },
        {
          "indexed": true,
          "internalType": "uint256",
          "name": "tokenId",
          "type": "uint256"
        }
      ],
      "name": "Approval",
      "type": "event"
    },
    {
      "anonymous": false,
      "inputs": [
        {
          "indexed": true,
          "internalType": "address",
          "name": "owner",
          "type": "address"
        },
        {
          "indexed": true,
          "internalType": "address",
          "name": "operator",
          "type": "address"
        },
        {
          "indexed": false,
          "internalType": "bool",
          "name": "approved",
          "type": "bool"
        }
      ],
      "name": "ApprovalForAll",
      "type": "event"
    },
    {
      "anonymous": false,
      "inputs": [
        {
          "indexed": true,
          "internalType": "address",
          "name": "previousOwner",
          "type": "address"
        },
        {
          "indexed": true,
          "internalType": "address",
          "name": "newOwner",
          "type": "address"
        }
      ],
      "name": "OwnershipTransferred",
      "type": "event"
    },
    {
      "anonymous": false,
      "inputs": [
        {
          "indexed": true,
          "internalType": "address",
          "name": "from",
          "type": "address"
        },
        {
          "indexed": true,
          "internalType": "address",
          "name": "to",
          "type": "address"
        },
        {
          "indexed": true,
          "internalType": "uint256",
          "name": "tokenId",
          "type": "uint256"
        }
      ],
      "name": "Transfer",
      "type": "event"
    },
    {
      "inputs": [
        {
          "internalType": "address",
          "name": "_minterContract",
          "type": "address"
        }
      ],
      "name": "addMinterContract",
      "outputs": [],
      "stateMutability": "nonpayable",
      "type": "function"
    },
    {
      "inputs": [
        {
          "internalType": "uint256",
          "name": "_collectionID",
          "type": "uint256"
        },
        {
          "internalType": "address",
          "name": "_randomizerContract",
          "type": "address"
        }
      ],
      "name": "addRandomizer",
      "outputs": [],
      "stateMutability": "nonpayable",
      "type": "function"
    },
    {
      "inputs": [
        {
          "internalType": "uint256",
          "name": "mintIndex",
          "type": "uint256"
        },
        {
          "internalType": "address",
          "name": "_recipient",
          "type": "address"
        },
        {
          "internalType": "string",
          "name": "_tokenData",
          "type": "string"
        },
        {
          "internalType": "uint256",
          "name": "_saltfun_o",
          "type": "uint256"
        },
        {
          "internalType": "uint256",
          "name": "_collectionID",
          "type": "uint256"
        }
      ],
      "name": "airDropTokens",
      "outputs": [],
      "stateMutability": "nonpayable",
      "type": "function"
    },
    {
      "inputs": [
        {
          "internalType": "address",
          "name": "to",
          "type": "address"
        },
        {
          "internalType": "uint256",
          "name": "tokenId",
          "type": "uint256"
        }
      ],
      "name": "approve",
      "outputs": [],
      "stateMutability": "nonpayable",
      "type": "function"
    },
    {
      "inputs": [
        {
          "internalType": "uint256",
          "name": "_collectionID",
          "type": "uint256"
        },
        {
          "internalType": "string",
          "name": "_signature",
          "type": "string"
        }
      ],
      "name": "artistSignature",
      "outputs": [],
      "stateMutability": "nonpayable",
      "type": "function"
    },
    {
      "inputs": [
        {
          "internalType": "uint256",
          "name": "",
          "type": "uint256"
        }
      ],
      "name": "artistSigned",
      "outputs": [
        {
          "internalType": "bool",
          "name": "",
          "type": "bool"
        }
      ],
      "stateMutability": "view",
      "type": "function"
    },
    {
      "inputs": [
        {
          "internalType": "uint256",
          "name": "",
          "type": "uint256"
        }
      ],
      "name": "artistsSignatures",
      "outputs": [
        {
          "internalType": "string",
          "name": "",
          "type": "string"
        }
      ],
      "stateMutability": "view",
      "type": "function"
    },
    {
      "inputs": [
        {
          "internalType": "address",
          "name": "owner",
          "type": "address"
        }
      ],
      "name": "balanceOf",
      "outputs": [
        {
          "internalType": "uint256",
          "name": "",
          "type": "uint256"
        }
      ],
      "stateMutability": "view",
      "type": "function"
    },
    {
      "inputs": [
        {
          "internalType": "uint256",
          "name": "_collectionID",
          "type": "uint256"
        },
        {
          "internalType": "uint256",
          "name": "_tokenId",
          "type": "uint256"
        }
      ],
      "name": "burn",
      "outputs": [],
      "stateMutability": "nonpayable",
      "type": "function"
    },
    {
      "inputs": [
        {
          "internalType": "uint256",
          "name": "",
          "type": "uint256"
        }
      ],
      "name": "burnAmount",
      "outputs": [
        {
          "internalType": "uint256",
          "name": "",
          "type": "uint256"
        }
      ],
      "stateMutability": "view",
      "type": "function"
    },
    {
      "inputs": [
        {
          "internalType": "uint256",
          "name": "mintIndex",
          "type": "uint256"
        },
        {
          "internalType": "uint256",
          "name": "_burnCollectionID",
          "type": "uint256"
        },
        {
          "internalType": "uint256",
          "name": "_tokenId",
          "type": "uint256"
        },
        {
          "internalType": "uint256",
          "name": "_mintCollectionID",
          "type": "uint256"
        },
        {
          "internalType": "uint256",
          "name": "_saltfun_o",
          "type": "uint256"
        },
        {
          "internalType": "address",
          "name": "burner",
          "type": "address"
        }
      ],
      "name": "burnToMint",
      "outputs": [],
      "stateMutability": "nonpayable",
      "type": "function"
    },
    {
      "inputs": [
        {
          "internalType": "uint256",
          "name": "_collectionID",
          "type": "uint256"
        },
        {
          "internalType": "bool",
          "name": "_status",
          "type": "bool"
        }
      ],
      "name": "changeMetadataView",
      "outputs": [],
      "stateMutability": "nonpayable",
      "type": "function"
    },
    {
      "inputs": [
        {
          "internalType": "uint256",
          "name": "_tokenId",
          "type": "uint256"
        },
        {
          "internalType": "string",
          "name": "newData",
          "type": "string"
        }
      ],
      "name": "changeTokenData",
      "outputs": [],
      "stateMutability": "nonpayable",
      "type": "function"
    },
    {
      "inputs": [
        {
          "internalType": "uint256",
          "name": "_collectionID",
          "type": "uint256"
        }
      ],
      "name": "collectionFreezeStatus",
      "outputs": [
        {
          "internalType": "bool",
          "name": "",
          "type": "bool"
        }
      ],
      "stateMutability": "view",
      "type": "function"
    },
    {
      "inputs": [
        {
          "internalType": "string",
          "name": "_collectionName",
          "type": "string"
        },
        {
          "internalType": "string",
          "name": "_collectionArtist",
          "type": "string"
        },
        {
          "internalType": "string",
          "name": "_collectionDescription",
          "type": "string"
        },
        {
          "internalType": "string",
          "name": "_collectionWebsite",
          "type": "string"
        },
        {
          "internalType": "string",
          "name": "_collectionLicense",
          "type": "string"
        },
        {
          "internalType": "string",
          "name": "_collectionBaseURI",
          "type": "string"
        },
        {
          "internalType": "string",
          "name": "_collectionLibrary",
          "type": "string"
        },
        {
          "internalType": "string[]",
          "name": "_collectionScript",
          "type": "string[]"
        }
      ],
      "name": "createCollection",
      "outputs": [],
      "stateMutability": "nonpayable",
      "type": "function"
    },
    {
      "inputs": [
        {
          "internalType": "uint256",
          "name": "_collectionID",
          "type": "uint256"
        }
      ],
      "name": "freezeCollection",
      "outputs": [],
      "stateMutability": "nonpayable",
      "type": "function"
    },
    {
      "inputs": [
        {
          "internalType": "uint256",
          "name": "tokenId",
          "type": "uint256"
        }
      ],
      "name": "getApproved",
      "outputs": [
        {
          "internalType": "address",
          "name": "",
          "type": "address"
        }
      ],
      "stateMutability": "view",
      "type": "function"
    },
    {
      "inputs": [
        {
          "internalType": "address",
          "name": "owner",
          "type": "address"
        },
        {
          "internalType": "address",
          "name": "operator",
          "type": "address"
        }
      ],
      "name": "isApprovedForAll",
      "outputs": [
        {
          "internalType": "bool",
          "name": "",
          "type": "bool"
        }
      ],
      "stateMutability": "view",
      "type": "function"
    },
    {
      "inputs": [
        {
          "internalType": "uint256",
          "name": "mintIndex",
          "type": "uint256"
        },
        {
          "internalType": "address",
          "name": "_mintingAddress",
          "type": "address"
        },
        {
          "internalType": "address",
          "name": "_mintTo",
          "type": "address"
        },
        {
          "internalType": "string",
          "name": "_tokenData",
          "type": "string"
        },
        {
          "internalType": "uint256",
          "name": "_saltfun_o",
          "type": "uint256"
        },
        {
          "internalType": "uint256",
          "name": "_collectionID",
          "type": "uint256"
        },
        {
          "internalType": "uint256",
          "name": "phase",
          "type": "uint256"
        }
      ],
      "name": "mint",
      "outputs": [],
      "stateMutability": "nonpayable",
      "type": "function"
    },
    {
      "inputs": [],
      "name": "minterContract",
      "outputs": [
        {
          "internalType": "address",
          "name": "",
          "type": "address"
        }
      ],
      "stateMutability": "view",
      "type": "function"
    },
    {
      "inputs": [],
      "name": "name",
      "outputs": [
        {
          "internalType": "string",
          "name": "",
          "type": "string"
        }
      ],
      "stateMutability": "view",
      "type": "function"
    },
    {
      "inputs": [],
      "name": "newCollectionIndex",
      "outputs": [
        {
          "internalType": "uint256",
          "name": "",
          "type": "uint256"
        }
      ],
      "stateMutability": "view",
      "type": "function"
    },
    {
      "inputs": [
        {
          "internalType": "uint256",
          "name": "",
          "type": "uint256"
        }
      ],
      "name": "onchainMetadata",
      "outputs": [
        {
          "internalType": "bool",
          "name": "",
          "type": "bool"
        }
      ],
      "stateMutability": "view",
      "type": "function"
    },
    {
      "inputs": [],
      "name": "owner",
      "outputs": [
        {
          "internalType": "address",
          "name": "",
          "type": "address"
        }
      ],
      "stateMutability": "view",
      "type": "function"
    },
    {
      "inputs": [
        {
          "internalType": "uint256",
          "name": "tokenId",
          "type": "uint256"
        }
      ],
      "name": "ownerOf",
      "outputs": [
        {
          "internalType": "address",
          "name": "",
          "type": "address"
        }
      ],
      "stateMutability": "view",
      "type": "function"
    },
    {
      "inputs": [],
      "name": "renounceOwnership",
      "outputs": [],
      "stateMutability": "nonpayable",
      "type": "function"
    },
    {
      "inputs": [
        {
          "internalType": "uint256",
          "name": "_collectionID",
          "type": "uint256"
        }
      ],
      "name": "retrieveArtistAddress",
      "outputs": [
        {
          "internalType": "address",
          "name": "",
          "type": "address"
        }
      ],
      "stateMutability": "view",
      "type": "function"
    },
    {
      "inputs": [
        {
          "internalType": "uint256",
          "name": "_collectionID",
          "type": "uint256"
        }
      ],
      "name": "retrieveCollectionAdditionalData",
      "outputs": [
        {
          "internalType": "address",
          "name": "",
          "type": "address"
        },
        {
          "internalType": "uint256",
          "name": "",
          "type": "uint256"
        },
        {
          "internalType": "uint256",
          "name": "",
          "type": "uint256"
        },
        {
          "internalType": "uint256",
          "name": "",
          "type": "uint256"
        },
        {
          "internalType": "uint256",
          "name": "",
          "type": "uint256"
        },
        {
          "internalType": "address",
          "name": "",
          "type": "address"
        }
      ],
      "stateMutability": "view",
      "type": "function"
    },
    {
      "inputs": [
        {
          "internalType": "uint256",
          "name": "_collectionID",
          "type": "uint256"
        }
      ],
      "name": "retrieveCollectionInfo",
      "outputs": [
        {
          "internalType": "string",
          "name": "",
          "type": "string"
        },
        {
          "internalType": "string",
          "name": "",
          "type": "string"
        },
        {
          "internalType": "string",
          "name": "",
          "type": "string"
        },
        {
          "internalType": "string",
          "name": "",
          "type": "string"
        },
        {
          "internalType": "string",
          "name": "",
          "type": "string"
        },
        {
          "internalType": "string",
          "name": "",
          "type": "string"
        }
      ],
      "stateMutability": "view",
      "type": "function"
    },
    {
      "inputs": [
        {
          "internalType": "uint256",
          "name": "_collectionID",
          "type": "uint256"
        }
      ],
      "name": "retrieveCollectionLibraryAndScript",
      "outputs": [
        {
          "internalType": "string",
          "name": "",
          "type": "string"
        },
        {
          "internalType": "string[]",
          "name": "",
          "type": "string[]"
        }
      ],
      "stateMutability": "view",
      "type": "function"
    },
    {
      "inputs": [
        {
          "internalType": "uint256",
          "name": "tokenId",
          "type": "uint256"
        }
      ],
      "name": "retrieveGenerativeScript",
      "outputs": [
        {
          "internalType": "string",
          "name": "",
          "type": "string"
        }
      ],
      "stateMutability": "view",
      "type": "function"
    },
    {
      "inputs": [
        {
          "internalType": "uint256",
          "name": "_tokenid",
          "type": "uint256"
        }
      ],
      "name": "retrieveTokenHash",
      "outputs": [
        {
          "internalType": "bytes32",
          "name": "",
          "type": "bytes32"
        }
      ],
      "stateMutability": "view",
      "type": "function"
    },
    {
      "inputs": [
        {
          "internalType": "uint256",
          "name": "_collectionID",
          "type": "uint256"
        },
        {
          "internalType": "address",
          "name": "_address",
          "type": "address"
        }
      ],
      "name": "retrieveTokensAirdroppedPerAddress",
      "outputs": [
        {
          "internalType": "uint256",
          "name": "",
          "type": "uint256"
        }
      ],
      "stateMutability": "view",
      "type": "function"
    },
    {
      "inputs": [
        {
          "internalType": "uint256",
          "name": "_collectionID",
          "type": "uint256"
        },
        {
          "internalType": "address",
          "name": "_address",
          "type": "address"
        }
      ],
      "name": "retrieveTokensMintedALPerAddress",
      "outputs": [
        {
          "internalType": "uint256",
          "name": "",
          "type": "uint256"
        }
      ],
      "stateMutability": "view",
      "type": "function"
    },
    {
      "inputs": [
        {
          "internalType": "uint256",
          "name": "_collectionID",
          "type": "uint256"
        },
        {
          "internalType": "address",
          "name": "_address",
          "type": "address"
        }
      ],
      "name": "retrieveTokensMintedPublicPerAddress",
      "outputs": [
        {
          "internalType": "uint256",
          "name": "",
          "type": "uint256"
        }
      ],
      "stateMutability": "view",
      "type": "function"
    },
    {
      "inputs": [
        {
          "internalType": "uint256",
          "name": "_tokenId",
          "type": "uint256"
        }
      ],
      "name": "retrievetokenImageAndAttributes",
      "outputs": [
        {
          "internalType": "string",
          "name": "",
          "type": "string"
        },
        {
          "internalType": "string",
          "name": "",
          "type": "string"
        }
      ],
      "stateMutability": "view",
      "type": "function"
    },
    {
      "inputs": [
        {
          "internalType": "uint256",
          "name": "_collectionID",
          "type": "uint256"
        }
      ],
      "name": "retrievewereDataAdded",
      "outputs": [
        {
          "internalType": "bool",
          "name": "",
          "type": "bool"
        }
      ],
      "stateMutability": "view",
      "type": "function"
    },
    {
      "inputs": [
        {
          "internalType": "uint256",
          "name": "tokenId",
          "type": "uint256"
        },
        {
          "internalType": "uint256",
          "name": "salePrice",
          "type": "uint256"
        }
      ],
      "name": "royaltyInfo",
      "outputs": [
        {
          "internalType": "address",
          "name": "",
          "type": "address"
        },
        {
          "internalType": "uint256",
          "name": "",
          "type": "uint256"
        }
      ],
      "stateMutability": "view",
      "type": "function"
    },
    {
      "inputs": [
        {
          "internalType": "address",
          "name": "from",
          "type": "address"
        },
        {
          "internalType": "address",
          "name": "to",
          "type": "address"
        },
        {
          "internalType": "uint256",
          "name": "tokenId",
          "type": "uint256"
        }
      ],
      "name": "safeTransferFrom",
      "outputs": [],
      "stateMutability": "nonpayable",
      "type": "function"
    },
    {
      "inputs": [
        {
          "internalType": "address",
          "name": "from",
          "type": "address"
        },
        {
          "internalType": "address",
          "name": "to",
          "type": "address"
        },
        {
          "internalType": "uint256",
          "name": "tokenId",
          "type": "uint256"
        },
        {
          "internalType": "bytes",
          "name": "data",
          "type": "bytes"
        }
      ],
      "name": "safeTransferFrom",
      "outputs": [],
      "stateMutability": "nonpayable",
      "type": "function"
    },
    {
      "inputs": [
        {
          "internalType": "address",
          "name": "operator",
          "type": "address"
        },
        {
          "internalType": "bool",
          "name": "approved",
          "type": "bool"
        }
      ],
      "name": "setApprovalForAll",
      "outputs": [],
      "stateMutability": "nonpayable",
      "type": "function"
    },
    {
      "inputs": [
        {
          "internalType": "uint256",
          "name": "_collectionID",
          "type": "uint256"
        },
        {
          "internalType": "address",
          "name": "_collectionArtistAddress",
          "type": "address"
        },
        {
          "internalType": "uint256",
          "name": "_maxCollectionPurchases",
          "type": "uint256"
        },
        {
          "internalType": "uint256",
          "name": "_collectionTotalSupply",
          "type": "uint256"
        },
        {
          "internalType": "uint256",
          "name": "_setFinalSupplyTimeAfterMint",
          "type": "uint256"
        }
      ],
      "name": "setCollectionData",
      "outputs": [],
      "stateMutability": "nonpayable",
      "type": "function"
    },
    {
      "inputs": [
        {
          "internalType": "address",
          "name": "_royaltyAddress",
          "type": "address"
        },
        {
          "internalType": "uint96",
          "name": "_bps",
          "type": "uint96"
        }
      ],
      "name": "setDefaultRoyalties",
      "outputs": [],
      "stateMutability": "nonpayable",
      "type": "function"
    },
    {
      "inputs": [
        {
          "internalType": "uint256",
          "name": "_collectionID",
          "type": "uint256"
        }
      ],
      "name": "setFinalSupply",
      "outputs": [],
      "stateMutability": "nonpayable",
      "type": "function"
    },
    {
      "inputs": [
        {
          "internalType": "uint256",
          "name": "_collectionID",
          "type": "uint256"
        },
        {
          "internalType": "uint256",
          "name": "_mintIndex",
          "type": "uint256"
        },
        {
          "internalType": "bytes32",
          "name": "_hash",
          "type": "bytes32"
        }
      ],
      "name": "setTokenHash",
      "outputs": [],
      "stateMutability": "nonpayable",
      "type": "function"
    },
    {
      "inputs": [
        {
          "internalType": "bytes4",
          "name": "interfaceId",
          "type": "bytes4"
        }
      ],
      "name": "supportsInterface",
      "outputs": [
        {
          "internalType": "bool",
          "name": "",
          "type": "bool"
        }
      ],
      "stateMutability": "view",
      "type": "function"
    },
    {
      "inputs": [],
      "name": "symbol",
      "outputs": [
        {
          "internalType": "string",
          "name": "",
          "type": "string"
        }
      ],
      "stateMutability": "view",
      "type": "function"
    },
    {
      "inputs": [
        {
          "internalType": "uint256",
          "name": "index",
          "type": "uint256"
        }
      ],
      "name": "tokenByIndex",
      "outputs": [
        {
          "internalType": "uint256",
          "name": "",
          "type": "uint256"
        }
      ],
      "stateMutability": "view",
      "type": "function"
    },
    {
      "inputs": [
        {
          "internalType": "uint256",
          "name": "",
          "type": "uint256"
        }
      ],
      "name": "tokenData",
      "outputs": [
        {
          "internalType": "string",
          "name": "",
          "type": "string"
        }
      ],
      "stateMutability": "view",
      "type": "function"
    },
    {
      "inputs": [
        {
          "internalType": "address",
          "name": "owner",
          "type": "address"
        },
        {
          "internalType": "uint256",
          "name": "index",
          "type": "uint256"
        }
      ],
      "name": "tokenOfOwnerByIndex",
      "outputs": [
        {
          "internalType": "uint256",
          "name": "",
          "type": "uint256"
        }
      ],
      "stateMutability": "view",
      "type": "function"
    },
    {
      "inputs": [
        {
          "internalType": "uint256",
          "name": "tokenId",
          "type": "uint256"
        }
      ],
      "name": "tokenURI",
      "outputs": [
        {
          "internalType": "string",
          "name": "",
          "type": "string"
        }
      ],
      "stateMutability": "view",
      "type": "function"
    },
    {
      "inputs": [],
      "name": "totalSupply",
      "outputs": [
        {
          "internalType": "uint256",
          "name": "",
          "type": "uint256"
        }
      ],
      "stateMutability": "view",
      "type": "function"
    },
    {
      "inputs": [
        {
          "internalType": "uint256",
          "name": "_collectionID",
          "type": "uint256"
        }
      ],
      "name": "totalSupplyOfCollection",
      "outputs": [
        {
          "internalType": "uint256",
          "name": "",
          "type": "uint256"
        }
      ],
      "stateMutability": "view",
      "type": "function"
    },
    {
      "inputs": [
        {
          "internalType": "address",
          "name": "from",
          "type": "address"
        },
        {
          "internalType": "address",
          "name": "to",
          "type": "address"
        },
        {
          "internalType": "uint256",
          "name": "tokenId",
          "type": "uint256"
        }
      ],
      "name": "transferFrom",
      "outputs": [],
      "stateMutability": "nonpayable",
      "type": "function"
    },
    {
      "inputs": [
        {
          "internalType": "address",
          "name": "newOwner",
          "type": "address"
        }
      ],
      "name": "transferOwnership",
      "outputs": [],
      "stateMutability": "nonpayable",
      "type": "function"
    },
    {
      "inputs": [
        {
          "internalType": "address",
          "name": "_newadminsContract",
          "type": "address"
        }
      ],
      "name": "updateAdminContract",
      "outputs": [],
      "stateMutability": "nonpayable",
      "type": "function"
    },
    {
      "inputs": [
        {
          "internalType": "uint256",
          "name": "_collectionID",
          "type": "uint256"
        },
        {
          "internalType": "string",
          "name": "_newCollectionName",
          "type": "string"
        },
        {
          "internalType": "string",
          "name": "_newCollectionArtist",
          "type": "string"
        },
        {
          "internalType": "string",
          "name": "_newCollectionDescription",
          "type": "string"
        },
        {
          "internalType": "string",
          "name": "_newCollectionWebsite",
          "type": "string"
        },
        {
          "internalType": "string",
          "name": "_newCollectionLicense",
          "type": "string"
        },
        {
          "internalType": "string",
          "name": "_newCollectionBaseURI",
          "type": "string"
        },
        {
          "internalType": "string",
          "name": "_newCollectionLibrary",
          "type": "string"
        },
        {
          "internalType": "uint256",
          "name": "_index",
          "type": "uint256"
        },
        {
          "internalType": "string[]",
          "name": "_newCollectionScript",
          "type": "string[]"
        }
      ],
      "name": "updateCollectionInfo",
      "outputs": [],
      "stateMutability": "nonpayable",
      "type": "function"
    },
    {
      "inputs": [
        {
          "internalType": "uint256[]",
          "name": "_tokenId",
          "type": "uint256[]"
        },
        {
          "internalType": "string[]",
          "name": "_images",
          "type": "string[]"
        },
        {
          "internalType": "string[]",
          "name": "_attributes",
          "type": "string[]"
        }
      ],
      "name": "updateImagesAndAttributes",
      "outputs": [],
      "stateMutability": "nonpayable",
      "type": "function"
    },
    {
      "inputs": [
        {
          "internalType": "uint256",
          "name": "_collectionID",
          "type": "uint256"
        }
      ],
      "name": "viewCirSupply",
      "outputs": [
        {
          "internalType": "uint256",
          "name": "",
          "type": "uint256"
        }
      ],
      "stateMutability": "view",
      "type": "function"
    },
    {
      "inputs": [
        {
          "internalType": "uint256",
          "name": "_tokenid",
          "type": "uint256"
        }
      ],
      "name": "viewColIDforTokenID",
      "outputs": [
        {
          "internalType": "uint256",
          "name": "",
          "type": "uint256"
        }
      ],
      "stateMutability": "view",
      "type": "function"
    },
    {
      "inputs": [
        {
          "internalType": "uint256",
          "name": "_collectionID",
          "type": "uint256"
        }
      ],
      "name": "viewMaxAllowance",
      "outputs": [
        {
          "internalType": "uint256",
          "name": "",
          "type": "uint256"
        }
      ],
      "stateMutability": "view",
      "type": "function"
    },
    {
      "inputs": [
        {
          "internalType": "uint256",
          "name": "_collectionID",
          "type": "uint256"
        }
      ],
      "name": "viewTokensIndexMax",
      "outputs": [
        {
          "internalType": "uint256",
          "name": "",
          "type": "uint256"
        }
      ],
      "stateMutability": "view",
      "type": "function"
    },
    {
      "inputs": [
        {
          "internalType": "uint256",
          "name": "_collectionID",
          "type": "uint256"
        }
      ],
      "name": "viewTokensIndexMin",
      "outputs": [
        {
          "internalType": "uint256",
          "name": "",
          "type": "uint256"
        }
      ],
      "stateMutability": "view",
      "type": "function"
    }
  ],
  "bytecode": {
    "object": "0x60806040523480156200001157600080fd5b50604051620064633803806200646383398101604081905262000034916200028f565b82826000620000448382620003ab565b506001620000538282620003ab565b505050620000706200006a620000c960201b60201c565b620000cd565b601e80546001600160a01b0319166001600160a01b038316179055600d546200009b90600162000477565b600d55620000c0731b1289e34fe05019511d7b436a5138f361904df06102b26200011f565b5050506200049f565b3390565b600a80546001600160a01b038381166001600160a01b0319831681179093556040519116919082907f8be0079c531659141344cd1fd0a4f28419497f9722a3daafe3b4186f6b6457e090600090a35050565b6127106001600160601b0382168110156200016457604051636f483d0960e01b81526001600160601b0383166004820152602481018290526044015b60405180910390fd5b6001600160a01b0383166200019057604051635b6cc80560e11b8152600060048201526024016200015b565b50604080518082019091526001600160a01b039092168083526001600160601b039091166020909201829052600160a01b90910217600b55565b634e487b7160e01b600052604160045260246000fd5b600082601f830112620001f257600080fd5b81516001600160401b03808211156200020f576200020f620001ca565b604051601f8301601f19908116603f011681019082821181831017156200023a576200023a620001ca565b816040528381526020925086838588010111156200025757600080fd5b600091505b838210156200027b57858201830151818301840152908201906200025c565b600093810190920192909252949350505050565b600080600060608486031215620002a557600080fd5b83516001600160401b0380821115620002bd57600080fd5b620002cb87838801620001e0565b94506020860151915080821115620002e257600080fd5b50620002f186828701620001e0565b604086015190935090506001600160a01b03811681146200031157600080fd5b809150509250925092565b600181811c908216806200033157607f821691505b6020821081036200035257634e487b7160e01b600052602260045260246000fd5b50919050565b601f821115620003a657600081815260208120601f850160051c81016020861015620003815750805b601f850160051c820191505b81811015620003a2578281556001016200038d565b5050505b505050565b81516001600160401b03811115620003c757620003c7620001ca565b620003df81620003d884546200031c565b8462000358565b602080601f831160018114620004175760008415620003fe5750858301515b600019600386901b1c1916600185901b178555620003a2565b600085815260208120601f198616915b82811015620004485788860151825594840194600190910190840162000427565b5085821015620004675787850151600019600388901b60f8161c191681555b5050505050600190811b01905550565b808201808211156200049957634e487b7160e01b600052601160045260246000fd5b92915050565b615fb480620004af6000396000f3fe608060405234801561001057600080fd5b50600436106103c55760003560e01c80638da5cb5b116101ff578063cb6d67e01161011a578063e943a2c7116100ad578063f2fde38b1161007c578063f2fde38b14610a40578063f35c145214610a53578063f6a85dd014610a66578063fa92668a14610a7957600080fd5b8063e943a2c714610998578063e985e9c5146109ce578063e9b7a86014610a0a578063f18332dd14610a2d57600080fd5b8063d3741000116100e9578063d37410001461092c578063d3d549281461094f578063d9a03e3814610972578063de00e1f71461098557600080fd5b8063cb6d67e0146108ab578063cd02771a146108e1578063d0950271146108f4578063d3322d531461091957600080fd5b8063ad24102011610192578063b88d4fde11610161578063b88d4fde14610849578063b99029681461085c578063bcc405d014610885578063c87b56dd1461089857600080fd5b8063ad241020146107ed578063af569fd414610800578063b390c0ab14610823578063b4b5b48f1461083657600080fd5b806395d89b41116101ce57806395d89b41146107ac5780639a8490f3146107b45780639cac0f1f146107c7578063a22cb465146107da57600080fd5b80638da5cb5b1461072f57806392f0023314610740578063945e549b1461075357806394c149571461077657600080fd5b806339143a1d116102ef5780636799a46a1161028257806370a082311161025157806370a08231146106e0578063715018a6146106f35780637b5dbac5146106fb57806380f8c8ab1461070e57600080fd5b80636799a46a146106775780636c6aab161461068a5780636fa13531146106ad5780636fafdf83146106c057600080fd5b80634f6ccce7116102be5780634f6ccce7146105bd5780635c91d74a146105d05780636352211e1461065b578063663a3c001461066e57600080fd5b806339143a1d146105565780633d2bed8d1461056957806342842e0e1461058a5780634ab6897c1461059d57600080fd5b806318160ddd116103675780632ed330f7116103365780632ed330f7146104fa5780632f745c591461051d578063366b0ab214610530578063388d2c241461054357600080fd5b806318160ddd146104905780631aab8d69146104a257806323b872dd146104b55780632a55205a146104c857600080fd5b8063074b5539116103a3578063074b55391461041c578063081812fc1461043f578063095ea7b31461046a57806316e7c8991461047d57600080fd5b806301ffc9a7146103ca57806302de55d0146103f257806306fdde0314610407575b600080fd5b6103dd6103d8366004614cf1565b610a99565b60405190151581526020015b60405180910390f35b610405610400366004614e7d565b610aaa565b005b61040f610cfd565b6040516103e9919061500c565b6103dd61042a36600461501f565b60186020526000908152604090205460ff1681565b61045261044d36600461501f565b610d8f565b6040516001600160a01b0390911681526020016103e9565b61040561047836600461504f565b610db6565b61040561048b366004615079565b610ecb565b6008545b6040519081526020016103e9565b6104056104b03660046151cd565b611214565b6104056104c33660046151f9565b61141b565b6104db6104d6366004615235565b61144d565b604080516001600160a01b0390931683526020830191909152016103e9565b6103dd61050836600461501f565b6000908152601c602052604090205460ff1690565b61049461052b36600461504f565b6114f9565b61040561053e36600461501f565b61158f565b610405610551366004615257565b6117ca565b610405610564366004615272565b6119ab565b61057c61057736600461501f565b611b1c565b6040516103e99291906152c3565b6104056105983660046151f9565b611ca3565b6104946105ab36600461501f565b60009081526013602052604090205490565b6104946105cb36600461501f565b611cbe565b61061f6105de36600461501f565b6000908152600f60205260409020805460018201546002830154600384015460068501546007909501546001600160a01b0394851696939592949193911690565b604080516001600160a01b03978816815260208101969096528501939093526060840191909152608083015290911660a082015260c0016103e9565b61045261066936600461501f565b611d51565b610494600d5481565b610405610685366004615335565b611db1565b61049461069836600461501f565b6000908152600f602052604090206005015490565b61040f6106bb36600461501f565b611e8a565b6104946106ce36600461501f565b60176020526000908152604090205481565b6104946106ee366004615257565b611f91565b610405612017565b61040561070936600461537b565b61202b565b61072161071c36600461501f565b612385565b6040516103e99291906153c1565b600a546001600160a01b0316610452565b601f54610452906001600160a01b031681565b61049461076136600461501f565b6000908152600f602052604090206001015490565b6104946107843660046151cd565b60009182526016602090815260408084206001600160a01b0393909316845291905290205490565b61040f6124bf565b6104056107c2366004615335565b6124ce565b6104056107d53660046153ef565b612662565b6104056107e8366004615429565b6126b4565b6104056107fb366004615460565b6126c3565b61049461080e36600461501f565b6000908152600f602052604090206002015490565b610405610831366004615235565b612975565b61040f61084436600461501f565b612a3a565b61040561085736600461553c565b612ad4565b61045261086a36600461501f565b6000908152600f60205260409020546001600160a01b031690565b61040561089336600461501f565b612b06565b61040f6108a636600461501f565b612c81565b6104946108b93660046151cd565b60009182526015602090815260408084206001600160a01b0393909316845291905290205490565b6104056108ef3660046155b7565b612f80565b61090761090236600461501f565b61309d565b6040516103e9969594939291906155ef565b610405610927366004615671565b61342f565b6103dd61093a36600461501f565b60009081526011602052604090205460ff1690565b6103dd61095d36600461501f565b601d6020526000908152604090205460ff1681565b61040f61098036600461501f565b613559565b610405610993366004615257565b613572565b6104946109a63660046151cd565b60009182526014602090815260408084206001600160a01b0393909316845291905290205490565b6103dd6109dc3660046156f3565b6001600160a01b03918216600090815260056020908152604080832093909416825291909152205460ff1690565b610494610a1836600461501f565b6000908152600f602052604090206004015490565b610494610a3b36600461501f565b613754565b610405610a4e366004615257565b61377b565b610405610a6136600461571d565b6137f4565b610405610a74366004615785565b6138be565b610494610a8736600461501f565b60009081526012602052604090205490565b6000610aa482613ac4565b92915050565b601e5460405163feb2e23360e01b8152622de55d60e41b916001600160a01b03169063feb2e23390610ae290339085906004016157aa565b602060405180830381865afa158015610aff573d6000803e3d6000fd5b505050506040513d601f19601f82011682018060405250810190610b2391906157cd565b151560011480610ba05750601e5460405163b3076d5560e01b81523360048201526001600160a01b039091169063b3076d5590602401602060405180830381865afa158015610b76573d6000803e3d6000fd5b505050506040513d601f19601f82011682018060405250810190610b9a91906157cd565b15156001145b610bc55760405162461bcd60e51b8152600401610bbc906157ea565b60405180910390fd5b600d546000908152600e60205260409020610be08a8261588f565b50600d546000908152600e60205260409020600101610bff898261588f565b50600d546000908152600e60205260409020600201610c1e888261588f565b50600d546000908152600e60205260409020600301610c3d878261588f565b50600d546000908152600e60205260409020600401610c5c868261588f565b50600d546000908152600e60205260409020600501610c7b858261588f565b50600d546000908152600e60205260409020600601610c9a848261588f565b50600d546000908152600e602090815260409091208351610cc392600790920191850190614c1e565b50600d80546000908152601060205260409020805460ff191660019081179091559054610cef91615964565b600d55505050505050505050565b606060008054610d0c9061580f565b80601f0160208091040260200160405190810160405280929190818152602001828054610d389061580f565b8015610d855780601f10610d5a57610100808354040283529160200191610d85565b820191906000526020600020905b815481529060010190602001808311610d6857829003601f168201915b5050505050905090565b6000610d9a82613ae9565b506000908152600460205260409020546001600160a01b031690565b6000610dc182611d51565b9050806001600160a01b0316836001600160a01b031603610e2e5760405162461bcd60e51b815260206004820152602160248201527f4552433732313a20617070726f76616c20746f2063757272656e74206f776e656044820152603960f91b6064820152608401610bbc565b336001600160a01b0382161480610e4a5750610e4a81336109dc565b610ebc5760405162461bcd60e51b815260206004820152603d60248201527f4552433732313a20617070726f76652063616c6c6572206973206e6f7420746f60448201527f6b656e206f776e6572206f7220617070726f76656420666f7220616c6c0000006064820152608401610bbc565b610ec68383613b48565b505050565b601e54604051630cab15dd60e31b8152336004820152602481018c90528b916316e7c89960e01b916001600160a01b0390911690636558aee890604401602060405180830381865afa158015610f25573d6000803e3d6000fd5b505050506040513d601f19601f82011682018060405250810190610f4991906157cd565b151560011480610fcd5750601e5460405163feb2e23360e01b81526001600160a01b039091169063feb2e23390610f8690339085906004016157aa565b602060405180830381865afa158015610fa3573d6000803e3d6000fd5b505050506040513d601f19601f82011682018060405250810190610fc791906157cd565b15156001145b806110455750601e5460405163b3076d5560e01b81523360048201526001600160a01b039091169063b3076d5590602401602060405180830381865afa15801561101b573d6000803e3d6000fd5b505050506040513d601f19601f8201168201806040525081019061103f91906157cd565b15156001145b6110615760405162461bcd60e51b8152600401610bbc906157ea565b60008c81526010602052604090205460ff1615156001148015611093575060008c8152601c602052604090205460ff16155b6110af5760405162461bcd60e51b8152600401610bbc906157ea565b836103e8036111885760008c8152600e602052604090206110d08c8261588f565b5060008c8152600e602052604090206001016110ec8b8261588f565b5060008c8152600e602052604090206002016111088a8261588f565b5060008c8152600e60205260409020600301611124898261588f565b5060008c8152600e60205260409020600401611140888261588f565b5060008c8152600e6020526040902060060161115c868261588f565b5060008c8152600e60209081526040909120845161118292600790920191860190614c1e565b50611206565b836103e7036111ac5760008c8152600e60205260409020600501611182878261588f565b826000815181106111bf576111bf615977565b6020026020010151600e60008e815260200190815260200160002060070185815481106111ee576111ee615977565b906000526020600020019081611204919061588f565b505b505050505050505050505050565b601e5460405163feb2e23360e01b8152631aab8d6960e01b916001600160a01b03169063feb2e2339061124d90339085906004016157aa565b602060405180830381865afa15801561126a573d6000803e3d6000fd5b505050506040513d601f19601f8201168201806040525081019061128e91906157cd565b15156001148061130b5750601e5460405163b3076d5560e01b81523360048201526001600160a01b039091169063b3076d5590602401602060405180830381865afa1580156112e1573d6000803e3d6000fd5b505050506040513d601f19601f8201168201806040525081019061130591906157cd565b15156001145b6113275760405162461bcd60e51b8152600401610bbc906157ea565b816001600160a01b0316634cf0c6976040518163ffffffff1660e01b8152600401602060405180830381865afa158015611365573d6000803e3d6000fd5b505050506040513d601f19601f8201168201806040525081019061138991906157cd565b15156001146113da5760405162461bcd60e51b815260206004820152601a60248201527f436f6e7472616374206973206e6f742052616e646f6d697a65720000000000006044820152606401610bbc565b506000918252600f60205260409091206007810180546001600160a01b039093166001600160a01b0319938416811790915560089091018054909216179055565b611426335b82613bb6565b6114425760405162461bcd60e51b8152600401610bbc9061598d565b610ec6838383613c35565b6000828152600c602090815260408083208151808301909252546001600160a01b038116808352600160a01b9091046001600160601b03169282019290925282916114c2575060408051808201909152600b546001600160a01b0381168252600160a01b90046001600160601b031660208201525b6020810151600090612710906114e1906001600160601b0316876159da565b6114eb91906159f1565b915196919550909350505050565b600061150483611f91565b82106115665760405162461bcd60e51b815260206004820152602b60248201527f455243373231456e756d657261626c653a206f776e657220696e646578206f7560448201526a74206f6620626f756e647360a81b6064820152608401610bbc565b506001600160a01b03919091166000908152600660209081526040808320938352929052205490565b601e5460405163feb2e23360e01b8152631b35855960e11b916001600160a01b03169063feb2e233906115c890339085906004016157aa565b602060405180830381865afa1580156115e5573d6000803e3d6000fd5b505050506040513d601f19601f8201168201806040525081019061160991906157cd565b1515600114806116865750601e5460405163b3076d5560e01b81523360048201526001600160a01b039091169063b3076d5590602401602060405180830381865afa15801561165c573d6000803e3d6000fd5b505050506040513d601f19601f8201168201806040525081019061168091906157cd565b15156001145b6116a25760405162461bcd60e51b8152600401610bbc906157ea565b6000828152600f60205260409081902060060154601f549151639067b67760e01b81526004810185905290916001600160a01b031690639067b67790602401602060405180830381865afa1580156116fe573d6000803e3d6000fd5b505050506040513d601f19601f820116820180604052508101906117229190615a13565b61172c9190615964565b42116117705760405162461bcd60e51b8152602060048201526013602482015272151a5b59481a185cc81b9bdd081c185cdcd959606a1b6044820152606401610bbc565b6000828152600f602052604090206002810154600390910181905560019061179d846402540be4006159da565b6117a79190615964565b6117b19190615a2c565b6000928352600f60205260409092206005019190915550565b601e5460405163feb2e23360e01b8152630e234b0960e21b916001600160a01b03169063feb2e2339061180390339085906004016157aa565b602060405180830381865afa158015611820573d6000803e3d6000fd5b505050506040513d601f19601f8201168201806040525081019061184491906157cd565b1515600114806118c15750601e5460405163b3076d5560e01b81523360048201526001600160a01b039091169063b3076d5590602401602060405180830381865afa158015611897573d6000803e3d6000fd5b505050506040513d601f19601f820116820180604052508101906118bb91906157cd565b15156001145b6118dd5760405162461bcd60e51b8152600401610bbc906157ea565b816001600160a01b0316639068edac6040518163ffffffff1660e01b8152600401602060405180830381865afa15801561191b573d6000803e3d6000fd5b505050506040513d601f19601f8201168201806040525081019061193f91906157cd565b15156001146119885760405162461bcd60e51b815260206004820152601560248201527421b7b73a3930b1ba1034b9903737ba1020b236b4b760591b6044820152606401610bbc565b50601e80546001600160a01b0319166001600160a01b0392909216919091179055565b601f546001600160a01b031633146119d55760405162461bcd60e51b8152600401610bbc90615a3f565b6119df8185613bb6565b6119fb5760405162461bcd60e51b8152600401610bbc9061598d565b6000838152600f6020526040902060020154611a18906001615964565b6000848152600f60205260409020600281018290556003015410611b1457611ae186611a4386611d51565b6000878152601a602052604090208054611a5c9061580f565b80601f0160208091040260200160405190810160405280929190818152602001828054611a889061580f565b8015611ad55780601f10611aaa57610100808354040283529160200191611ad5565b820191906000526020600020905b815481529060010190602001808311611ab857829003601f168201915b50505050508686613da6565b611aea84613e56565b600085815260176020526040902054611b04906001615964565b6000868152601760205260409020555b505050505050565b6000818152600e602052604090206006810180546060928392916007909101908290611b479061580f565b80601f0160208091040260200160405190810160405280929190818152602001828054611b739061580f565b8015611bc05780601f10611b9557610100808354040283529160200191611bc0565b820191906000526020600020905b815481529060010190602001808311611ba357829003601f168201915b5050505050915080805480602002602001604051908101604052809291908181526020016000905b82821015611c94578382906000526020600020018054611c079061580f565b80601f0160208091040260200160405190810160405280929190818152602001828054611c339061580f565b8015611c805780601f10611c5557610100808354040283529160200191611c80565b820191906000526020600020905b815481529060010190602001808311611c6357829003601f168201915b505050505081526020019060010190611be8565b50505050905091509150915091565b610ec683838360405180602001604052806000815250612ad4565b6000611cc960085490565b8210611d2c5760405162461bcd60e51b815260206004820152602c60248201527f455243373231456e756d657261626c653a20676c6f62616c20696e646578206f60448201526b7574206f6620626f756e647360a01b6064820152608401610bbc565b60088281548110611d3f57611d3f615977565b90600052602060002001549050919050565b6000818152600260205260408120546001600160a01b031680610aa45760405162461bcd60e51b8152602060048201526018602482015277115490cdcc8c4e881a5b9d985b1a59081d1bdad95b88125160421b6044820152606401610bbc565b6000828152600f60205260409020546001600160a01b03163314611e055760405162461bcd60e51b815260206004820152600b60248201526a13db9b1e48185c9d1a5cdd60aa1b6044820152606401610bbc565b6000828152601d602052604090205460ff1615611e555760405162461bcd60e51b815260206004820152600e60248201526d105b1c9958591e4814da59db995960921b6044820152606401610bbc565b6000828152601960205260409020611e6d828261588f565b50506000908152601d60205260409020805460ff19166001179055565b6060611e9582613ae9565b606060005b6000848152601260209081526040808320548352600e909152902060070154811015611f32576000848152601260209081526040808320548352600e9091529020600701805483919083908110611ef357611ef3615977565b90600052602060002001604051602001611f0e929190615af3565b60405160208183030381529060405291508080611f2a90615b11565b915050611e9a565b50600083815260136020908152604090912054611f4e91613ef9565b611f5784614094565b6000858152601a60209081526040918290209151611f7a94939291869101615b2a565b604051602081830303815290604052915050919050565b60006001600160a01b038216611ffb5760405162461bcd60e51b815260206004820152602960248201527f4552433732313a2061646472657373207a65726f206973206e6f7420612076616044820152683634b21037bbb732b960b91b6064820152608401610bbc565b506001600160a01b031660009081526003602052604090205490565b61201f614126565b6120296000614180565b565b601e54604051630cab15dd60e31b8152336004820152602481018790528691637b5dbac560e01b916001600160a01b0390911690636558aee890604401602060405180830381865afa158015612085573d6000803e3d6000fd5b505050506040513d601f19601f820116820180604052508101906120a991906157cd565b15156001148061212d5750601e5460405163feb2e23360e01b81526001600160a01b039091169063feb2e233906120e690339085906004016157aa565b602060405180830381865afa158015612103573d6000803e3d6000fd5b505050506040513d601f19601f8201168201806040525081019061212791906157cd565b15156001145b806121a55750601e5460405163b3076d5560e01b81523360048201526001600160a01b039091169063b3076d5590602401602060405180830381865afa15801561217b573d6000803e3d6000fd5b505050506040513d601f19601f8201168201806040525081019061219f91906157cd565b15156001145b6121c15760405162461bcd60e51b8152600401610bbc906157ea565b60008781526010602052604090205460ff16151560011480156121f357506000878152601c602052604090205460ff16155b801561220457506402540be4008411155b61223e5760405162461bcd60e51b815260206004820152600b60248201526a195c9c8bd99c99595e995960aa1b6044820152606401610bbc565b6000878152600f6020526040812060030154900361230d576000878152600f6020526040812080546001600160a01b0319166001600160a01b038916178155600181018790556002810191909155600381018590556006018390556122a8876402540be4006159da565b6000888152600f60205260409020600401556001846122cc896402540be4006159da565b6122d69190615964565b6122e09190615a2c565b6000888152600f60209081526040808320600501939093556011905220805460ff1916600117905561237c565b6000878152601d602052604081205460ff1615159003612360576000878152600f6020526040902080546001600160a01b0319166001600160a01b0388161781556001810186905560060183905561237c565b6000878152600f60205260409020600181018690556006018390555b50505050505050565b6000818152601b6020526040902080546060918291600182019082906123aa9061580f565b80601f01602080910402602001604051908101604052809291908181526020018280546123d69061580f565b80156124235780601f106123f857610100808354040283529160200191612423565b820191906000526020600020905b81548152906001019060200180831161240657829003601f168201915b505050505091508080546124369061580f565b80601f01602080910402602001604051908101604052809291908181526020018280546124629061580f565b80156124af5780601f10612484576101008083540402835291602001916124af565b820191906000526020600020905b81548152906001019060200180831161249257829003601f168201915b5050505050905091509150915091565b606060018054610d0c9061580f565b601e5460405163feb2e23360e01b8152639a8490f360e01b916001600160a01b03169063feb2e2339061250790339085906004016157aa565b602060405180830381865afa158015612524573d6000803e3d6000fd5b505050506040513d601f19601f8201168201806040525081019061254891906157cd565b1515600114806125c55750601e5460405163b3076d5560e01b81523360048201526001600160a01b039091169063b3076d5590602401602060405180830381865afa15801561259b573d6000803e3d6000fd5b505050506040513d601f19601f820116820180604052508101906125bf91906157cd565b15156001145b6125e15760405162461bcd60e51b8152600401610bbc906157ea565b6000838152601260209081526040808320548352601c90915290205460ff161561263b5760405162461bcd60e51b815260206004820152600b60248201526a2230ba3090333937bd32b760a91b6044820152606401610bbc565b61264483613ae9565b6000838152601a6020526040902061265c838261588f565b50505050565b6000838152600f60205260409020600701546001600160a01b0316331461268857600080fd5b600082815260136020526040902054156126a157600080fd5b6000918252601360205260409091205550565b6126bf3383836141d2565b5050565b601e5460405163feb2e23360e01b8152630569208160e51b916001600160a01b03169063feb2e233906126fc90339085906004016157aa565b602060405180830381865afa158015612719573d6000803e3d6000fd5b505050506040513d601f19601f8201168201806040525081019061273d91906157cd565b1515600114806127ba5750601e5460405163b3076d5560e01b81523360048201526001600160a01b039091169063b3076d5590602401602060405180830381865afa158015612790573d6000803e3d6000fd5b505050506040513d601f19601f820116820180604052508101906127b491906157cd565b15156001145b6127d65760405162461bcd60e51b8152600401610bbc906157ea565b60005b845181101561296e57601c6000601260008885815181106127fc576127fc615977565b6020026020010151815260200190815260200160002054815260200190815260200160002060009054906101000a900460ff16151560001515146128705760405162461bcd60e51b815260206004820152600b60248201526a2230ba3090333937bd32b760a91b6044820152606401610bbc565b61289285828151811061288557612885615977565b6020026020010151613ae9565b8381815181106128a4576128a4615977565b6020026020010151601b60008784815181106128c2576128c2615977565b602002602001015181526020019081526020016000206000600281106128ea576128ea615977565b01906128f6908261588f565b5082818151811061290957612909615977565b6020026020010151601b600087848151811061292757612927615977565b6020026020010151815260200190815260200160002060016002811061294f5761294f615977565b019061295b908261588f565b508061296681615b11565b9150506127d9565b5050505050565b61297e33611420565b61299a5760405162461bcd60e51b8152600401610bbc9061598d565b6000828152600f602052604090206004015481108015906129cc57506000828152600f60205260409020600501548111155b612a015760405162461bcd60e51b815260206004820152600660248201526534b21032b93960d11b6044820152606401610bbc565b612a0a81613e56565b600082815260176020526040902054612a24906001615964565b6000928352601760205260409092209190915550565b601a6020526000908152604090208054612a539061580f565b80601f0160208091040260200160405190810160405280929190818152602001828054612a7f9061580f565b8015612acc5780601f10612aa157610100808354040283529160200191612acc565b820191906000526020600020905b815481529060010190602001808311612aaf57829003601f168201915b505050505081565b612ade3383613bb6565b612afa5760405162461bcd60e51b8152600401610bbc9061598d565b61265c848484846142a0565b601e5460405163feb2e23360e01b8152630bcc405d60e41b916001600160a01b03169063feb2e23390612b3f90339085906004016157aa565b602060405180830381865afa158015612b5c573d6000803e3d6000fd5b505050506040513d601f19601f82011682018060405250810190612b8091906157cd565b151560011480612bfd5750601e5460405163b3076d5560e01b81523360048201526001600160a01b039091169063b3076d5590602401602060405180830381865afa158015612bd3573d6000803e3d6000fd5b505050506040513d601f19601f82011682018060405250810190612bf791906157cd565b15156001145b612c195760405162461bcd60e51b8152600401610bbc906157ea565b60008281526010602052604090205460ff161515600114612c655760405162461bcd60e51b8152602060048201526006602482015265139bc810dbdb60d21b6044820152606401610bbc565b506000908152601c60205260409020805460ff19166001179055565b6060612c8c82613ae9565b6000828152601260209081526040808320548352601890915290205460ff16158015612cc5575060008281526013602052604090205415155b15612db3576000828152601260209081526040808320548352600e90915281206005018054612cf39061580f565b80601f0160208091040260200160405190810160405280929190818152602001828054612d1f9061580f565b8015612d6c5780601f10612d4157610100808354040283529160200191612d6c565b820191906000526020600020905b815481529060010190602001808311612d4f57829003601f168201915b505050505090506000815111612d915760405180602001604052806000815250612dac565b80612d9b84614094565b604051602001611f7a929190615bd3565b9392505050565b6000828152601260209081526040808320548352601890915290205460ff16158015612deb5750600082815260136020526040902054155b15612ec8576000828152601260209081526040808320548352600e90915281206005018054612e199061580f565b80601f0160208091040260200160405190810160405280929190818152602001828054612e459061580f565b8015612e925780601f10612e6757610100808354040283529160200191612e92565b820191906000526020600020905b815481529060010190602001808311612e7557829003601f168201915b505050505090506000815111612eb75760405180602001604052806000815250612dac565b80604051602001611f7a9190615c02565b6000828152601260209081526040808320548352600e9091528120612f1890600601612ef385611e8a565b604051602001612f04929190615c2d565b6040516020818303038152906040526142d3565b90506000612f2584614425565b6000858152601260209081526040808320548352600e8252808320888452601b8352928190209051612f639493600201926001830191889101615cd0565b60408051601f19818403018152919052949350505050565b919050565b601e5460405163feb2e23360e01b81526366813b8d60e11b916001600160a01b03169063feb2e23390612fb990339085906004016157aa565b602060405180830381865afa158015612fd6573d6000803e3d6000fd5b505050506040513d601f19601f82011682018060405250810190612ffa91906157cd565b1515600114806130775750601e5460405163b3076d5560e01b81523360048201526001600160a01b039091169063b3076d5590602401602060405180830381865afa15801561304d573d6000803e3d6000fd5b505050506040513d601f19601f8201168201806040525081019061307191906157cd565b15156001145b6130935760405162461bcd60e51b8152600401610bbc906157ea565b610ec6838361448a565b6000818152600e602052604090208054606091829182918291829182916001820190600283019060038401906004850190600586019086906130de9061580f565b80601f016020809104026020016040519081016040528092919081815260200182805461310a9061580f565b80156131575780601f1061312c57610100808354040283529160200191613157565b820191906000526020600020905b81548152906001019060200180831161313a57829003601f168201915b5050505050955084805461316a9061580f565b80601f01602080910402602001604051908101604052809291908181526020018280546131969061580f565b80156131e35780601f106131b8576101008083540402835291602001916131e3565b820191906000526020600020905b8154815290600101906020018083116131c657829003601f168201915b505050505094508380546131f69061580f565b80601f01602080910402602001604051908101604052809291908181526020018280546132229061580f565b801561326f5780601f106132445761010080835404028352916020019161326f565b820191906000526020600020905b81548152906001019060200180831161325257829003601f168201915b505050505093508280546132829061580f565b80601f01602080910402602001604051908101604052809291908181526020018280546132ae9061580f565b80156132fb5780601f106132d0576101008083540402835291602001916132fb565b820191906000526020600020905b8154815290600101906020018083116132de57829003601f168201915b5050505050925081805461330e9061580f565b80601f016020809104026020016040519081016040528092919081815260200182805461333a9061580f565b80156133875780601f1061335c57610100808354040283529160200191613387565b820191906000526020600020905b81548152906001019060200180831161336a57829003601f168201915b5050505050915080805461339a9061580f565b80601f01602080910402602001604051908101604052809291908181526020018280546133c69061580f565b80156134135780601f106133e857610100808354040283529160200191613413565b820191906000526020600020905b8154815290600101906020018083116133f657829003601f168201915b5050505050905095509550955095509550955091939550919395565b601f546001600160a01b031633146134595760405162461bcd60e51b8152600401610bbc90615a3f565b6000828152600f6020526040902060020154613476906001615964565b6000838152600f6020526040902060028101829055600301541061237c576134a18786868587613da6565b806001036134ff5760008281526015602090815260408083206001600160a01b038a1684529091529020546134d7906001615964565b60008381526015602090815260408083206001600160a01b038b16845290915290205561237c565b60008281526014602090815260408083206001600160a01b038a16845290915290205461352d906001615964565b60008381526014602090815260408083206001600160a01b038b16845290915290205550505050505050565b60196020526000908152604090208054612a539061580f565b601e5460405163feb2e23360e01b815263de00e1f760e01b916001600160a01b03169063feb2e233906135ab90339085906004016157aa565b602060405180830381865afa1580156135c8573d6000803e3d6000fd5b505050506040513d601f19601f820116820180604052508101906135ec91906157cd565b1515600114806136695750601e5460405163b3076d5560e01b81523360048201526001600160a01b039091169063b3076d5590602401602060405180830381865afa15801561363f573d6000803e3d6000fd5b505050506040513d601f19601f8201168201806040525081019061366391906157cd565b15156001145b6136855760405162461bcd60e51b8152600401610bbc906157ea565b816001600160a01b031663fb9422ff6040518163ffffffff1660e01b8152600401602060405180830381865afa1580156136c3573d6000803e3d6000fd5b505050506040513d601f19601f820116820180604052508101906136e791906157cd565b15156001146137315760405162461bcd60e51b815260206004820152601660248201527521b7b73a3930b1ba1034b9903737ba1026b4b73a32b960511b6044820152606401610bbc565b50601f80546001600160a01b0319166001600160a01b0392909216919091179055565b600081815260176020908152604080832054600f909252822060020154610aa49190615a2c565b613783614126565b6001600160a01b0381166137e85760405162461bcd60e51b815260206004820152602660248201527f4f776e61626c653a206e6577206f776e657220697320746865207a65726f206160448201526564647265737360d01b6064820152608401610bbc565b6137f181614180565b50565b601f546001600160a01b0316331461381e5760405162461bcd60e51b8152600401610bbc90615a3f565b6000818152600f602052604090206002015461383b906001615964565b6000828152600f6020526040902060028101829055600301541061296e576138668585858486613da6565b60008181526016602090815260408083206001600160a01b0388168452909152902054613894906001615964565b60008281526016602090815260408083206001600160a01b03891684529091529020555050505050565b601e54604051630cab15dd60e31b8152336004820152602481018490528391630f6a85dd60e41b916001600160a01b0390911690636558aee890604401602060405180830381865afa158015613918573d6000803e3d6000fd5b505050506040513d601f19601f8201168201806040525081019061393c91906157cd565b1515600114806139c05750601e5460405163feb2e23360e01b81526001600160a01b039091169063feb2e2339061397990339085906004016157aa565b602060405180830381865afa158015613996573d6000803e3d6000fd5b505050506040513d601f19601f820116820180604052508101906139ba91906157cd565b15156001145b80613a385750601e5460405163b3076d5560e01b81523360048201526001600160a01b039091169063b3076d5590602401602060405180830381865afa158015613a0e573d6000803e3d6000fd5b505050506040513d601f19601f82011682018060405250810190613a3291906157cd565b15156001145b613a545760405162461bcd60e51b8152600401610bbc906157ea565b60008481526010602052604090205460ff1615156001148015613a8657506000848152601c602052604090205460ff16155b613aa25760405162461bcd60e51b8152600401610bbc906157ea565b5050600091825260186020526040909120805460ff1916911515919091179055565b60006001600160e01b0319821663152a902d60e11b1480610aa45750610aa48261452d565b6000818152600260205260409020546001600160a01b03166137f15760405162461bcd60e51b8152602060048201526018602482015277115490cdcc8c4e881a5b9d985b1a59081d1bdad95b88125160421b6044820152606401610bbc565b600081815260046020526040902080546001600160a01b0319166001600160a01b0384169081179091558190613b7d82611d51565b6001600160a01b03167f8c5be1e5ebec7d5bd14f71427d1e84f3dd0314c0f7b2291e5b200ac8c7c3b92560405160405180910390a45050565b600080613bc283611d51565b9050806001600160a01b0316846001600160a01b03161480613c0957506001600160a01b0380821660009081526005602090815260408083209388168352929052205460ff165b80613c2d5750836001600160a01b0316613c2284610d8f565b6001600160a01b0316145b949350505050565b826001600160a01b0316613c4882611d51565b6001600160a01b031614613c6e5760405162461bcd60e51b8152600401610bbc90615ded565b6001600160a01b038216613cd05760405162461bcd60e51b8152602060048201526024808201527f4552433732313a207472616e7366657220746f20746865207a65726f206164646044820152637265737360e01b6064820152608401610bbc565b613cdd8383836001614552565b826001600160a01b0316613cf082611d51565b6001600160a01b031614613d165760405162461bcd60e51b8152600401610bbc90615ded565b600081815260046020908152604080832080546001600160a01b03199081169091556001600160a01b0387811680865260038552838620805460001901905590871680865283862080546001019055868652600290945282852080549092168417909155905184937fddf252ad1be2c89b69c2b068fc378daa952ba7f163c4a11628f55a4df523b3ef91a4505050565b6000858152601a60205260409020613dbe848261588f565b506000828152600f60205260409081902060080154905163bf1b89d360e01b81526004810184905260248101879052604481018390526001600160a01b039091169063bf1b89d390606401600060405180830381600087803b158015613e2357600080fd5b505af1158015613e37573d6000803e3d6000fd5b50505060008681526012602052604090208390555061296e848661467f565b6000613e6182611d51565b9050613e71816000846001614552565b613e7a82611d51565b600083815260046020908152604080832080546001600160a01b03199081169091556001600160a01b0385168085526003845282852080546000190190558785526002909352818420805490911690555192935084927fddf252ad1be2c89b69c2b068fc378daa952ba7f163c4a11628f55a4df523b3ef908390a45050565b60606000613f088360026159da565b613f13906002615964565b6001600160401b03811115613f2a57613f2a614d0e565b6040519080825280601f01601f191660200182016040528015613f54576020820181803683370190505b509050600360fc1b81600081518110613f6f57613f6f615977565b60200101906001600160f81b031916908160001a905350600f60fb1b81600181518110613f9e57613f9e615977565b60200101906001600160f81b031916908160001a9053506000613fc28460026159da565b613fcd906001615964565b90505b6001811115614045576f181899199a1a9b1b9c1cb0b131b232b360811b85600f166010811061400157614001615977565b1a60f81b82828151811061401757614017615977565b60200101906001600160f81b031916908160001a90535060049490941c9361403e81615e32565b9050613fd0565b508315612dac5760405162461bcd60e51b815260206004820181905260248201527f537472696e67733a20686578206c656e67746820696e73756666696369656e746044820152606401610bbc565b606060006140a183614699565b60010190506000816001600160401b038111156140c0576140c0614d0e565b6040519080825280601f01601f1916602001820160405280156140ea576020820181803683370190505b5090508181016020015b600019016f181899199a1a9b1b9c1cb0b131b232b360811b600a86061a8153600a85049450846140f457509392505050565b600a546001600160a01b031633146120295760405162461bcd60e51b815260206004820181905260248201527f4f776e61626c653a2063616c6c6572206973206e6f7420746865206f776e65726044820152606401610bbc565b600a80546001600160a01b038381166001600160a01b0319831681179093556040519116919082907f8be0079c531659141344cd1fd0a4f28419497f9722a3daafe3b4186f6b6457e090600090a35050565b816001600160a01b0316836001600160a01b0316036142335760405162461bcd60e51b815260206004820152601960248201527f4552433732313a20617070726f766520746f2063616c6c6572000000000000006044820152606401610bbc565b6001600160a01b03838116600081815260056020908152604080832094871680845294825291829020805460ff191686151590811790915591519182527f17307eab39ab6107e8899845ad3d59bd9653f200f220920489ca2b5937696c31910160405180910390a3505050565b6142ab848484613c35565b6142b784848484614771565b61265c5760405162461bcd60e51b8152600401610bbc90615e49565b606081516000036142f257505060408051602081019091526000815290565b6000604051806060016040528060408152602001615f3f60409139905060006003845160026143219190615964565b61432b91906159f1565b6143369060046159da565b6001600160401b0381111561434d5761434d614d0e565b6040519080825280601f01601f191660200182016040528015614377576020820181803683370190505b509050600182016020820185865187015b808210156143e3576003820191508151603f8160121c168501518453600184019350603f81600c1c168501518453600184019350603f8160061c168501518453600184019350603f8116850151845350600183019250614388565b50506003865106600181146143ff57600281146144125761441a565b603d6001830353603d600283035361441a565b603d60018303535b509195945050505050565b6000818152601260209081526040808320548352600f909152812060040154606091906144529084615a2c565b6000848152601260209081526040808320548352600e909152902090915061447982614094565b604051602001611f7a929190615e9b565b6127106001600160601b0382168110156144c957604051636f483d0960e01b81526001600160601b038316600482015260248101829052604401610bbc565b6001600160a01b0383166144f357604051635b6cc80560e11b815260006004820152602401610bbc565b50604080518082019091526001600160a01b039092168083526001600160601b039091166020909201829052600160a01b90910217600b55565b60006001600160e01b0319821663780e9d6360e01b1480610aa45750610aa482614872565b60018111156145c15760405162461bcd60e51b815260206004820152603560248201527f455243373231456e756d657261626c653a20636f6e7365637574697665207472604482015274185b9cd9995c9cc81b9bdd081cdd5c1c1bdc9d1959605a1b6064820152608401610bbc565b816001600160a01b03851661461d5761461881600880546000838152600960205260408120829055600182018355919091527ff3f7a9fe364faab93b216da50a3214154f22a0a2b415b23a84c8169e8b636ee30155565b614640565b836001600160a01b0316856001600160a01b0316146146405761464085826148c2565b6001600160a01b03841661465c576146578161495f565b61296e565b846001600160a01b0316846001600160a01b03161461296e5761296e8482614a0e565b6126bf828260405180602001604052806000815250614a52565b60008072184f03e93ff9f4daa797ed6e38ed64bf6a1f0160401b83106146d85772184f03e93ff9f4daa797ed6e38ed64bf6a1f0160401b830492506040015b6d04ee2d6d415b85acef81000000008310614704576d04ee2d6d415b85acef8100000000830492506020015b662386f26fc10000831061472257662386f26fc10000830492506010015b6305f5e100831061473a576305f5e100830492506008015b612710831061474e57612710830492506004015b60648310614760576064830492506002015b600a8310610aa45760010192915050565b60006001600160a01b0384163b1561486757604051630a85bd0160e11b81526001600160a01b0385169063150b7a02906147b5903390899088908890600401615ece565b6020604051808303816000875af19250505080156147f0575060408051601f3d908101601f191682019092526147ed91810190615f0b565b60015b61484d573d80801561481e576040519150601f19603f3d011682016040523d82523d6000602084013e614823565b606091505b5080516000036148455760405162461bcd60e51b8152600401610bbc90615e49565b805181602001fd5b6001600160e01b031916630a85bd0160e11b149050613c2d565b506001949350505050565b60006001600160e01b031982166380ac58cd60e01b14806148a357506001600160e01b03198216635b5e139f60e01b145b80610aa457506301ffc9a760e01b6001600160e01b0319831614610aa4565b600060016148cf84611f91565b6148d99190615a2c565b60008381526007602052604090205490915080821461492c576001600160a01b03841660009081526006602090815260408083208584528252808320548484528184208190558352600790915290208190555b5060009182526007602090815260408084208490556001600160a01b039094168352600681528383209183525290812055565b60085460009061497190600190615a2c565b6000838152600960205260408120546008805493945090928490811061499957614999615977565b9060005260206000200154905080600883815481106149ba576149ba615977565b60009182526020808320909101929092558281526009909152604080822084905585825281205560088054806149f2576149f2615f28565b6001900381819060005260206000200160009055905550505050565b6000614a1983611f91565b6001600160a01b039093166000908152600660209081526040808320868452825280832085905593825260079052919091209190915550565b614a5c8383614a85565b614a696000848484614771565b610ec65760405162461bcd60e51b8152600401610bbc90615e49565b6001600160a01b038216614adb5760405162461bcd60e51b815260206004820181905260248201527f4552433732313a206d696e7420746f20746865207a65726f20616464726573736044820152606401610bbc565b6000818152600260205260409020546001600160a01b031615614b405760405162461bcd60e51b815260206004820152601c60248201527f4552433732313a20746f6b656e20616c7265616479206d696e746564000000006044820152606401610bbc565b614b4e600083836001614552565b6000818152600260205260409020546001600160a01b031615614bb35760405162461bcd60e51b815260206004820152601c60248201527f4552433732313a20746f6b656e20616c7265616479206d696e746564000000006044820152606401610bbc565b6001600160a01b038216600081815260036020908152604080832080546001019055848352600290915280822080546001600160a01b0319168417905551839291907fddf252ad1be2c89b69c2b068fc378daa952ba7f163c4a11628f55a4df523b3ef908290a45050565b828054828255906000526020600020908101928215614c64579160200282015b82811115614c645782518290614c54908261588f565b5091602001919060010190614c3e565b50614c70929150614c74565b5090565b80821115614c70576000614c888282614c91565b50600101614c74565b508054614c9d9061580f565b6000825580601f10614cad575050565b601f0160209004906000526020600020908101906137f191905b80821115614c705760008155600101614cc7565b6001600160e01b0319811681146137f157600080fd5b600060208284031215614d0357600080fd5b8135612dac81614cdb565b634e487b7160e01b600052604160045260246000fd5b604051601f8201601f191681016001600160401b0381118282101715614d4c57614d4c614d0e565b604052919050565b60006001600160401b03831115614d6d57614d6d614d0e565b614d80601f8401601f1916602001614d24565b9050828152838383011115614d9457600080fd5b828260208301376000602084830101529392505050565b600082601f830112614dbc57600080fd5b612dac83833560208501614d54565b60006001600160401b03821115614de457614de4614d0e565b5060051b60200190565b600082601f830112614dff57600080fd5b81356020614e14614e0f83614dcb565b614d24565b82815260059290921b84018101918181019086841115614e3357600080fd5b8286015b84811015614e725780356001600160401b03811115614e565760008081fd5b614e648986838b0101614dab565b845250918301918301614e37565b509695505050505050565b600080600080600080600080610100898b031215614e9a57600080fd5b88356001600160401b0380821115614eb157600080fd5b614ebd8c838d01614dab565b995060208b0135915080821115614ed357600080fd5b614edf8c838d01614dab565b985060408b0135915080821115614ef557600080fd5b614f018c838d01614dab565b975060608b0135915080821115614f1757600080fd5b614f238c838d01614dab565b965060808b0135915080821115614f3957600080fd5b614f458c838d01614dab565b955060a08b0135915080821115614f5b57600080fd5b614f678c838d01614dab565b945060c08b0135915080821115614f7d57600080fd5b614f898c838d01614dab565b935060e08b0135915080821115614f9f57600080fd5b50614fac8b828c01614dee565b9150509295985092959890939650565b60005b83811015614fd7578181015183820152602001614fbf565b50506000910152565b60008151808452614ff8816020860160208601614fbc565b601f01601f19169290920160200192915050565b602081526000612dac6020830184614fe0565b60006020828403121561503157600080fd5b5035919050565b80356001600160a01b0381168114612f7b57600080fd5b6000806040838503121561506257600080fd5b61506b83615038565b946020939093013593505050565b6000806000806000806000806000806101408b8d03121561509957600080fd5b8a35995060208b01356001600160401b03808211156150b757600080fd5b6150c38e838f01614dab565b9a5060408d01359150808211156150d957600080fd5b6150e58e838f01614dab565b995060608d01359150808211156150fb57600080fd5b6151078e838f01614dab565b985060808d013591508082111561511d57600080fd5b6151298e838f01614dab565b975060a08d013591508082111561513f57600080fd5b61514b8e838f01614dab565b965060c08d013591508082111561516157600080fd5b61516d8e838f01614dab565b955060e08d013591508082111561518357600080fd5b61518f8e838f01614dab565b94506101008d013593506101208d01359150808211156151ae57600080fd5b506151bb8d828e01614dee565b9150509295989b9194979a5092959850565b600080604083850312156151e057600080fd5b823591506151f060208401615038565b90509250929050565b60008060006060848603121561520e57600080fd5b61521784615038565b925061522560208501615038565b9150604084013590509250925092565b6000806040838503121561524857600080fd5b50508035926020909101359150565b60006020828403121561526957600080fd5b612dac82615038565b60008060008060008060c0878903121561528b57600080fd5b86359550602087013594506040870135935060608701359250608087013591506152b760a08801615038565b90509295509295509295565b6040815260006152d66040830185614fe0565b6020838203818501528185518084528284019150828160051b85010183880160005b8381101561532657601f19878403018552615314838351614fe0565b948601949250908501906001016152f8565b50909998505050505050505050565b6000806040838503121561534857600080fd5b8235915060208301356001600160401b0381111561536557600080fd5b61537185828601614dab565b9150509250929050565b600080600080600060a0868803121561539357600080fd5b853594506153a360208701615038565b94979496505050506040830135926060810135926080909101359150565b6040815260006153d46040830185614fe0565b82810360208401526153e68185614fe0565b95945050505050565b60008060006060848603121561540457600080fd5b505081359360208301359350604090920135919050565b80151581146137f157600080fd5b6000806040838503121561543c57600080fd5b61544583615038565b915060208301356154558161541b565b809150509250929050565b60008060006060848603121561547557600080fd5b83356001600160401b038082111561548c57600080fd5b818601915086601f8301126154a057600080fd5b813560206154b0614e0f83614dcb565b82815260059290921b8401810191818101908a8411156154cf57600080fd5b948201945b838610156154ed578535825294820194908201906154d4565b9750508701359250508082111561550357600080fd5b61550f87838801614dee565b9350604086013591508082111561552557600080fd5b5061553286828701614dee565b9150509250925092565b6000806000806080858703121561555257600080fd5b61555b85615038565b935061556960208601615038565b92506040850135915060608501356001600160401b0381111561558b57600080fd5b8501601f8101871361559c57600080fd5b6155ab87823560208401614d54565b91505092959194509250565b600080604083850312156155ca57600080fd5b6155d383615038565b915060208301356001600160601b038116811461545557600080fd5b60c08152600061560260c0830189614fe0565b82810360208401526156148189614fe0565b905082810360408401526156288188614fe0565b9050828103606084015261563c8187614fe0565b905082810360808401526156508186614fe0565b905082810360a08401526156648185614fe0565b9998505050505050505050565b600080600080600080600060e0888a03121561568c57600080fd5b8735965061569c60208901615038565b95506156aa60408901615038565b945060608801356001600160401b038111156156c557600080fd5b6156d18a828b01614dab565b979a969950949760808101359660a0820135965060c090910135945092505050565b6000806040838503121561570657600080fd5b61570f83615038565b91506151f060208401615038565b600080600080600060a0868803121561573557600080fd5b8535945061574560208701615038565b935060408601356001600160401b0381111561576057600080fd5b61576c88828901614dab565b9598949750949560608101359550608001359392505050565b6000806040838503121561579857600080fd5b8235915060208301356154558161541b565b6001600160a01b039290921682526001600160e01b031916602082015260400190565b6000602082840312156157df57600080fd5b8151612dac8161541b565b6020808252600b908201526a139bdd08185b1b1bddd95960aa1b604082015260600190565b600181811c9082168061582357607f821691505b60208210810361584357634e487b7160e01b600052602260045260246000fd5b50919050565b601f821115610ec657600081815260208120601f850160051c810160208610156158705750805b601f850160051c820191505b81811015611b145782815560010161587c565b81516001600160401b038111156158a8576158a8614d0e565b6158bc816158b6845461580f565b84615849565b602080601f8311600181146158f157600084156158d95750858301515b600019600386901b1c1916600185901b178555611b14565b600085815260208120601f198616915b8281101561592057888601518255948401946001909101908401615901565b508582101561593e5787850151600019600388901b60f8161c191681555b5050505050600190811b01905550565b634e487b7160e01b600052601160045260246000fd5b80820180821115610aa457610aa461594e565b634e487b7160e01b600052603260045260246000fd5b6020808252602d908201527f4552433732313a2063616c6c6572206973206e6f7420746f6b656e206f776e6560408201526c1c881bdc88185c1c1c9bdd9959609a1b606082015260800190565b8082028115828204841417610aa457610aa461594e565b600082615a0e57634e487b7160e01b600052601260045260246000fd5b500490565b600060208284031215615a2557600080fd5b5051919050565b81810381811115610aa457610aa461594e565b60208082526021908201527f43616c6c6572206973206e6f7420746865204d696e74657220436f6e747261636040820152601d60fa1b606082015260800190565b60008154615a8d8161580f565b60018281168015615aa55760018114615aba57615ae9565b60ff1984168752821515830287019450615ae9565b8560005260208060002060005b85811015615ae05781548a820152908401908201615ac7565b50505082870194505b5050505092915050565b60008351615b05818460208801614fbc565b6153e681840185615a80565b600060018201615b2357615b2361594e565b5060010190565b696c657420686173683d2760b01b815260008551615b4f81600a850160208a01614fbc565b6d273b6c657420746f6b656e49643d60901b600a918401918201528551615b7d816018840160208a01614fbc565b6f3b6c657420746f6b656e446174613d5b60801b60189290910191820152615ba86028820186615a80565b9050615d3b60f01b81528351615bc5816002840160208801614fbc565b016002019695505050505050565b60008351615be5818460208801614fbc565b835190830190615bf9818360208801614fbc565b01949350505050565b60008251615c14818460208701614fbc565b6670656e64696e6760c81b920191825250600701919050565b7f3c68746d6c3e3c686561643e3c2f686561643e3c626f64793e3c7363726970748152651039b9319e9160d11b60208201526000615c6e6026830185615a80565b72111f1e17b9b1b934b83a1f1e39b1b934b83a1f60691b81528351615c9a816013840160208801614fbc565b7f3c2f7363726970743e3c2f626f64793e3c2f68746d6c3e00000000000000000060139290910191820152602a01949350505050565b7f646174613a6170706c69636174696f6e2f6a736f6e3b757466382c7b226e616d81526332911d1160e11b602082015260008651615d15816024850160208b01614fbc565b701116113232b9b1b934b83a34b7b7111d1160791b602491840191820152615d406035820188615a80565b6a11161134b6b0b3b2911d1160a91b81529050615d60600b820187615a80565b6f222c2261747472696275746573223a5b60801b81529050615d856010820186615a80565b90507f5d2c22616e696d6174696f6e5f75726c223a22646174613a746578742f68746d8152681b0ed8985cd94d8d0b60ba1b60208201528351615dcf816029840160208801614fbc565b61227d60f01b60299290910191820152602b01979650505050505050565b60208082526025908201527f4552433732313a207472616e736665722066726f6d20696e636f72726563742060408201526437bbb732b960d91b606082015260800190565b600081615e4157615e4161594e565b506000190190565b60208082526032908201527f4552433732313a207472616e7366657220746f206e6f6e20455243373231526560408201527131b2b4bb32b91034b6b83632b6b2b73a32b960711b606082015260800190565b6000615ea78285615a80565b61202360f01b81528351615ec2816002840160208801614fbc565b01600201949350505050565b6001600160a01b0385811682528416602082015260408101839052608060608201819052600090615f0190830184614fe0565b9695505050505050565b600060208284031215615f1d57600080fd5b8151612dac81614cdb565b634e487b7160e01b600052603160045260246000fdfe4142434445464748494a4b4c4d4e4f505152535455565758595a6162636465666768696a6b6c6d6e6f707172737475767778797a303132333435363738392b2fa2646970667358221220bb1c33d57fa1a616360655058db3e6ffbd7234edd11347d1ab010a338bc4348664736f6c63430008150033",
    "linkReferences": {}
  },
  "methodIdentifiers": {
    "addMinterContract(address)": "de00e1f7",
    "addRandomizer(uint256,address)": "1aab8d69",
    "airDropTokens(uint256,address,string,uint256,uint256)": "f35c1452",
    "approve(address,uint256)": "095ea7b3",
    "artistSignature(uint256,string)": "6799a46a",
    "artistSigned(uint256)": "d3d54928",
    "artistsSignatures(uint256)": "d9a03e38",
    "balanceOf(address)": "70a08231",
    "burn(uint256,uint256)": "b390c0ab",
    "burnAmount(uint256)": "6fafdf83",
    "burnToMint(uint256,uint256,uint256,uint256,uint256,address)": "39143a1d",
    "changeMetadataView(uint256,bool)": "f6a85dd0",
    "changeTokenData(uint256,string)": "9a8490f3",
    "collectionFreezeStatus(uint256)": "2ed330f7",
    "createCollection(string,string,string,string,string,string,string,string[])": "02de55d0",
    "freezeCollection(uint256)": "bcc405d0",
    "getApproved(uint256)": "081812fc",
    "isApprovedForAll(address,address)": "e985e9c5",
    "mint(uint256,address,address,string,uint256,uint256,uint256)": "d3322d53",
    "minterContract()": "92f00233",
    "name()": "06fdde03",
    "newCollectionIndex()": "663a3c00",
    "onchainMetadata(uint256)": "074b5539",
    "owner()": "8da5cb5b",
    "ownerOf(uint256)": "6352211e",
    "renounceOwnership()": "715018a6",
    "retrieveArtistAddress(uint256)": "b9902968",
    "retrieveCollectionAdditionalData(uint256)": "5c91d74a",
    "retrieveCollectionInfo(uint256)": "d0950271",
    "retrieveCollectionLibraryAndScript(uint256)": "3d2bed8d",
    "retrieveGenerativeScript(uint256)": "6fa13531",
    "retrieveTokenHash(uint256)": "4ab6897c",
    "retrieveTokensAirdroppedPerAddress(uint256,address)": "94c14957",
    "retrieveTokensMintedALPerAddress(uint256,address)": "cb6d67e0",
    "retrieveTokensMintedPublicPerAddress(uint256,address)": "e943a2c7",
    "retrievetokenImageAndAttributes(uint256)": "80f8c8ab",
    "retrievewereDataAdded(uint256)": "d3741000",
    "royaltyInfo(uint256,uint256)": "2a55205a",
    "safeTransferFrom(address,address,uint256)": "42842e0e",
    "safeTransferFrom(address,address,uint256,bytes)": "b88d4fde",
    "setApprovalForAll(address,bool)": "a22cb465",
    "setCollectionData(uint256,address,uint256,uint256,uint256)": "7b5dbac5",
    "setDefaultRoyalties(address,uint96)": "cd02771a",
    "setFinalSupply(uint256)": "366b0ab2",
    "setTokenHash(uint256,uint256,bytes32)": "9cac0f1f",
    "supportsInterface(bytes4)": "01ffc9a7",
    "symbol()": "95d89b41",
    "tokenByIndex(uint256)": "4f6ccce7",
    "tokenData(uint256)": "b4b5b48f",
    "tokenOfOwnerByIndex(address,uint256)": "2f745c59",
    "tokenURI(uint256)": "c87b56dd",
    "totalSupply()": "18160ddd",
    "totalSupplyOfCollection(uint256)": "f18332dd",
    "transferFrom(address,address,uint256)": "23b872dd",
    "transferOwnership(address)": "f2fde38b",
    "updateAdminContract(address)": "388d2c24",
    "updateCollectionInfo(uint256,string,string,string,string,string,string,string,uint256,string[])": "16e7c899",
    "updateImagesAndAttributes(uint256[],string[],string[])": "ad241020",
    "viewCirSupply(uint256)": "af569fd4",
    "viewColIDforTokenID(uint256)": "fa92668a",
    "viewMaxAllowance(uint256)": "945e549b",
    "viewTokensIndexMax(uint256)": "6c6aab16",
    "viewTokensIndexMin(uint256)": "e9b7a860"
  },
  "id": 24
}