{
  "abi": [
    {
      "inputs": [
        {
          "internalType": "address",
          "name": "_gencore",
          "type": "address"
        },
        {
          "internalType": "address",
          "name": "_del",
          "type": "address"
        },
        {
          "internalType": "address",
          "name": "_adminsContract",
          "type": "address"
        }
      ],
      "stateMutability": "nonpayable",
      "type": "constructor"
    },
    {
      "anonymous": false,
      "inputs": [
        {
          "indexed": true,
          "internalType": "address",
          "name": "previousOwner",
          "type": "address"
        },
        {
          "indexed": true,
          "internalType": "address",
          "name": "newOwner",
          "type": "address"
        }
      ],
      "name": "OwnershipTransferred",
      "type": "event"
    },
    {
      "anonymous": false,
      "inputs": [
        {
          "indexed": true,
          "internalType": "address",
          "name": "_add",
          "type": "address"
        },
        {
          "indexed": false,
          "internalType": "bool",
          "name": "status",
          "type": "bool"
        },
        {
          "indexed": true,
          "internalType": "uint256",
          "name": "funds",
          "type": "uint256"
        }
      ],
      "name": "PayArtist",
      "type": "event"
    },
    {
      "anonymous": false,
      "inputs": [
        {
          "indexed": true,
          "internalType": "address",
          "name": "_add",
          "type": "address"
        },
        {
          "indexed": false,
          "internalType": "bool",
          "name": "status",
          "type": "bool"
        },
        {
          "indexed": true,
          "internalType": "uint256",
          "name": "funds",
          "type": "uint256"
        }
      ],
      "name": "PayTeam",
      "type": "event"
    },
    {
      "anonymous": false,
      "inputs": [
        {
          "indexed": true,
          "internalType": "address",
          "name": "_add",
          "type": "address"
        },
        {
          "indexed": false,
          "internalType": "bool",
          "name": "status",
          "type": "bool"
        },
        {
          "indexed": true,
          "internalType": "uint256",
          "name": "funds",
          "type": "uint256"
        }
      ],
      "name": "Withdraw",
      "type": "event"
    },
    {
      "inputs": [
        {
          "internalType": "uint256",
          "name": "_collectionID",
          "type": "uint256"
        },
        {
          "internalType": "bool",
          "name": "_statusPrimary",
          "type": "bool"
        },
        {
          "internalType": "bool",
          "name": "_statusSecondary",
          "type": "bool"
        }
      ],
      "name": "acceptAddressesAndPercentages",
      "outputs": [],
      "stateMutability": "nonpayable",
      "type": "function"
    },
    {
      "inputs": [
        {
          "internalType": "address[]",
          "name": "_recipients",
          "type": "address[]"
        },
        {
          "internalType": "string[]",
          "name": "_tokenData",
          "type": "string[]"
        },
        {
          "internalType": "uint256[]",
          "name": "_saltfun_o",
          "type": "uint256[]"
        },
        {
          "internalType": "uint256",
          "name": "_collectionID",
          "type": "uint256"
        },
        {
          "internalType": "uint256[]",
          "name": "_numberOfTokens",
          "type": "uint256[]"
        }
      ],
      "name": "airDropTokens",
      "outputs": [],
      "stateMutability": "nonpayable",
      "type": "function"
    },
    {
      "inputs": [
        {
          "internalType": "bytes32",
          "name": "",
          "type": "bytes32"
        },
        {
          "internalType": "uint256",
          "name": "",
          "type": "uint256"
        }
      ],
      "name": "burnExternalToMintCollections",
      "outputs": [
        {
          "internalType": "bool",
          "name": "",
          "type": "bool"
        }
      ],
      "stateMutability": "view",
      "type": "function"
    },
    {
      "inputs": [
        {
          "internalType": "bytes32",
          "name": "",
          "type": "bytes32"
        }
      ],
      "name": "burnOrSwapAddress",
      "outputs": [
        {
          "internalType": "address",
          "name": "",
          "type": "address"
        }
      ],
      "stateMutability": "view",
      "type": "function"
    },
    {
      "inputs": [
        {
          "internalType": "address",
          "name": "_erc721Collection",
          "type": "address"
        },
        {
          "internalType": "uint256",
          "name": "_burnCollectionID",
          "type": "uint256"
        },
        {
          "internalType": "uint256",
          "name": "_tokenId",
          "type": "uint256"
        },
        {
          "internalType": "uint256",
          "name": "_mintCollectionID",
          "type": "uint256"
        },
        {
          "internalType": "string",
          "name": "_tokenData",
          "type": "string"
        },
        {
          "internalType": "bytes32[]",
          "name": "merkleProof",
          "type": "bytes32[]"
        },
        {
          "internalType": "uint256",
          "name": "_saltfun_o",
          "type": "uint256"
        }
      ],
      "name": "burnOrSwapExternalToMint",
      "outputs": [],
      "stateMutability": "payable",
      "type": "function"
    },
    {
      "inputs": [
        {
          "internalType": "uint256",
          "name": "_burnCollectionID",
          "type": "uint256"
        },
        {
          "internalType": "uint256",
          "name": "_tokenId",
          "type": "uint256"
        },
        {
          "internalType": "uint256",
          "name": "_mintCollectionID",
          "type": "uint256"
        },
        {
          "internalType": "uint256",
          "name": "_saltfun_o",
          "type": "uint256"
        }
      ],
      "name": "burnToMint",
      "outputs": [],
      "stateMutability": "payable",
      "type": "function"
    },
    {
      "inputs": [
        {
          "internalType": "uint256",
          "name": "",
          "type": "uint256"
        },
        {
          "internalType": "uint256",
          "name": "",
          "type": "uint256"
        }
      ],
      "name": "burnToMintCollections",
      "outputs": [
        {
          "internalType": "bool",
          "name": "",
          "type": "bool"
        }
      ],
      "stateMutability": "view",
      "type": "function"
    },
    {
      "inputs": [
        {
          "internalType": "uint256",
          "name": "",
          "type": "uint256"
        }
      ],
      "name": "collectionTotalAmount",
      "outputs": [
        {
          "internalType": "uint256",
          "name": "",
          "type": "uint256"
        }
      ],
      "stateMutability": "view",
      "type": "function"
    },
    {
      "inputs": [],
      "name": "emergencyWithdraw",
      "outputs": [],
      "stateMutability": "nonpayable",
      "type": "function"
    },
    {
      "inputs": [],
      "name": "gencore",
      "outputs": [
        {
          "internalType": "contract INextGenCore",
          "name": "",
          "type": "address"
        }
      ],
      "stateMutability": "view",
      "type": "function"
    },
    {
      "inputs": [
        {
          "internalType": "uint256",
          "name": "_tokenId",
          "type": "uint256"
        }
      ],
      "name": "getAuctionEndTime",
      "outputs": [
        {
          "internalType": "uint256",
          "name": "",
          "type": "uint256"
        }
      ],
      "stateMutability": "view",
      "type": "function"
    },
    {
      "inputs": [
        {
          "internalType": "uint256",
          "name": "_tokenId",
          "type": "uint256"
        }
      ],
      "name": "getAuctionStatus",
      "outputs": [
        {
          "internalType": "bool",
          "name": "",
          "type": "bool"
        }
      ],
      "stateMutability": "view",
      "type": "function"
    },
    {
      "inputs": [
        {
          "internalType": "uint256",
          "name": "_collectionID",
          "type": "uint256"
        }
      ],
      "name": "getEndTime",
      "outputs": [
        {
          "internalType": "uint256",
          "name": "",
          "type": "uint256"
        }
      ],
      "stateMutability": "view",
      "type": "function"
    },
    {
      "inputs": [
        {
          "internalType": "uint256",
          "name": "_collectionId",
          "type": "uint256"
        }
      ],
      "name": "getPrice",
      "outputs": [
        {
          "internalType": "uint256",
          "name": "",
          "type": "uint256"
        }
      ],
      "stateMutability": "view",
      "type": "function"
    },
    {
      "inputs": [
        {
          "internalType": "uint256",
          "name": "_burnCollectionID",
          "type": "uint256"
        },
        {
          "internalType": "uint256",
          "name": "_mintCollectionID",
          "type": "uint256"
        },
        {
          "internalType": "bool",
          "name": "_status",
          "type": "bool"
        }
      ],
      "name": "initializeBurn",
      "outputs": [],
      "stateMutability": "nonpayable",
      "type": "function"
    },
    {
      "inputs": [
        {
          "internalType": "address",
          "name": "_erc721Collection",
          "type": "address"
        },
        {
          "internalType": "uint256",
          "name": "_burnCollectionID",
          "type": "uint256"
        },
        {
          "internalType": "uint256",
          "name": "_mintCollectionID",
          "type": "uint256"
        },
        {
          "internalType": "uint256",
          "name": "_tokmin",
          "type": "uint256"
        },
        {
          "internalType": "uint256",
          "name": "_tokmax",
          "type": "uint256"
        },
        {
          "internalType": "address",
          "name": "_burnOrSwapAddress",
          "type": "address"
        },
        {
          "internalType": "bool",
          "name": "_status",
          "type": "bool"
        }
      ],
      "name": "initializeExternalBurnOrSwap",
      "outputs": [],
      "stateMutability": "nonpayable",
      "type": "function"
    },
    {
      "inputs": [],
      "name": "isMinterContract",
      "outputs": [
        {
          "internalType": "bool",
          "name": "",
          "type": "bool"
        }
      ],
      "stateMutability": "pure",
      "type": "function"
    },
    {
      "inputs": [
        {
          "internalType": "uint256",
          "name": "",
          "type": "uint256"
        }
      ],
      "name": "lastMintDate",
      "outputs": [
        {
          "internalType": "uint256",
          "name": "",
          "type": "uint256"
        }
      ],
      "stateMutability": "view",
      "type": "function"
    },
    {
      "inputs": [
        {
          "internalType": "uint256",
          "name": "_collectionID",
          "type": "uint256"
        },
        {
          "internalType": "uint256",
          "name": "_numberOfTokens",
          "type": "uint256"
        },
        {
          "internalType": "uint256",
          "name": "_maxAllowance",
          "type": "uint256"
        },
        {
          "internalType": "string",
          "name": "_tokenData",
          "type": "string"
        },
        {
          "internalType": "address",
          "name": "_mintTo",
          "type": "address"
        },
        {
          "internalType": "bytes32[]",
          "name": "merkleProof",
          "type": "bytes32[]"
        },
        {
          "internalType": "address",
          "name": "_delegator",
          "type": "address"
        },
        {
          "internalType": "uint256",
          "name": "_saltfun_o",
          "type": "uint256"
        }
      ],
      "name": "mint",
      "outputs": [],
      "stateMutability": "payable",
      "type": "function"
    },
    {
      "inputs": [
        {
          "internalType": "address",
          "name": "_recipient",
          "type": "address"
        },
        {
          "internalType": "string",
          "name": "_tokenData",
          "type": "string"
        },
        {
          "internalType": "uint256",
          "name": "_saltfun_o",
          "type": "uint256"
        },
        {
          "internalType": "uint256",
          "name": "_collectionID",
          "type": "uint256"
        },
        {
          "internalType": "uint256",
          "name": "_auctionEndTime",
          "type": "uint256"
        }
      ],
      "name": "mintAndAuction",
      "outputs": [],
      "stateMutability": "nonpayable",
      "type": "function"
    },
    {
      "inputs": [],
      "name": "owner",
      "outputs": [
        {
          "internalType": "address",
          "name": "",
          "type": "address"
        }
      ],
      "stateMutability": "view",
      "type": "function"
    },
    {
      "inputs": [
        {
          "internalType": "uint256",
          "name": "_collectionID",
          "type": "uint256"
        },
        {
          "internalType": "address",
          "name": "_team1",
          "type": "address"
        },
        {
          "internalType": "address",
          "name": "_team2",
          "type": "address"
        },
        {
          "internalType": "uint256",
          "name": "_teamperc1",
          "type": "uint256"
        },
        {
          "internalType": "uint256",
          "name": "_teamperc2",
          "type": "uint256"
        }
      ],
      "name": "payArtist",
      "outputs": [],
      "stateMutability": "nonpayable",
      "type": "function"
    },
    {
      "inputs": [
        {
          "internalType": "uint256",
          "name": "_collectionID",
          "type": "uint256"
        },
        {
          "internalType": "address",
          "name": "_primaryAdd1",
          "type": "address"
        },
        {
          "internalType": "address",
          "name": "_primaryAdd2",
          "type": "address"
        },
        {
          "internalType": "address",
          "name": "_primaryAdd3",
          "type": "address"
        },
        {
          "internalType": "uint256",
          "name": "_add1Percentage",
          "type": "uint256"
        },
        {
          "internalType": "uint256",
          "name": "_add2Percentage",
          "type": "uint256"
        },
        {
          "internalType": "uint256",
          "name": "_add3Percentage",
          "type": "uint256"
        }
      ],
      "name": "proposePrimaryAddressesAndPercentages",
      "outputs": [],
      "stateMutability": "nonpayable",
      "type": "function"
    },
    {
      "inputs": [
        {
          "internalType": "uint256",
          "name": "_collectionID",
          "type": "uint256"
        },
        {
          "internalType": "address",
          "name": "_secondaryAdd1",
          "type": "address"
        },
        {
          "internalType": "address",
          "name": "_secondaryAdd2",
          "type": "address"
        },
        {
          "internalType": "address",
          "name": "_secondaryAdd3",
          "type": "address"
        },
        {
          "internalType": "uint256",
          "name": "_add1Percentage",
          "type": "uint256"
        },
        {
          "internalType": "uint256",
          "name": "_add2Percentage",
          "type": "uint256"
        },
        {
          "internalType": "uint256",
          "name": "_add3Percentage",
          "type": "uint256"
        }
      ],
      "name": "proposeSecondaryAddressesAndPercentages",
      "outputs": [],
      "stateMutability": "nonpayable",
      "type": "function"
    },
    {
      "inputs": [],
      "name": "renounceOwnership",
      "outputs": [],
      "stateMutability": "nonpayable",
      "type": "function"
    },
    {
      "inputs": [
        {
          "internalType": "uint256",
          "name": "_collectionID",
          "type": "uint256"
        }
      ],
      "name": "retrieveCollectionMintingDetails",
      "outputs": [
        {
          "internalType": "uint256",
          "name": "",
          "type": "uint256"
        },
        {
          "internalType": "uint256",
          "name": "",
          "type": "uint256"
        },
        {
          "internalType": "uint256",
          "name": "",
          "type": "uint256"
        },
        {
          "internalType": "uint256",
          "name": "",
          "type": "uint256"
        },
        {
          "internalType": "uint8",
          "name": "",
          "type": "uint8"
        },
        {
          "internalType": "address",
          "name": "",
          "type": "address"
        }
      ],
      "stateMutability": "view",
      "type": "function"
    },
    {
      "inputs": [
        {
          "internalType": "uint256",
          "name": "_collectionID",
          "type": "uint256"
        }
      ],
      "name": "retrieveCollectionPhases",
      "outputs": [
        {
          "internalType": "uint256",
          "name": "",
          "type": "uint256"
        },
        {
          "internalType": "uint256",
          "name": "",
          "type": "uint256"
        },
        {
          "internalType": "bytes32",
          "name": "",
          "type": "bytes32"
        },
        {
          "internalType": "uint256",
          "name": "",
          "type": "uint256"
        },
        {
          "internalType": "uint256",
          "name": "",
          "type": "uint256"
        }
      ],
      "stateMutability": "view",
      "type": "function"
    },
    {
      "inputs": [
        {
          "internalType": "uint256",
          "name": "_collectionID",
          "type": "uint256"
        }
      ],
      "name": "retrievePrimaryAddressesAndPercentages",
      "outputs": [
        {
          "internalType": "address",
          "name": "",
          "type": "address"
        },
        {
          "internalType": "address",
          "name": "",
          "type": "address"
        },
        {
          "internalType": "address",
          "name": "",
          "type": "address"
        },
        {
          "internalType": "uint256",
          "name": "",
          "type": "uint256"
        },
        {
          "internalType": "uint256",
          "name": "",
          "type": "uint256"
        },
        {
          "internalType": "uint256",
          "name": "",
          "type": "uint256"
        },
        {
          "internalType": "bool",
          "name": "",
          "type": "bool"
        }
      ],
      "stateMutability": "view",
      "type": "function"
    },
    {
      "inputs": [
        {
          "internalType": "uint256",
          "name": "_collectionID",
          "type": "uint256"
        }
      ],
      "name": "retrievePrimarySplits",
      "outputs": [
        {
          "internalType": "uint256",
          "name": "",
          "type": "uint256"
        },
        {
          "internalType": "uint256",
          "name": "",
          "type": "uint256"
        }
      ],
      "stateMutability": "view",
      "type": "function"
    },
    {
      "inputs": [
        {
          "internalType": "uint256",
          "name": "_collectionID",
          "type": "uint256"
        }
      ],
      "name": "retrieveSecondaryAddressesAndPercentages",
      "outputs": [
        {
          "internalType": "address",
          "name": "",
          "type": "address"
        },
        {
          "internalType": "address",
          "name": "",
          "type": "address"
        },
        {
          "internalType": "address",
          "name": "",
          "type": "address"
        },
        {
          "internalType": "uint256",
          "name": "",
          "type": "uint256"
        },
        {
          "internalType": "uint256",
          "name": "",
          "type": "uint256"
        },
        {
          "internalType": "uint256",
          "name": "",
          "type": "uint256"
        },
        {
          "internalType": "bool",
          "name": "",
          "type": "bool"
        }
      ],
      "stateMutability": "view",
      "type": "function"
    },
    {
      "inputs": [
        {
          "internalType": "uint256",
          "name": "_collectionID",
          "type": "uint256"
        }
      ],
      "name": "retrieveSecondarySplits",
      "outputs": [
        {
          "internalType": "uint256",
          "name": "",
          "type": "uint256"
        },
        {
          "internalType": "uint256",
          "name": "",
          "type": "uint256"
        }
      ],
      "stateMutability": "view",
      "type": "function"
    },
    {
      "inputs": [
        {
          "internalType": "uint256",
          "name": "_collectionID",
          "type": "uint256"
        },
        {
          "internalType": "uint256",
          "name": "_collectionMintCost",
          "type": "uint256"
        },
        {
          "internalType": "uint256",
          "name": "_collectionEndMintCost",
          "type": "uint256"
        },
        {
          "internalType": "uint256",
          "name": "_rate",
          "type": "uint256"
        },
        {
          "internalType": "uint256",
          "name": "_timePeriod",
          "type": "uint256"
        },
        {
          "internalType": "uint8",
          "name": "_salesOption",
          "type": "uint8"
        },
        {
          "internalType": "address",
          "name": "_delAddress",
          "type": "address"
        }
      ],
      "name": "setCollectionCosts",
      "outputs": [],
      "stateMutability": "nonpayable",
      "type": "function"
    },
    {
      "inputs": [
        {
          "internalType": "uint256",
          "name": "_collectionID",
          "type": "uint256"
        },
        {
          "internalType": "uint256",
          "name": "_allowlistStartTime",
          "type": "uint256"
        },
        {
          "internalType": "uint256",
          "name": "_allowlistEndTime",
          "type": "uint256"
        },
        {
          "internalType": "uint256",
          "name": "_publicStartTime",
          "type": "uint256"
        },
        {
          "internalType": "uint256",
          "name": "_publicEndTime",
          "type": "uint256"
        },
        {
          "internalType": "bytes32",
          "name": "_merkleRoot",
          "type": "bytes32"
        }
      ],
      "name": "setCollectionPhases",
      "outputs": [],
      "stateMutability": "nonpayable",
      "type": "function"
    },
    {
      "inputs": [
        {
          "internalType": "uint256",
          "name": "_collectionID",
          "type": "uint256"
        },
        {
          "internalType": "uint256",
          "name": "_artistPrSplit",
          "type": "uint256"
        },
        {
          "internalType": "uint256",
          "name": "_teamPrSplit",
          "type": "uint256"
        },
        {
          "internalType": "uint256",
          "name": "_artistSecSplit",
          "type": "uint256"
        },
        {
          "internalType": "uint256",
          "name": "_teamSecSplit",
          "type": "uint256"
        }
      ],
      "name": "setPrimaryAndSecondarySplits",
      "outputs": [],
      "stateMutability": "nonpayable",
      "type": "function"
    },
    {
      "inputs": [
        {
          "internalType": "address",
          "name": "newOwner",
          "type": "address"
        }
      ],
      "name": "transferOwnership",
      "outputs": [],
      "stateMutability": "nonpayable",
      "type": "function"
    },
    {
      "inputs": [
        {
          "internalType": "address",
          "name": "_newadminsContract",
          "type": "address"
        }
      ],
      "name": "updateAdminContract",
      "outputs": [],
      "stateMutability": "nonpayable",
      "type": "function"
    },
    {
      "inputs": [
        {
          "internalType": "address",
          "name": "_gencore",
          "type": "address"
        }
      ],
      "name": "updateCoreContract",
      "outputs": [],
      "stateMutability": "nonpayable",
      "type": "function"
    },
    {
      "inputs": [
        {
          "internalType": "uint256",
          "name": "_collectionID",
          "type": "uint256"
        },
        {
          "internalType": "address",
          "name": "_collectionAddress",
          "type": "address"
        }
      ],
      "name": "updateDelegationCollection",
      "outputs": [],
      "stateMutability": "nonpayable",
      "type": "function"
    }
  ],
  "bytecode": {
    "object": "0x60806040523480156200001157600080fd5b5060405162006135380380620061358339810160408190526200003491620000ef565b6200003f3362000082565b600f80546001600160a01b039485166001600160a01b03199182161790915560108054938516938216939093179092556011805491909316911617905562000139565b600080546001600160a01b038381166001600160a01b0319831681178455604051919092169283917f8be0079c531659141344cd1fd0a4f28419497f9722a3daafe3b4186f6b6457e09190a35050565b80516001600160a01b0381168114620000ea57600080fd5b919050565b6000806000606084860312156200010557600080fd5b6200011084620000d2565b92506200012060208501620000d2565b91506200013060408501620000d2565b90509250925092565b615fec80620001496000396000f3fe6080604052600436106102255760003560e01c80639067b67711610123578063b85f97a0116100ab578063d6516f471161006f578063d6516f47146108c5578063db2e21bc146108e5578063e7572230146108fa578063f2fde38b1461091a578063fb9422ff1461093a57600080fd5b8063b85f97a014610796578063bf40b89a146107b6578063d2f4302f146107eb578063d3be0bc11461080b578063d418baec146108a557600080fd5b80639e424a93116100f25780639e424a93146106b1578063a048901c14610723578063a316715614610736578063b047168f14610763578063b5bc955f1461077657600080fd5b80639067b677146105b5578063930e79f1146105e557806394e76daf14610612578063951909461461067b57600080fd5b80634aa7df07116101b157806371b084f31161017557806371b084f3146104d85780637765c52c146105135780637e04bcb71461054357806381c1a52b146105635780638da5cb5b1461058357600080fd5b80634aa7df07146103fd5780634c29c6f2146104485780635ac57d8b14610468578063669ab82f14610488578063715018a6146104c357600080fd5b80632ebc24b3116101f85780632ebc24b31461029f578063388d2c24146102bf5780633b964798146102df5780633d205e081461032e57806346372ba6146103dd57600080fd5b8063037528501461022a5780631253e16d1461023f5780631c7a8b221461025f5780632b673a2e1461027f575b600080fd5b61023d610238366004615546565b61094e565b005b34801561024b57600080fd5b5061023d61025a3660046155f5565b6112c2565b34801561026b57600080fd5b5061023d61027a36600461562e565b611520565b34801561028b57600080fd5b5061023d61029a36600461569c565b6117e4565b3480156102ab57600080fd5b5061023d6102ba3660046156b9565b61191a565b3480156102cb57600080fd5b5061023d6102da36600461569c565b611fab565b3480156102eb57600080fd5b506103146102fa36600461570b565b600090815260096020526040902080546001909101549091565b604080519283526020830191909152015b60405180910390f35b34801561033a57600080fd5b5061039761034936600461570b565b6000908152600a602052604090208054600182015460028301546003840154600485015460058601546006909601546001600160a01b03958616979486169695909316949193909260ff1690565b604080516001600160a01b039889168152968816602088015294909616938501939093526060840191909152608083015260a082015290151560c082015260e001610325565b3480156103e957600080fd5b5061023d6103f8366004615724565b61218c565b34801561040957600080fd5b5061043861041836600461578f565b600660209081526000928352604080842090915290825290205460ff1681565b6040519015158152602001610325565b34801561045457600080fd5b5061023d6104633660046157b1565b61278f565b34801561047457600080fd5b5061023d610483366004615932565b6129f0565b34801561049457600080fd5b506104386104a336600461578f565b600560209081526000928352604080842090915290825290205460ff1681565b3480156104cf57600080fd5b5061023d612f36565b3480156104e457600080fd5b506105056104f336600461570b565b60026020526000908152604090205481565b604051908152602001610325565b34801561051f57600080fd5b5061043861052e36600461570b565b6000908152600e602052604090205460ff1690565b34801561054f57600080fd5b5061023d61055e36600461562e565b612f4a565b34801561056f57600080fd5b5061023d61057e366004615a47565b61320e565b34801561058f57600080fd5b506000546001600160a01b03165b6040516001600160a01b039091168152602001610325565b3480156105c157600080fd5b506105056105d036600461570b565b60009081526008602052604090206003015490565b3480156105f157600080fd5b5061050561060036600461570b565b6000908152600d602052604090205490565b34801561061e57600080fd5b5061039761062d36600461570b565b6000908152600c602052604090208054600182015460028301546003840154600485015460058601546006909601546001600160a01b03958616979486169695909316949193909260ff1690565b34801561068757600080fd5b5061059d61069636600461570b565b6003602052600090815260409020546001600160a01b031681565b3480156106bd57600080fd5b506106fb6106cc36600461570b565b600090815260086020526040902080546001820154600483015460028401546003909401549294919390929091565b604080519586526020860194909452928401919091526060830152608082015260a001610325565b61023d610731366004615a77565b61335a565b34801561074257600080fd5b5061050561075136600461570b565b60016020526000908152604090205481565b61023d610771366004615aa9565b613887565b34801561078257600080fd5b50600f5461059d906001600160a01b031681565b3480156107a257600080fd5b5061023d6107b1366004615b62565b61453a565b3480156107c257600080fd5b506103146107d136600461570b565b6000908152600b6020526040902080546001909101549091565b3480156107f757600080fd5b5061023d610806366004615ba5565b614735565b34801561081757600080fd5b5061086c61082636600461570b565b600090815260086020819052604090912060058101546006820154928201546007830154600990930154919490929160ff8116916101009091046001600160a01b031690565b60408051968752602087019590955293850192909252606084015260ff1660808301526001600160a01b031660a082015260c001610325565b3480156108b157600080fd5b5061023d6108c0366004615c04565b6149d0565b3480156108d157600080fd5b5061023d6108e0366004615c3f565b614bb5565b3480156108f157600080fd5b5061023d614d09565b34801561090657600080fd5b5061050561091536600461570b565b614f33565b34801561092657600080fd5b5061023d61093536600461569c565b615273565b34801561094657600080fd5b506001610438565b6040516bffffffffffffffffffffffff1960608a901b1660208201526034810188905260009060540160408051601f1981840301815291815281516020928301206000818152600684528281208a825290935291205490915060ff161515600114610a005760405162461bcd60e51b815260206004820152601860248201527f496e697469616c697a652065787465726e616c206275726e000000000000000060448201526064015b60405180910390fd5b60008681526007602052604090205460ff161515600114610a335760405162461bcd60e51b81526004016109f790615c76565b6040516331a9108f60e11b8152600481018890526000906001600160a01b038b1690636352211e90602401602060405180830381865afa158015610a7b573d6000803e3d6000fd5b505050506040513d601f19601f82011682018060405250810190610a9f9190615ca1565b9050336001600160a01b03821614610d195760105460405163d986ff6d60e01b81526000916001600160a01b03169063d986ff6d90610afd908590738888888888888888888888888888888888888888903390600190600401615cbe565b602060405180830381865afa158015610b1a573d6000803e3d6000fd5b505050506040513d601f19601f82011682018060405250810190610b3e9190615ce8565b80610bd0575060105460405163d986ff6d60e01b81526001600160a01b039091169063d986ff6d90610b8f908590738888888888888888888888888888888888888888903390600290600401615cbe565b602060405180830381865afa158015610bac573d6000803e3d6000fd5b505050506040513d601f19601f82011682018060405250810190610bd09190615ce8565b9050801515600003610cd55760105460405163d986ff6d60e01b81526001600160a01b039091169063d986ff6d90610c139085908f903390600190600401615cbe565b602060405180830381865afa158015610c30573d6000803e3d6000fd5b505050506040513d601f19601f82011682018060405250810190610c549190615ce8565b80610cd2575060105460405163d986ff6d60e01b81526001600160a01b039091169063d986ff6d90610c919085908f903390600290600401615cbe565b602060405180830381865afa158015610cae573d6000803e3d6000fd5b505050506040513d601f19601f82011682018060405250810190610cd29190615ce8565b90505b600181151514610d175760405162461bcd60e51b815260206004820152600d60248201526c2737903232b632b3b0ba34b7b760991b60448201526064016109f7565b505b6000828152600460205260409020548810801590610d4857506000828152600460205260409020600101548811155b610d945760405162461bcd60e51b815260206004820152601760248201527f546f6b656e20696420646f6573206e6f74206d6174636800000000000000000060448201526064016109f7565b60008281526003602052604090819020549051632142170760e11b81526001600160a01b0383811660048301529182166024820152604481018a9052908b16906342842e0e90606401600060405180830381600087803b158015610df757600080fd5b505af1158015610e0b573d6000803e3d6000fd5b505050600088815260086020526040812054899250819089904210801590610e4457506000848152600860205260409020600101544211155b15610ee1576001915060008c82604051602001610e62929190615d3f565b604051602081830303815290604052805190602001209050859350610e9f8a8a6008600089815260200190815260200160002060040154846152ec565b610edb5760405162461bcd60e51b815260206004820152600d60248201526c34b73b30b634b210383937b7b360991b60448201526064016109f7565b50610f79565b6000848152600860205260409020600201544210801590610f1357506000848152600860205260409020600301544211155b15610f4457505060408051808201909152600881526711383ab13634b19160c11b6020820152839150600290610f79565b60405162461bcd60e51b815260206004820152600a6024820152694e6f206d696e74696e6760b01b60448201526064016109f7565b600f54604051632bd5a7f560e21b8152600481018690526000916001600160a01b03169063af569fd490602401602060405180830381865afa158015610fc3573d6000803e3d6000fd5b505050506040513d601f19601f82011682018060405250810190610fe79190615d65565b600f5460405163074dbd4360e51b8152600481018890526001600160a01b039091169063e9b7a86090602401602060405180830381865afa158015611030573d6000803e3d6000fd5b505050506040513d601f19601f820116820180604052508101906110549190615d65565b61105e9190615d94565b600f54604051633635558b60e11b8152600481018890529192506001600160a01b031690636c6aab1690602401602060405180830381865afa1580156110a8573d6000803e3d6000fd5b505050506040513d601f19601f820116820180604052508101906110cc9190615d65565b8111156110eb5760405162461bcd60e51b81526004016109f790615da7565b6110f485614f33565b6110ff906001615dca565b34101561111e5760405162461bcd60e51b81526004016109f790615de1565b600f54604051632bd5a7f560e21b8152600481018790526000916001600160a01b03169063af569fd490602401602060405180830381865afa158015611168573d6000803e3d6000fd5b505050506040513d601f19601f8201168201806040525081019061118c9190615d65565b600f5460405163074dbd4360e51b8152600481018990526001600160a01b039091169063e9b7a86090602401602060405180830381865afa1580156111d5573d6000803e3d6000fd5b505050506040513d601f19601f820116820180604052508101906111f99190615d65565b6112039190615d94565b9050600f60009054906101000a90046001600160a01b03166001600160a01b031663d3322d5382878a878e8c8b6040518863ffffffff1660e01b81526004016112529796959493929190615e30565b600060405180830381600087803b15801561126c57600080fd5b505af1158015611280573d6000803e3d6000fd5b50505060008781526001602052604090205461129e91503490615d94565b60009687526001602052604090962095909555505050505050505050505050505050565b60115460405163feb2e23360e01b8152631253e16d60e01b916001600160a01b03169063feb2e233906112fb9033908590600401615e81565b602060405180830381865afa158015611318573d6000803e3d6000fd5b505050506040513d601f19601f8201168201806040525081019061133c9190615ce8565b1515600114806113b9575060115460405163b3076d5560e01b81523360048201526001600160a01b039091169063b3076d5590602401602060405180830381865afa15801561138f573d6000803e3d6000fd5b505050506040513d601f19601f820116820180604052508101906113b39190615ce8565b15156001145b6113d55760405162461bcd60e51b81526004016109f790615ea4565b600f54604051620d374160ec1b8152600481018690526001600160a01b039091169063d374100090602401602060405180830381865afa15801561141d573d6000803e3d6000fd5b505050506040513d601f19601f820116820180604052508101906114419190615ce8565b151560011480156114bf5750600f54604051620d374160ec1b8152600481018590526001600160a01b039091169063d374100090602401602060405180830381865afa158015611495573d6000803e3d6000fd5b505050506040513d601f19601f820116820180604052508101906114b99190615ce8565b15156001145b6114f55760405162461bcd60e51b81526020600482015260076024820152664e6f206461746160c81b60448201526064016109f7565b5060009283526005602090815260408085209385529290529120805460ff1916911515919091179055565b600f54604051631732052d60e31b8152600481018990528891630e3d459160e11b916001600160a01b039091169063b990296890602401602060405180830381865afa158015611574573d6000803e3d6000fd5b505050506040513d601f19601f820116820180604052508101906115989190615ca1565b6001600160a01b0316336001600160a01b0316148061162b575060115460405163feb2e23360e01b81526001600160a01b039091169063feb2e233906115e49033908590600401615e81565b602060405180830381865afa158015611601573d6000803e3d6000fd5b505050506040513d601f19601f820116820180604052508101906116259190615ce8565b15156001145b806116a3575060115460405163b3076d5560e01b81523360048201526001600160a01b039091169063b3076d5590602401602060405180830381865afa158015611679573d6000803e3d6000fd5b505050506040513d601f19601f8201168201806040525081019061169d9190615ce8565b15156001145b6116bf5760405162461bcd60e51b81526004016109f790615ea4565b6000898152600c602052604090206006015460ff16156117145760405162461bcd60e51b815260206004820152601060248201526f105b1c9958591e48185c1c1c9bdd995960821b60448201526064016109f7565b6000898152600b60205260409020548361172e8688615d94565b6117389190615d94565b1461176f5760405162461bcd60e51b8152602060048201526007602482015266436865636b202560c81b60448201526064016109f7565b50506000968752600c602052604090962080546001600160a01b03199081166001600160a01b039788161782556001820180548216968816969096179095556002810180549095169390951692909217909255600383019190915560048201556005810191909155600601805460ff19169055565b60115460405163feb2e23360e01b81526315b39d1760e11b916001600160a01b03169063feb2e2339061181d9033908590600401615e81565b602060405180830381865afa15801561183a573d6000803e3d6000fd5b505050506040513d601f19601f8201168201806040525081019061185e9190615ce8565b1515600114806118db575060115460405163b3076d5560e01b81523360048201526001600160a01b039091169063b3076d5590602401602060405180830381865afa1580156118b1573d6000803e3d6000fd5b505050506040513d601f19601f820116820180604052508101906118d59190615ce8565b15156001145b6118f75760405162461bcd60e51b81526004016109f790615ea4565b50600f80546001600160a01b0319166001600160a01b0392909216919091179055565b60115460405163feb2e23360e01b8152632ebc24b360e01b916001600160a01b03169063feb2e233906119539033908590600401615e81565b602060405180830381865afa158015611970573d6000803e3d6000fd5b505050506040513d601f19601f820116820180604052508101906119949190615ce8565b151560011480611a11575060115460405163b3076d5560e01b81523360048201526001600160a01b039091169063b3076d5590602401602060405180830381865afa1580156119e7573d6000803e3d6000fd5b505050506040513d601f19601f82011682018060405250810190611a0b9190615ce8565b15156001145b611a2d5760405162461bcd60e51b81526004016109f790615ea4565b6000868152600a602052604090206006015460ff161515600114611a865760405162461bcd60e51b815260206004820152601060248201526f41636365707420526f79616c7469657360801b60448201526064016109f7565b600086815260016020526040902054611af25760405162461bcd60e51b815260206004820152602860248201527f436f6c6c656374696f6e2042616c616e6365206d757374206265206772617465604482015267072207468616e20360c41b60648201526084016109f7565b6000868152600960205260409020548290611b0e908590615d94565b611b189190615d94565b606414611b5c5760405162461bcd60e51b81526020600482015260126024820152714368616e67652070657263656e746167657360701b60448201526064016109f7565b6000868152600160209081526040808320805490849055600a9092528220600301549091879187918a918190819081908190606490611b9b908b615dca565b611ba59190615ec9565b6000878152600a6020526040902060040154909550606490611bc7908b615dca565b611bd19190615ec9565b6000878152600a6020526040902060050154909450606490611bf3908b615dca565b611bfd9190615ec9565b92506064611c0b8d8b615dca565b611c159190615ec9565b91506064611c238c8b615dca565b611c2d9190615ec9565b6000878152600a602052604080822054905192935090916001600160a01b039091169087908381818185875af1925050503d8060008114611c8a576040519150601f19603f3d011682016040523d82523d6000602084013e611c8f565b606091505b50506000888152600a602052604080822060010154905192935090916001600160a01b039091169087908381818185875af1925050503d8060008114611cf1576040519150601f19603f3d011682016040523d82523d6000602084013e611cf6565b606091505b50506000898152600a602052604080822060020154905192935090916001600160a01b039091169087908381818185875af1925050503d8060008114611d58576040519150601f19603f3d011682016040523d82523d6000602084013e611d5d565b606091505b5050905060008b6001600160a01b03168660405160006040518083038185875af1925050503d8060008114611dae576040519150601f19603f3d011682016040523d82523d6000602084013e611db3565b606091505b5050905060008b6001600160a01b03168660405160006040518083038185875af1925050503d8060008114611e04576040519150601f19603f3d011682016040523d82523d6000602084013e611e09565b606091505b505060008c8152600a602090815260409182902054915188151581529293508c926001600160a01b03909216917f2d7202891a3c37e787b0e46e71a9308a0bdf7ce660b5a5062d0e38f78a8cdcd6910160405180910390a360008b8152600a602090815260409182902060010154915186151581528b926001600160a01b0316917f2d7202891a3c37e787b0e46e71a9308a0bdf7ce660b5a5062d0e38f78a8cdcd6910160405180910390a360008b8152600a602090815260409182902060020154915185151581528a926001600160a01b0316917f2d7202891a3c37e787b0e46e71a9308a0bdf7ce660b5a5062d0e38f78a8cdcd6910160405180910390a3868d6001600160a01b03167fc55b7d83533754a98b8865164e487c015b5a4650f4e2c830f7911e64b4ba7e9e84604051611f47911515815260200190565b60405180910390a3858c6001600160a01b03167fc55b7d83533754a98b8865164e487c015b5a4650f4e2c830f7911e64b4ba7e9e83604051611f8d911515815260200190565b60405180910390a35050505050505050505050505050505050505050565b60115460405163feb2e23360e01b8152630e234b0960e21b916001600160a01b03169063feb2e23390611fe49033908590600401615e81565b602060405180830381865afa158015612001573d6000803e3d6000fd5b505050506040513d601f19601f820116820180604052508101906120259190615ce8565b1515600114806120a2575060115460405163b3076d5560e01b81523360048201526001600160a01b039091169063b3076d5590602401602060405180830381865afa158015612078573d6000803e3d6000fd5b505050506040513d601f19601f8201168201806040525081019061209c9190615ce8565b15156001145b6120be5760405162461bcd60e51b81526004016109f790615ea4565b816001600160a01b0316639068edac6040518163ffffffff1660e01b8152600401602060405180830381865afa1580156120fc573d6000803e3d6000fd5b505050506040513d601f19601f820116820180604052508101906121209190615ce8565b15156001146121695760405162461bcd60e51b815260206004820152601560248201527421b7b73a3930b1ba1034b9903737ba1020b236b4b760591b60448201526064016109f7565b50601180546001600160a01b0319166001600160a01b0392909216919091179055565b60115460405163feb2e23360e01b815263231b95d360e11b916001600160a01b03169063feb2e233906121c59033908590600401615e81565b602060405180830381865afa1580156121e2573d6000803e3d6000fd5b505050506040513d601f19601f820116820180604052508101906122069190615ce8565b151560011480612283575060115460405163b3076d5560e01b81523360048201526001600160a01b039091169063b3076d5590602401602060405180830381865afa158015612259573d6000803e3d6000fd5b505050506040513d601f19601f8201168201806040525081019061227d9190615ce8565b15156001145b61229f5760405162461bcd60e51b81526004016109f790615ea4565b600f54604051620d374160ec1b8152600481018590526001600160a01b039091169063d374100090602401602060405180830381865afa1580156122e7573d6000803e3d6000fd5b505050506040513d601f19601f8201168201806040525081019061230b9190615ce8565b151560011461232c5760405162461bcd60e51b81526004016109f790615eeb565b600f54604051632bd5a7f560e21b8152600481018590526000916001600160a01b03169063af569fd490602401602060405180830381865afa158015612376573d6000803e3d6000fd5b505050506040513d601f19601f8201168201806040525081019061239a9190615d65565b600f5460405163074dbd4360e51b8152600481018790526001600160a01b039091169063e9b7a86090602401602060405180830381865afa1580156123e3573d6000803e3d6000fd5b505050506040513d601f19601f820116820180604052508101906124079190615d65565b6124119190615d94565b600f54604051633635558b60e11b8152600481018790529192506001600160a01b031690636c6aab1690602401602060405180830381865afa15801561245b573d6000803e3d6000fd5b505050506040513d601f19601f8201168201806040525081019061247f9190615d65565b81111561249e5760405162461bcd60e51b81526004016109f790615da7565b600f54604051632bd5a7f560e21b8152600481018690526000916001600160a01b03169063af569fd490602401602060405180830381865afa1580156124e8573d6000803e3d6000fd5b505050506040513d601f19601f8201168201806040525081019061250c9190615d65565b600f5460405163074dbd4360e51b8152600481018890526001600160a01b039091169063e9b7a86090602401602060405180830381865afa158015612555573d6000803e3d6000fd5b505050506040513d601f19601f820116820180604052508101906125799190615d65565b6125839190615d94565b600f546040516379ae0a2960e11b81529192506001600160a01b03169063f35c1452906125bc9084908c908c908c908c90600401615f0d565b600060405180830381600087803b1580156125d657600080fd5b505af11580156125ea573d6000803e3d6000fd5b505050600086815260026020526040812054909150810361262b576000868152600860205260409020600781015490546126249190615f4b565b905061263c565b506000858152600260205260409020545b6000868152600860205260408120600701546126588342615f4b565b6126629190615ec9565b905060018110156126a55760405162461bcd60e51b815260206004820152600d60248201526c0c481b5a5b9d0bdc195c9a5bd9609a1b60448201526064016109f7565b600f54604051632bd5a7f560e21b8152600481018990526001916001600160a01b03169063af569fd490602401602060405180830381865afa1580156126ef573d6000803e3d6000fd5b505050506040513d601f19601f820116820180604052508101906127139190615d65565b61271d9190615f4b565b6000888152600860205260409020600701546127399190615dca565b6000888152600860205260409020546127529190615d94565b6000978852600260209081526040808a2092909255938852600d8452808820969096555050600e905250509020805460ff19166001179055505050565b60115460405163feb2e23360e01b8152632614e37960e11b916001600160a01b03169063feb2e233906127c89033908590600401615e81565b602060405180830381865afa1580156127e5573d6000803e3d6000fd5b505050506040513d601f19601f820116820180604052508101906128099190615ce8565b151560011480612886575060115460405163b3076d5560e01b81523360048201526001600160a01b039091169063b3076d5590602401602060405180830381865afa15801561285c573d6000803e3d6000fd5b505050506040513d601f19601f820116820180604052508101906128809190615ce8565b15156001145b6128a25760405162461bcd60e51b81526004016109f790615ea4565b6040516bffffffffffffffffffffffff1960608a901b1660208201526034810188905260009060540160408051808303601f19018152908290528051602090910120600f54620d374160ec1b8352600483018a90529092506001600160a01b03169063d374100090602401602060405180830381865afa15801561292a573d6000803e3d6000fd5b505050506040513d601f19601f8201168201806040525081019061294e9190615ce8565b15156001146129895760405162461bcd60e51b81526020600482015260076024820152664e6f206461746160c81b60448201526064016109f7565b6000818152600660209081526040808320998352988152888220805460ff1916951515959095179094559081526003835286812080546001600160a01b0319166001600160a01b039590951694909417909355506004905292909220908155600101555050565b60115460405163feb2e23360e01b8152635ac57d8b60e01b916001600160a01b03169063feb2e23390612a299033908590600401615e81565b602060405180830381865afa158015612a46573d6000803e3d6000fd5b505050506040513d601f19601f82011682018060405250810190612a6a9190615ce8565b151560011480612ae7575060115460405163b3076d5560e01b81523360048201526001600160a01b039091169063b3076d5590602401602060405180830381865afa158015612abd573d6000803e3d6000fd5b505050506040513d601f19601f82011682018060405250810190612ae19190615ce8565b15156001145b612b035760405162461bcd60e51b81526004016109f790615ea4565b600f54604051620d374160ec1b8152600481018590526001600160a01b039091169063d374100090602401602060405180830381865afa158015612b4b573d6000803e3d6000fd5b505050506040513d601f19601f82011682018060405250810190612b6f9190615ce8565b1515600114612b905760405162461bcd60e51b81526004016109f790615eeb565b6000805b8751811015612f2c576001848281518110612bb157612bb1615d05565b6020908102919091010151600f54604051632bd5a7f560e21b8152600481018990526001600160a01b039091169063af569fd490602401602060405180830381865afa158015612c05573d6000803e3d6000fd5b505050506040513d601f19601f82011682018060405250810190612c299190615d65565b600f5460405163074dbd4360e51b8152600481018a90526001600160a01b039091169063e9b7a86090602401602060405180830381865afa158015612c72573d6000803e3d6000fd5b505050506040513d601f19601f82011682018060405250810190612c969190615d65565b612ca09190615d94565b612caa9190615d94565b612cb49190615f4b565b600f54604051633635558b60e11b8152600481018890529193506001600160a01b031690636c6aab1690602401602060405180830381865afa158015612cfe573d6000803e3d6000fd5b505050506040513d601f19601f82011682018060405250810190612d229190615d65565b821115612d415760405162461bcd60e51b81526004016109f790615da7565b60005b848281518110612d5657612d56615d05565b6020026020010151811015612f1957600f54604051632bd5a7f560e21b8152600481018890526000916001600160a01b03169063af569fd490602401602060405180830381865afa158015612daf573d6000803e3d6000fd5b505050506040513d601f19601f82011682018060405250810190612dd39190615d65565b600f5460405163074dbd4360e51b8152600481018a90526001600160a01b039091169063e9b7a86090602401602060405180830381865afa158015612e1c573d6000803e3d6000fd5b505050506040513d601f19601f82011682018060405250810190612e409190615d65565b612e4a9190615d94565b600f548b519192506001600160a01b03169063f35c14529083908d9087908110612e7657612e76615d05565b60200260200101518c8781518110612e9057612e90615d05565b60200260200101518c8881518110612eaa57612eaa615d05565b60200260200101518c6040518663ffffffff1660e01b8152600401612ed3959493929190615f0d565b600060405180830381600087803b158015612eed57600080fd5b505af1158015612f01573d6000803e3d6000fd5b50505050508080612f1190615f5e565b915050612d44565b5080612f2481615f5e565b915050612b94565b5050505050505050565b612f3e615304565b612f48600061535e565b565b600f54604051631732052d60e31b8152600481018990528891637e04bcb760e01b916001600160a01b039091169063b990296890602401602060405180830381865afa158015612f9e573d6000803e3d6000fd5b505050506040513d601f19601f82011682018060405250810190612fc29190615ca1565b6001600160a01b0316336001600160a01b03161480613055575060115460405163feb2e23360e01b81526001600160a01b039091169063feb2e2339061300e9033908590600401615e81565b602060405180830381865afa15801561302b573d6000803e3d6000fd5b505050506040513d601f19601f8201168201806040525081019061304f9190615ce8565b15156001145b806130cd575060115460405163b3076d5560e01b81523360048201526001600160a01b039091169063b3076d5590602401602060405180830381865afa1580156130a3573d6000803e3d6000fd5b505050506040513d601f19601f820116820180604052508101906130c79190615ce8565b15156001145b6130e95760405162461bcd60e51b81526004016109f790615ea4565b6000898152600a602052604090206006015460ff161561313e5760405162461bcd60e51b815260206004820152601060248201526f105b1c9958591e48185c1c1c9bdd995960821b60448201526064016109f7565b600089815260096020526040902054836131588688615d94565b6131629190615d94565b146131995760405162461bcd60e51b8152602060048201526007602482015266436865636b202560c81b60448201526064016109f7565b50506000968752600a602052604090962080546001600160a01b03199081166001600160a01b039788161782556001820180548216968816969096179095556002810180549095169390951692909217909255600383019190915560048201556005810191909155600601805460ff19169055565b60115460405163feb2e23360e01b81526381c1a52b60e01b916001600160a01b03169063feb2e233906132479033908590600401615e81565b602060405180830381865afa158015613264573d6000803e3d6000fd5b505050506040513d601f19601f820116820180604052508101906132889190615ce8565b151560011480613305575060115460405163b3076d5560e01b81523360048201526001600160a01b039091169063b3076d5590602401602060405180830381865afa1580156132db573d6000803e3d6000fd5b505050506040513d601f19601f820116820180604052508101906132ff9190615ce8565b15156001145b6133215760405162461bcd60e51b81526004016109f790615ea4565b5060009182526008602052604090912060090180546001600160a01b0390921661010002610100600160a81b0319909216919091179055565b600084815260056020908152604080832085845290915290205460ff1615156001146133ba5760405162461bcd60e51b815260206004820152600f60248201526e24b734ba34b0b634bd3290313ab93760891b60448201526064016109f7565b60008281526008602052604090206002015442108015906133ec57506000828152600860205260409020600301544211155b6134255760405162461bcd60e51b815260206004820152600a6024820152694e6f206d696e74696e6760b01b60448201526064016109f7565b600f5460405163074dbd4360e51b8152600481018690526001600160a01b039091169063e9b7a86090602401602060405180830381865afa15801561346e573d6000803e3d6000fd5b505050506040513d601f19601f820116820180604052508101906134929190615d65565b831015801561350d5750600f54604051633635558b60e11b8152600481018690526001600160a01b0390911690636c6aab1690602401602060405180830381865afa1580156134e5573d6000803e3d6000fd5b505050506040513d601f19601f820116820180604052508101906135099190615d65565b8311155b61354e5760405162461bcd60e51b815260206004820152601260248201527131b7b617ba37b5b2b71034b21032b93937b960711b60448201526064016109f7565b600f54604051632bd5a7f560e21b8152600481018490526000916001600160a01b03169063af569fd490602401602060405180830381865afa158015613598573d6000803e3d6000fd5b505050506040513d601f19601f820116820180604052508101906135bc9190615d65565b600f5460405163074dbd4360e51b8152600481018690526001600160a01b039091169063e9b7a86090602401602060405180830381865afa158015613605573d6000803e3d6000fd5b505050506040513d601f19601f820116820180604052508101906136299190615d65565b6136339190615d94565b600f54604051633635558b60e11b8152600481018690529192506001600160a01b031690636c6aab1690602401602060405180830381865afa15801561367d573d6000803e3d6000fd5b505050506040513d601f19601f820116820180604052508101906136a19190615d65565b8111156136c05760405162461bcd60e51b81526004016109f790615da7565b6136c983614f33565b3410156136e85760405162461bcd60e51b81526004016109f790615de1565b600f54604051632bd5a7f560e21b8152600481018590526000916001600160a01b03169063af569fd490602401602060405180830381865afa158015613732573d6000803e3d6000fd5b505050506040513d601f19601f820116820180604052508101906137569190615d65565b600f5460405163074dbd4360e51b8152600481018790526001600160a01b039091169063e9b7a86090602401602060405180830381865afa15801561379f573d6000803e3d6000fd5b505050506040513d601f19601f820116820180604052508101906137c39190615d65565b6137cd9190615d94565b600f546040516339143a1d60e01b815260048101839052602481018990526044810188905260648101879052608481018690523360a482018190529293506001600160a01b03909116906339143a1d9060c401600060405180830381600087803b15801561383a57600080fd5b505af115801561384e573d6000803e3d6000fd5b50505060008681526001602052604090205461386c91503490615d94565b60009586526001602052604090952094909455505050505050565b60008981526007602052604090205460ff1615156001146138ba5760405162461bcd60e51b81526004016109f790615c76565b6000898152600860205260408120548a91908190899042108015906138f057506000848152600860205260409020600101544211155b15613df5576001915060006001600160a01b03871615613ca85760105460405163d986ff6d60e01b81526000916001600160a01b03169063d986ff6d90613956908b90738888888888888888888888888888888888888888903390600190600401615cbe565b602060405180830381865afa158015613973573d6000803e3d6000fd5b505050506040513d601f19601f820116820180604052508101906139979190615ce8565b80613a29575060105460405163d986ff6d60e01b81526001600160a01b039091169063d986ff6d906139e8908b90738888888888888888888888888888888888888888903390600290600401615cbe565b602060405180830381865afa158015613a05573d6000803e3d6000fd5b505050506040513d601f19601f82011682018060405250810190613a299190615ce8565b9050801515600003613b64576010546000878152600860205260409081902060090154905163d986ff6d60e01b81526001600160a01b039283169263d986ff6d92613a87928d92610100909204909116903390600190600401615cbe565b602060405180830381865afa158015613aa4573d6000803e3d6000fd5b505050506040513d601f19601f82011682018060405250810190613ac89190615ce8565b80613b6157506010546000878152600860205260409081902060090154905163d986ff6d60e01b81526001600160a01b039283169263d986ff6d92613b20928d92610100909204909116903390600290600401615cbe565b602060405180830381865afa158015613b3d573d6000803e3d6000fd5b505050506040513d601f19601f82011682018060405250810190613b619190615ce8565b90505b600181151514613ba65760405162461bcd60e51b815260206004820152600d60248201526c2737903232b632b3b0ba34b7b760991b60448201526064016109f7565b878d84604051602001613bbb93929190615f77565b60408051601f19818403018152908290528051602090910120600f5463065b6b3f60e51b83529093508f916001600160a01b039091169063cb6d67e090613c1a908a908d906004019182526001600160a01b0316602082015260400190565b602060405180830381865afa158015613c37573d6000803e3d6000fd5b505050506040513d601f19601f82011682018060405250810190613c5b9190615d65565b613c659190615d94565b8d1015613c9f5760405162461bcd60e51b81526020600482015260086024820152671053081b1a5b5a5d60c21b60448201526064016109f7565b87945050613d93565b338c83604051602001613cbd93929190615f77565b60408051808303601f19018152908290528051602090910120600f5463065b6b3f60e51b8352600483018890523360248401529092508e916001600160a01b039091169063cb6d67e090604401602060405180830381865afa158015613d27573d6000803e3d6000fd5b505050506040513d601f19601f82011682018060405250810190613d4b9190615d65565b613d559190615d94565b8c1015613d8f5760405162461bcd60e51b81526020600482015260086024820152671053081b1a5b5a5d60c21b60448201526064016109f7565b3393505b600085815260086020526040902060040154613db3908a908a90846152ec565b613def5760405162461bcd60e51b815260206004820152600d60248201526c34b73b30b634b210383937b7b360991b60448201526064016109f7565b50614024565b6000848152600860205260409020600201544210801590613e2757506000848152600860205260409020600301544211155b15610f4457600f5460405163945e549b60e01b815260048101869052600293506001600160a01b039091169063945e549b90602401602060405180830381865afa158015613e79573d6000803e3d6000fd5b505050506040513d601f19601f82011682018060405250810190613e9d9190615d65565b8c1115613ee25760405162461bcd60e51b81526020600482015260136024820152724368616e6765206e6f206f6620746f6b656e7360681b60448201526064016109f7565b600f5460405163945e549b60e01b8152600481018690526001600160a01b039091169063945e549b90602401602060405180830381865afa158015613f2b573d6000803e3d6000fd5b505050506040513d601f19601f82011682018060405250810190613f4f9190615d65565b600f5460405163e943a2c760e01b8152600481018790523360248201528e916001600160a01b03169063e943a2c790604401602060405180830381865afa158015613f9e573d6000803e3d6000fd5b505050506040513d601f19601f82011682018060405250810190613fc29190615d65565b613fcc9190615d94565b11156140005760405162461bcd60e51b815260206004820152600360248201526209ac2f60eb1b60448201526064016109f7565b5060408051808201909152600881526711383ab13634b19160c11b60208201523392505b600f54604051632bd5a7f560e21b8152600481018690526000916001918f916001600160a01b03169063af569fd490602401602060405180830381865afa158015614073573d6000803e3d6000fd5b505050506040513d601f19601f820116820180604052508101906140979190615d65565b600f5460405163074dbd4360e51b8152600481018a90526001600160a01b039091169063e9b7a86090602401602060405180830381865afa1580156140e0573d6000803e3d6000fd5b505050506040513d601f19601f820116820180604052508101906141049190615d65565b61410e9190615d94565b6141189190615d94565b6141229190615f4b565b600f54604051633635558b60e11b8152600481018890529192506001600160a01b031690636c6aab1690602401602060405180830381865afa15801561416c573d6000803e3d6000fd5b505050506040513d601f19601f820116820180604052508101906141909190615d65565b8111156141af5760405162461bcd60e51b81526004016109f790615da7565b8c6141b986614f33565b6141c39190615dca565b3410156141e25760405162461bcd60e51b81526004016109f790615de1565b60005b8d81101561436757600f54604051632bd5a7f560e21b8152600481018890526000916001600160a01b03169063af569fd490602401602060405180830381865afa158015614237573d6000803e3d6000fd5b505050506040513d601f19601f8201168201806040525081019061425b9190615d65565b600f5460405163074dbd4360e51b8152600481018a90526001600160a01b039091169063e9b7a86090602401602060405180830381865afa1580156142a4573d6000803e3d6000fd5b505050506040513d601f19601f820116820180604052508101906142c89190615d65565b6142d29190615d94565b9050600f60009054906101000a90046001600160a01b03166001600160a01b031663d3322d5382888f888d8d8c6040518863ffffffff1660e01b81526004016143219796959493929190615e30565b600060405180830381600087803b15801561433b57600080fd5b505af115801561434f573d6000803e3d6000fd5b5050505050808061435f90615f5e565b9150506141e5565b50600085815260016020526040902054614382903490615d94565b60008681526001602090815260408083209390935560089052206009015460ff1660030361452a5760008581526002602052604081205481036143e5576000868152600860205260409020600781015490546143de9190615f4b565b90506143f6565b506000858152600260205260409020545b6000868152600860205260408120600701546144128342615f4b565b61441c9190615ec9565b90506001811015801561442f57508e6001145b61446b5760405162461bcd60e51b815260206004820152600d60248201526c0c481b5a5b9d0bdc195c9a5bd9609a1b60448201526064016109f7565b600f54604051632bd5a7f560e21b8152600481018990526001916001600160a01b03169063af569fd490602401602060405180830381865afa1580156144b5573d6000803e3d6000fd5b505050506040513d601f19601f820116820180604052508101906144d99190615d65565b6144e39190615f4b565b6000888152600860205260409020600701546144ff9190615dca565b6000888152600860205260409020546145189190615d94565b60008881526002602052604090205550505b5050505050505050505050505050565b601154604051630cab15dd60e31b81523360048201526024810188905287916305c2fcbd60e51b916001600160a01b0390911690636558aee890604401602060405180830381865afa158015614594573d6000803e3d6000fd5b505050506040513d601f19601f820116820180604052508101906145b89190615ce8565b15156001148061463c575060115460405163feb2e23360e01b81526001600160a01b039091169063feb2e233906145f59033908590600401615e81565b602060405180830381865afa158015614612573d6000803e3d6000fd5b505050506040513d601f19601f820116820180604052508101906146369190615ce8565b15156001145b806146b4575060115460405163b3076d5560e01b81523360048201526001600160a01b039091169063b3076d5590602401602060405180830381865afa15801561468a573d6000803e3d6000fd5b505050506040513d601f19601f820116820180604052508101906146ae9190615ce8565b15156001145b6146d05760405162461bcd60e51b81526004016109f790615ea4565b60008881526007602052604090205460ff1615156001146147035760405162461bcd60e51b81526004016109f790615c76565b505060009586526008602052604090952093845560018401929092556004830193909355600282019290925560030155565b601154604051630cab15dd60e31b815233600482015260248101899052889163d2f4302f60e01b916001600160a01b0390911690636558aee890604401602060405180830381865afa15801561478f573d6000803e3d6000fd5b505050506040513d601f19601f820116820180604052508101906147b39190615ce8565b151560011480614837575060115460405163feb2e23360e01b81526001600160a01b039091169063feb2e233906147f09033908590600401615e81565b602060405180830381865afa15801561480d573d6000803e3d6000fd5b505050506040513d601f19601f820116820180604052508101906148319190615ce8565b15156001145b806148af575060115460405163b3076d5560e01b81523360048201526001600160a01b039091169063b3076d5590602401602060405180830381865afa158015614885573d6000803e3d6000fd5b505050506040513d601f19601f820116820180604052508101906148a99190615ce8565b15156001145b6148cb5760405162461bcd60e51b81526004016109f790615ea4565b600f54604051620d374160ec1b8152600481018b90526001600160a01b039091169063d374100090602401602060405180830381865afa158015614913573d6000803e3d6000fd5b505050506040513d601f19601f820116820180604052508101906149379190615ce8565b15156001146149585760405162461bcd60e51b81526004016109f790615eeb565b50506000968752600860208181526040808a206005810199909955600689019790975590870194909455600780870193909355600990950180546001600160a01b03909616610100026001600160a81b031990961660ff9092169190911794909417909355919091529020805460ff19166001179055565b60115460405163feb2e23360e01b81526335062ebb60e21b916001600160a01b03169063feb2e23390614a099033908590600401615e81565b602060405180830381865afa158015614a26573d6000803e3d6000fd5b505050506040513d601f19601f82011682018060405250810190614a4a9190615ce8565b151560011480614ac7575060115460405163b3076d5560e01b81523360048201526001600160a01b039091169063b3076d5590602401602060405180830381865afa158015614a9d573d6000803e3d6000fd5b505050506040513d601f19601f82011682018060405250810190614ac19190615ce8565b15156001145b614ae35760405162461bcd60e51b81526004016109f790615ea4565b614aed8486615d94565b606414614b355760405162461bcd60e51b815260206004820152601660248201527573706c697473206e65656420746f206265203130302560501b60448201526064016109f7565b614b3f8284615d94565b606414614b875760405162461bcd60e51b815260206004820152601660248201527573706c697473206e65656420746f206265203130302560501b60448201526064016109f7565b506000948552600960209081526040808720958655600195860194909455600b905291909320928355910155565b60115460405163feb2e23360e01b815263d6516f4760e01b916001600160a01b03169063feb2e23390614bee9033908590600401615e81565b602060405180830381865afa158015614c0b573d6000803e3d6000fd5b505050506040513d601f19601f82011682018060405250810190614c2f9190615ce8565b151560011480614cac575060115460405163b3076d5560e01b81523360048201526001600160a01b039091169063b3076d5590602401602060405180830381865afa158015614c82573d6000803e3d6000fd5b505050506040513d601f19601f82011682018060405250810190614ca69190615ce8565b15156001145b614cc85760405162461bcd60e51b81526004016109f790615ea4565b506000928352600a602090815260408085206006908101805495151560ff19968716179055600c909252909320909201805492151592909116919091179055565b60115460405163feb2e23360e01b81526336cb886f60e21b916001600160a01b03169063feb2e23390614d429033908590600401615e81565b602060405180830381865afa158015614d5f573d6000803e3d6000fd5b505050506040513d601f19601f82011682018060405250810190614d839190615ce8565b151560011480614e00575060115460405163b3076d5560e01b81523360048201526001600160a01b039091169063b3076d5590602401602060405180830381865afa158015614dd6573d6000803e3d6000fd5b505050506040513d601f19601f82011682018060405250810190614dfa9190615ce8565b15156001145b614e1c5760405162461bcd60e51b81526004016109f790615ea4565b60115460408051638da5cb5b60e01b8152905147926000926001600160a01b0390911691638da5cb5b916004808201926020929091908290030181865afa158015614e6b573d6000803e3d6000fd5b505050506040513d601f19601f82011682018060405250810190614e8f9190615ca1565b90506000816001600160a01b03168360405160006040518083038185875af1925050503d8060008114614ede576040519150601f19603f3d011682016040523d82523d6000602084013e614ee3565b606091505b5050905082336001600160a01b03167f4a48cb98c5be023b78a0b3ec94107a01a0397b2e389d4b5f252aef518e633ec383604051614f25911515815260200190565b60405180910390a350505050565b600081815260086020526040812060090154819060ff1660030361503f57600083815260086020819052604090912001541561502857600f54604051632bd5a7f560e21b8152600481018590526001600160a01b039091169063af569fd490602401602060405180830381865afa158015614fb2573d6000803e3d6000fd5b505050506040513d601f19601f82011682018060405250810190614fd69190615d65565b600084815260086020819052604090912090810154600590910154614ffb9190615ec9565b6150059190615dca565b6000848152600860205260409020600501546150219190615d94565b9392505050565b505060009081526008602052604090206005015490565b60008381526008602052604090206009015460ff166002148015615070575060008381526008602052604090205442115b801561508c575060008381526008602052604090206003015442105b15615028576000838152600860205260409020600781015490546150b09042615f4b565b6150ba9190615ec9565b6000848152600860208190526040822001549192509081908103615195576150e3836001615d94565b6000868152600860205260409020600501546150ff9190615ec9565b60008681526008602052604090208054600790910154919350906151239085615dca565b61512d9042615f4b565b6151379190615f4b565b600086815260086020526040902060070154615154856002615d94565b6000888152600860205260409020600501546151709190615ec9565b61517a9085615f4b565b6151849190615ec9565b61518e9190615dca565b9050615225565b600085815260086020819052604090912090810154600682015460059092015485926151c091615f4b565b6151ca9190615ec9565b111561521057600085815260086020819052604090912001546151ed9084615dca565b6000868152600860205260409020600501546152099190615f4b565b9150615225565b60008581526008602052604090206006015491505b6000858152600860205260409020600601546152418284615f4b565b111561525a576152518183615f4b565b95945050505050565b5050506000918252506008602052604090206006015490565b61527b615304565b6001600160a01b0381166152e05760405162461bcd60e51b815260206004820152602660248201527f4f776e61626c653a206e6577206f776e657220697320746865207a65726f206160448201526564647265737360d01b60648201526084016109f7565b6152e98161535e565b50565b6000826152fa8686856153ae565b1495945050505050565b6000546001600160a01b03163314612f485760405162461bcd60e51b815260206004820181905260248201527f4f776e61626c653a2063616c6c6572206973206e6f7420746865206f776e657260448201526064016109f7565b600080546001600160a01b038381166001600160a01b0319831681178455604051919092169283917f8be0079c531659141344cd1fd0a4f28419497f9722a3daafe3b4186f6b6457e09190a35050565b600081815b848110156153f1576153dd828787848181106153d1576153d1615d05565b905060200201356153fa565b9150806153e981615f5e565b9150506153b3565b50949350505050565b6000818310615416576000828152602084905260409020615425565b60008381526020839052604090205b90505b92915050565b6001600160a01b03811681146152e957600080fd5b634e487b7160e01b600052604160045260246000fd5b604051601f8201601f1916810167ffffffffffffffff8111828210171561548257615482615443565b604052919050565b600082601f83011261549b57600080fd5b813567ffffffffffffffff8111156154b5576154b5615443565b6154c8601f8201601f1916602001615459565b8181528460208386010111156154dd57600080fd5b816020850160208301376000918101602001919091529392505050565b60008083601f84011261550c57600080fd5b50813567ffffffffffffffff81111561552457600080fd5b6020830191508360208260051b850101111561553f57600080fd5b9250929050565b60008060008060008060008060e0898b03121561556257600080fd5b883561556d8161542e565b9750602089013596506040890135955060608901359450608089013567ffffffffffffffff8082111561559f57600080fd5b6155ab8c838d0161548a565b955060a08b01359150808211156155c157600080fd5b506155ce8b828c016154fa565b999c989b50969995989497949560c00135949350505050565b80151581146152e957600080fd5b60008060006060848603121561560a57600080fd5b83359250602084013591506040840135615623816155e7565b809150509250925092565b600080600080600080600060e0888a03121561564957600080fd5b87359650602088013561565b8161542e565b9550604088013561566b8161542e565b9450606088013561567b8161542e565b9699959850939660808101359560a0820135955060c0909101359350915050565b6000602082840312156156ae57600080fd5b81356150218161542e565b600080600080600060a086880312156156d157600080fd5b8535945060208601356156e38161542e565b935060408601356156f38161542e565b94979396509394606081013594506080013592915050565b60006020828403121561571d57600080fd5b5035919050565b600080600080600060a0868803121561573c57600080fd5b85356157478161542e565b9450602086013567ffffffffffffffff81111561576357600080fd5b61576f8882890161548a565b959895975050505060408401359360608101359360809091013592509050565b600080604083850312156157a257600080fd5b50508035926020909101359150565b600080600080600080600060e0888a0312156157cc57600080fd5b87356157d78161542e565b96506020880135955060408801359450606088013593506080880135925060a08801356158038161542e565b915060c0880135615813816155e7565b8091505092959891949750929550565b600067ffffffffffffffff82111561583d5761583d615443565b5060051b60200190565b600082601f83011261585857600080fd5b8135602061586d61586883615823565b615459565b82815260059290921b8401810191818101908684111561588c57600080fd5b8286015b848110156158cc57803567ffffffffffffffff8111156158b05760008081fd5b6158be8986838b010161548a565b845250918301918301615890565b509695505050505050565b600082601f8301126158e857600080fd5b813560206158f861586883615823565b82815260059290921b8401810191818101908684111561591757600080fd5b8286015b848110156158cc578035835291830191830161591b565b600080600080600060a0868803121561594a57600080fd5b853567ffffffffffffffff8082111561596257600080fd5b818801915088601f83011261597657600080fd5b8135602061598661586883615823565b82815260059290921b8401810191818101908c8411156159a557600080fd5b948201945b838610156159cc5785356159bd8161542e565b825294820194908201906159aa565b995050890135925050808211156159e257600080fd5b6159ee89838a01615847565b95506040880135915080821115615a0457600080fd5b615a1089838a016158d7565b9450606088013593506080880135915080821115615a2d57600080fd5b50615a3a888289016158d7565b9150509295509295909350565b60008060408385031215615a5a57600080fd5b823591506020830135615a6c8161542e565b809150509250929050565b60008060008060808587031215615a8d57600080fd5b5050823594602084013594506040840135936060013592509050565b60008060008060008060008060006101008a8c031215615ac857600080fd5b8935985060208a0135975060408a0135965060608a013567ffffffffffffffff80821115615af557600080fd5b615b018d838e0161548a565b975060808c01359150615b138261542e565b90955060a08b01359080821115615b2957600080fd5b50615b368c828d016154fa565b90955093505060c08a0135615b4a8161542e565b8092505060e08a013590509295985092959850929598565b60008060008060008060c08789031215615b7b57600080fd5b505084359660208601359650604086013595606081013595506080810135945060a0013592509050565b600080600080600080600060e0888a031215615bc057600080fd5b873596506020880135955060408801359450606088013593506080880135925060a088013560ff81168114615bf457600080fd5b915060c08801356158138161542e565b600080600080600060a08688031215615c1c57600080fd5b505083359560208501359550604085013594606081013594506080013592509050565b600080600060608486031215615c5457600080fd5b833592506020840135615c66816155e7565b91506040840135615623816155e7565b602080825260119082015270536574204d696e74696e6720436f73747360781b604082015260600190565b600060208284031215615cb357600080fd5b81516150218161542e565b6001600160a01b039485168152928416602084015292166040820152606081019190915260800190565b600060208284031215615cfa57600080fd5b8151615021816155e7565b634e487b7160e01b600052603260045260246000fd5b60005b83811015615d36578181015183820152602001615d1e565b50506000910152565b82815260008251615d57816020850160208701615d1b565b919091016020019392505050565b600060208284031215615d7757600080fd5b5051919050565b634e487b7160e01b600052601160045260246000fd5b8082018082111561542857615428615d7e565b6020808252600990820152684e6f20737570706c7960b81b604082015260600190565b808202811582820484141761542857615428615d7e565b6020808252600990820152680aee4dedcce408aa8960bb1b604082015260600190565b60008151808452615e1c816020860160208601615d1b565b601f01601f19169290920160200192915050565b8781526001600160a01b0387811660208301528616604082015260e060608201819052600090615e6290830187615e04565b60808301959095525060a081019290925260c090910152949350505050565b6001600160a01b039290921682526001600160e01b031916602082015260400190565b6020808252600b908201526a139bdd08185b1b1bddd95960aa1b604082015260600190565b600082615ee657634e487b7160e01b600052601260045260246000fd5b500490565b602080825260089082015267416464206461746160c01b604082015260600190565b8581526001600160a01b038516602082015260a060408201819052600090615f3790830186615e04565b606083019490945250608001529392505050565b8181038181111561542857615428615d7e565b600060018201615f7057615f70615d7e565b5060010190565b6bffffffffffffffffffffffff198460601b16815282601482015260008251615fa7816034850160208701615d1b565b9190910160340194935050505056fea264697066735822122052ebf65912ecffcc97045e6c7c490428cdc2d2a66635c0b647293538aad3feb564736f6c63430008130033",
    "linkReferences": {}
  },
  "methodIdentifiers": {
    "acceptAddressesAndPercentages(uint256,bool,bool)": "d6516f47",
    "airDropTokens(address[],string[],uint256[],uint256,uint256[])": "5ac57d8b",
    "burnExternalToMintCollections(bytes32,uint256)": "4aa7df07",
    "burnOrSwapAddress(bytes32)": "95190946",
    "burnOrSwapExternalToMint(address,uint256,uint256,uint256,string,bytes32[],uint256)": "03752850",
    "burnToMint(uint256,uint256,uint256,uint256)": "a048901c",
    "burnToMintCollections(uint256,uint256)": "669ab82f",
    "collectionTotalAmount(uint256)": "a3167156",
    "emergencyWithdraw()": "db2e21bc",
    "gencore()": "b5bc955f",
    "getAuctionEndTime(uint256)": "930e79f1",
    "getAuctionStatus(uint256)": "7765c52c",
    "getEndTime(uint256)": "9067b677",
    "getPrice(uint256)": "e7572230",
    "initializeBurn(uint256,uint256,bool)": "1253e16d",
    "initializeExternalBurnOrSwap(address,uint256,uint256,uint256,uint256,address,bool)": "4c29c6f2",
    "isMinterContract()": "fb9422ff",
    "lastMintDate(uint256)": "71b084f3",
    "mint(uint256,uint256,uint256,string,address,bytes32[],address,uint256)": "b047168f",
    "mintAndAuction(address,string,uint256,uint256,uint256)": "46372ba6",
    "owner()": "8da5cb5b",
    "payArtist(uint256,address,address,uint256,uint256)": "2ebc24b3",
    "proposePrimaryAddressesAndPercentages(uint256,address,address,address,uint256,uint256,uint256)": "7e04bcb7",
    "proposeSecondaryAddressesAndPercentages(uint256,address,address,address,uint256,uint256,uint256)": "1c7a8b22",
    "renounceOwnership()": "715018a6",
    "retrieveCollectionMintingDetails(uint256)": "d3be0bc1",
    "retrieveCollectionPhases(uint256)": "9e424a93",
    "retrievePrimaryAddressesAndPercentages(uint256)": "3d205e08",
    "retrievePrimarySplits(uint256)": "3b964798",
    "retrieveSecondaryAddressesAndPercentages(uint256)": "94e76daf",
    "retrieveSecondarySplits(uint256)": "bf40b89a",
    "setCollectionCosts(uint256,uint256,uint256,uint256,uint256,uint8,address)": "d2f4302f",
    "setCollectionPhases(uint256,uint256,uint256,uint256,uint256,bytes32)": "b85f97a0",
    "setPrimaryAndSecondarySplits(uint256,uint256,uint256,uint256,uint256)": "d418baec",
    "transferOwnership(address)": "f2fde38b",
    "updateAdminContract(address)": "388d2c24",
    "updateCoreContract(address)": "2b673a2e",
    "updateDelegationCollection(uint256,address)": "81c1a52b"
  },
  "id": 25
}