{
  "abi": [
    {
      "inputs": [],
      "name": "randomNumber",
      "outputs": [
        {
          "internalType": "uint256",
          "name": "",
          "type": "uint256"
        }
      ],
      "stateMutability": "view",
      "type": "function"
    },
    {
      "inputs": [],
      "name": "randomWord",
      "outputs": [
        {
          "internalType": "string",
          "name": "",
          "type": "string"
        }
      ],
      "stateMutability": "view",
      "type": "function"
    },
    {
      "inputs": [
        {
          "internalType": "uint256",
          "name": "id",
          "type": "uint256"
        }
      ],
      "name": "returnIndex",
      "outputs": [
        {
          "internalType": "string",
          "name": "",
          "type": "string"
        }
      ],
      "stateMutability": "view",
      "type": "function"
    }
  ],
  "bytecode": {
    "object": "0x608060405234801561001057600080fd5b5061118b806100206000396000f3fe608060405234801561001057600080fd5b50600436106100415760003560e01c80632870f0f614610046578063ccbac9f51461006f578063f568418314610085575b600080fd5b610059610054366004611095565b61008d565b60405161006691906110ae565b60405180910390f35b61007761009e565b604051908152602001610066565b6100596100ee565b60606100988261014f565b92915050565b6000806103e8446100b06001436110fc565b6040805160208101939093529040908201524260608201526080016040516020818303038152906040528051906020012060001c610098919061111d565b606060006064446101006001436110fc565b6040805160208101939093529040908201524260608201526080016040516020818303038152906040528051906020012060001c61013e919061111d565b90506101498161014f565b91505090565b6060600060405180610c800160405280604051806040016040528060048152602001634163616960e01b81525081526020016040518060400160405280600581526020016441636b656560d81b8152508152602001604051806040016040528060058152602001644170706c6560d81b815250815260200160405180604001604052806007815260200166105c1c9a58dbdd60ca1b81525081526020016040518060400160405280600781526020016641766f6361646f60c81b81525081526020016040518060400160405280600681526020016542616261636f60d01b81525081526020016040518060400160405280600681526020016542616e616e6160d01b81525081526020016040518060400160405280600881526020016742696c626572727960c01b81525081526020016040518060400160405280600a815260200169426c61636b626572727960b01b81525081526020016040518060400160405280600c81526020016b109b1858dad8dd5c9c985b9d60a21b81525081526020016040518060400160405280600c81526020016b426c6f6f64204f72616e676560a01b815250815260200160405180604001604052806009815260200168426c7565626572727960b81b81525081526020016040518060400160405280600b81526020016a426f7973656e626572727960a81b81525081526020016040518060400160405280600a815260200169109c995859199c9d5a5d60b21b81525081526020016040518060400160405280600c81526020016b42727573682043686572727960a01b81525081526020016040518060400160405280600c81526020016b21b0b730b93c9026b2b637b760a11b81525081526020016040518060400160405280600a81526020016943616e74616c6f75706560b01b815250815260200160405180604001604052806009815260200168436172616d626f6c6160b81b81525081526020016040518060400160405280600c81526020016b21b0b9b0b1309026b2b637b760a11b81525081526020016040518060400160405280600981526020016843686572696d6f796160b81b81525081526020016040518060400160405280600681526020016543686572727960d01b81525081526020016040518060400160405280600a815260200169436c656d656e74696e6560b01b81525081526020016040518060400160405280600a815260200169436c6f7564626572727960b01b81525081526020016040518060400160405280600781526020016610dbd8dbdb9d5d60ca1b8152508152602001604051806040016040528060098152602001684372616e626572727960b81b81525081526020016040518060400160405280600e81526020016d21b932b739b430bb9026b2b637b760911b81525081526020016040518060400160405280600881526020016721bab1bab6b132b960c11b81525081526020016040518060400160405280600781526020016610dd5c9c985b9d60ca1b81525081526020016040518060400160405280600b81526020016a437572727920426572727960a81b81525081526020016040518060400160405280600d81526020016c43757374617264204170706c6560981b81525081526020016040518060400160405280600b81526020016a44616d736f6e20506c756d60a81b8152508152602001604051806040016040528060048152602001634461746560e01b81525081526020016040518060400160405280600b81526020016a111c9859dbdb999c9d5a5d60aa1b815250815260200160405180604001604052806006815260200165223ab934b0b760d11b8152508152602001604051806040016040528060088152602001671159d9dc1b185b9d60c21b81525081526020016040518060400160405280600a815260200169456c646572626572727960b01b8152508152602001604051806040016040528060068152602001654665696a6f6160d01b81525081526020016040518060400160405280600b81526020016a46696e676572204c696d6560a81b81525081526020016040518060400160405280600381526020016246696760e81b81525081526020016040518060400160405280600a815260200169476f6f7365626572727960b01b81525081526020016040518060400160405280600681526020016547726170657360d01b81525081526020016040518060400160405280600a81526020016911dc985c19599c9d5a5d60b21b815250815260200160405180604001604052806005815260200164477561766160d81b81525081526020016040518060400160405280600e81526020016d2437b732bcb232bb9026b2b637b760911b81525081526020016040518060400160405280600b81526020016a4875636b6c65626572727960a81b8152508152602001604051806040016040528060128152602001714974616c69616e205072756e6520506c756d60701b815250815260200160405180604001604052806009815260200168129858dad99c9d5a5d60ba1b8152508152602001604051806040016040528060098152602001684a61766120506c756d60b81b8152508152602001604051806040016040528060068152602001654a756a75626560d01b81525081526020016040518060400160405280600b81526020016a4b6166666972204c696d6560a81b8152508152602001604051806040016040528060048152602001634b69776960e01b81525081526020016040518060400160405280600781526020016612dd5b5c5d585d60ca1b8152508152602001604051806040016040528060058152602001642632b6b7b760d91b8152508152602001604051806040016040528060048152602001634c696d6560e01b81525081526020016040518060400160405280600a8152602001694c6f67616e626572727960b01b8152508152602001604051806040016040528060068152602001652637b733b0b760d11b815250815260200160405180604001604052806006815260200165131bdc5d585d60d21b8152508152602001604051806040016040528060068152602001654c796368656560d01b8152508152602001604051806040016040528060068152602001654d616d6d656560d01b81525081526020016040518060400160405280600881526020016726b0b73230b934b760c11b8152508152602001604051806040016040528060058152602001644d616e676f60d81b81525081526020016040518060400160405280600a81526020016926b0b733b7b9ba32b2b760b11b8152508152602001604051806040016040528060088152602001674d756c626572727960c01b8152508152602001604051806040016040528060058152602001644e616e636560d81b8152508152602001604051806040016040528060098152602001684e6563746172696e6560b81b8152508152602001604051806040016040528060048152602001634e6f6e6960e01b8152508152602001604051806040016040528060058152602001644f6c69766560d81b8152508152602001604051806040016040528060068152602001654f72616e676560d01b81525081526020016040518060400160405280600681526020016550617061796160d01b81525081526020016040518060400160405280600d81526020016c14185cdcda5bdb88199c9d5a5d609a1b81525081526020016040518060400160405280600681526020016550617770617760d01b8152508152602001604051806040016040528060058152602001640a0cac2c6d60db1b8152508152602001604051806040016040528060048152602001632832b0b960e11b8152508152602001604051806040016040528060098152602001682832b939b4b6b6b7b760b91b81525081526020016040518060400160405280600981526020016850696e656170706c6560b81b815250815260200160405180604001604052806008815260200167283630b73a30b4b760c11b815250815260200160405180604001604052806004815260200163506c756d60e01b81525081526020016040518060400160405280600b81526020016a506f6d656772616e61746560a81b815250815260200160405180604001604052806006815260200165506f6d656c6f60d01b81525081526020016040518060400160405280600c81526020016b283934b1b5b63c902832b0b960a11b815250815260200160405180604001604052806007815260200166283ab630b9b0b760c91b8152508152602001604051806040016040528060058152602001645175696e6560d81b8152508152602001604051806040016040528060088152602001672930b6b13aba30b760c11b81525081526020016040518060400160405280600b81526020016a526173706265727269657360a81b81525081526020016040518060400160405280600781526020016629343ab130b93160c91b81525081526020016040518060400160405280600a815260200169526f7365204170706c6560b01b8152508152602001604051806040016040528060098152602001685361706f64696c6c6160b81b81525081526020016040518060400160405280600781526020016653617473756d6160c81b8152508152602001604051806040016040528060078152602001660536f7572736f760cc1b81525081526020016040518060400160405280600a81526020016953746172204170706c6560b01b81525081526020016040518060400160405280600a81526020016914dd185c88119c9d5a5d60b21b81525081526020016040518060400160405280600a8152602001695374726177626572727960b01b81525081526020016040518060400160405280600b81526020016a5375676172204170706c6560a81b81525081526020016040518060400160405280600981526020016854616d6172696c6c6f60b81b81525081526020016040518060400160405280600881526020016715185b585c9a5b9960c21b81525081526020016040518060400160405280600781526020016654616e67656c6f60c81b81525081526020016040518060400160405280600981526020016854616e676572696e6560b81b81525081526020016040518060400160405280600481526020016355676c6960e01b81525081526020016040518060400160405280600c81526020016b56656c766574204170706c6560a01b81525081526020016040518060400160405280600a8152602001692bb0ba32b936b2b637b760b11b8152508152509050826000036110795780836064811061106d5761106d61113f565b60200201519392505050565b806110856001856110fc565b6064811061106d5761106d61113f565b6000602082840312156110a757600080fd5b5035919050565b600060208083528351808285015260005b818110156110db578581018301518582016040015282016110bf565b506000604082860101526040601f19601f8301168501019250505092915050565b8181038181111561009857634e487b7160e01b600052601160045260246000fd5b60008261113a57634e487b7160e01b600052601260045260246000fd5b500690565b634e487b7160e01b600052603260045260246000fdfea2646970667358221220507fb5dee1b38bc12713161bd674c583cb41f451efe6f83dbefb7ae70d4325e064736f6c63430008150033",
    "linkReferences": {}
  },
  "methodIdentifiers": {
    "randomNumber()": "ccbac9f5",
    "randomWord()": "f5684183",
    "returnIndex(uint256)": "2870f0f6"
  },
  "id": 27
}