{
  "abi": [
    {
      "inputs": [
        {
          "internalType": "contract MinterContract",
          "name": "_auctionDemo",
          "type": "address"
        },
        {
          "internalType": "contract NextGenCore",
          "name": "_nextGenCore",
          "type": "address"
        }
      ],
      "stateMutability": "nonpayable",
      "type": "constructor"
    },
    {
      "inputs": [],
      "name": "attack",
      "outputs": [
        {
          "internalType": "bool",
          "name": "",
          "type": "bool"
        }
      ],
      "stateMutability": "view",
      "type": "function"
    },
    {
      "inputs": [],
      "name": "attacker",
      "outputs": [
        {
          "internalType": "address",
          "name": "",
          "type": "address"
        }
      ],
      "stateMutability": "view",
      "type": "function"
    },
    {
      "inputs": [
        {
          "internalType": "bool",
          "name": "_attack",
          "type": "bool"
        },
        {
          "internalType": "uint8",
          "name": "_numOfAttacks",
          "type": "uint8"
        }
      ],
      "name": "init",
      "outputs": [],
      "stateMutability": "nonpayable",
      "type": "function"
    },
    {
      "inputs": [],
      "name": "minterContract",
      "outputs": [
        {
          "internalType": "contract MinterContract",
          "name": "",
          "type": "address"
        }
      ],
      "stateMutability": "view",
      "type": "function"
    },
    {
      "inputs": [],
      "name": "nextGenCore",
      "outputs": [
        {
          "internalType": "contract NextGenCore",
          "name": "",
          "type": "address"
        }
      ],
      "stateMutability": "view",
      "type": "function"
    },
    {
      "inputs": [],
      "name": "numOfAttacks",
      "outputs": [
        {
          "internalType": "uint8",
          "name": "",
          "type": "uint8"
        }
      ],
      "stateMutability": "view",
      "type": "function"
    },
    {
      "inputs": [
        {
          "internalType": "address",
          "name": "",
          "type": "address"
        },
        {
          "internalType": "address",
          "name": "",
          "type": "address"
        },
        {
          "internalType": "uint256",
          "name": "",
          "type": "uint256"
        },
        {
          "internalType": "bytes",
          "name": "",
          "type": "bytes"
        }
      ],
      "name": "onERC721Received",
      "outputs": [
        {
          "internalType": "bytes4",
          "name": "",
          "type": "bytes4"
        }
      ],
      "stateMutability": "nonpayable",
      "type": "function"
    },
    {
      "inputs": [],
      "name": "tokenId",
      "outputs": [
        {
          "internalType": "uint256",
          "name": "",
          "type": "uint256"
        }
      ],
      "stateMutability": "view",
      "type": "function"
    },
    {
      "inputs": [],
      "name": "withdraw",
      "outputs": [],
      "stateMutability": "nonpayable",
      "type": "function"
    }
  ],
  "bytecode": {
    "object": "0x608060405234801561001057600080fd5b506040516106ad3803806106ad83398101604081905261002f91610088565b600180546001600160a01b039384166001600160a01b03199182161790915560028054929093169181169190911790915560008054909116331790556100c2565b6001600160a01b038116811461008557600080fd5b50565b6000806040838503121561009b57600080fd5b82516100a681610070565b60208401519092506100b781610070565b809150509250929050565b6105dc806100d16000396000f3fe608060405234801561001057600080fd5b50600436106100935760003560e01c80636563b999116100665780636563b999146101155780637c4e2f221461013957806392f002331461014c5780639e5faafc1461015f578063fccc17bf1461017c57600080fd5b8063150b7a021461009857806317d70f7c146100c95780633ccfd60b146100e057806348eb76ee146100ea575b600080fd5b6100ab6100a636600461045b565b61018f565b6040516001600160e01b031990911681526020015b60405180910390f35b6100d260035481565b6040519081526020016100c0565b6100e861027a565b005b6000546100fd906001600160a01b031681565b6040516001600160a01b0390911681526020016100c0565b60045461012790610100900460ff1681565b60405160ff90911681526020016100c0565b6002546100fd906001600160a01b031681565b6001546100fd906001600160a01b031681565b60045461016c9060ff1681565b60405190151581526020016100c0565b6100e861018a366004610537565b610359565b60045460009060ff1680156101ad5750600454610100900460ff1615155b156102695760048054610100900460ff169060016101ca8361057b565b825460ff9182166101009390930a92830291909202199091161790555060018054604051632812240760e21b8152600260048201526404a817c80160248201526044810192909252600060648301526001600160a01b03169063a048901c90670de0b6b3a7640000906084016000604051808303818588803b15801561024f57600080fd5b505af1158015610263573d6000803e3d6000fd5b50505050505b50630a85bd0160e11b949350505050565b6000546001600160a01b031633146102c55760405162461bcd60e51b8152602060048201526009602482015268536f727279202d5f2d60b81b60448201526064015b60405180910390fd5b600080546040516001600160a01b039091169047908381818185875af1925050503d8060008114610312576040519150601f19603f3d011682016040523d82523d6000602084013e610317565b606091505b50509050806103565760405162461bcd60e51b815260206004820152600b60248201526a10d85b1b0819985a5b195960aa1b60448201526064016102bc565b50565b6000546001600160a01b0316331461039f5760405162461bcd60e51b8152602060048201526009602482015268536f727279202d5f2d60b81b60448201526064016102bc565b6004805461ffff191683151561ff0019161761010060ff84160217815560025460005460405163a22cb46560e01b81526001600160a01b039182169381019390935260016024840152169063a22cb46590604401600060405180830381600087803b15801561040d57600080fd5b505af1158015610421573d6000803e3d6000fd5b505050505050565b80356001600160a01b038116811461044057600080fd5b919050565b634e487b7160e01b600052604160045260246000fd5b6000806000806080858703121561047157600080fd5b61047a85610429565b935061048860208601610429565b925060408501359150606085013567ffffffffffffffff808211156104ac57600080fd5b818701915087601f8301126104c057600080fd5b8135818111156104d2576104d2610445565b604051601f8201601f19908116603f011681019083821181831017156104fa576104fa610445565b816040528281528a602084870101111561051357600080fd5b82602086016020830137600060208483010152809550505050505092959194509250565b6000806040838503121561054a57600080fd5b8235801515811461055a57600080fd5b9150602083013560ff8116811461057057600080fd5b809150509250929050565b600060ff82168061059c57634e487b7160e01b600052601160045260246000fd5b600019019291505056fea2646970667358221220ecb5bff4aa3c2aa595beaf56dfb8ed8bf77f2983270ffa593e290ba25cce8eee64736f6c63430008130033",
    "linkReferences": {}
  },
  "methodIdentifiers": {
    "attack()": "9e5faafc",
    "attacker()": "48eb76ee",
    "init(bool,uint8)": "fccc17bf",
    "minterContract()": "92f00233",
    "nextGenCore()": "7c4e2f22",
    "numOfAttacks()": "6563b999",
    "onERC721Received(address,address,uint256,bytes)": "150b7a02",
    "tokenId()": "17d70f7c",
    "withdraw()": "3ccfd60b"
  },
  "id": 50
}