{
  "abi": [
    {
      "inputs": [
        {
          "internalType": "address",
          "name": "_randoms",
          "type": "address"
        },
        {
          "internalType": "address",
          "name": "_admin",
          "type": "address"
        },
        {
          "internalType": "address",
          "name": "_gencore",
          "type": "address"
        }
      ],
      "stateMutability": "nonpayable",
      "type": "constructor"
    },
    {
      "inputs": [
        {
          "internalType": "uint256",
          "name": "_collectionID",
          "type": "uint256"
        },
        {
          "internalType": "uint256",
          "name": "_mintIndex",
          "type": "uint256"
        },
        {
          "internalType": "uint256",
          "name": "_saltfun_o",
          "type": "uint256"
        }
      ],
      "name": "calculateTokenHash",
      "outputs": [],
      "stateMutability": "nonpayable",
      "type": "function"
    },
    {
      "inputs": [],
      "name": "gencoreContract",
      "outputs": [
        {
          "internalType": "contract INextGenCore",
          "name": "",
          "type": "address"
        }
      ],
      "stateMutability": "view",
      "type": "function"
    },
    {
      "inputs": [],
      "name": "isRandomizerContract",
      "outputs": [
        {
          "internalType": "bool",
          "name": "",
          "type": "bool"
        }
      ],
      "stateMutability": "pure",
      "type": "function"
    },
    {
      "inputs": [],
      "name": "randoms",
      "outputs": [
        {
          "internalType": "contract IXRandoms",
          "name": "",
          "type": "address"
        }
      ],
      "stateMutability": "view",
      "type": "function"
    },
    {
      "inputs": [
        {
          "internalType": "address",
          "name": "_admin",
          "type": "address"
        }
      ],
      "name": "updateAdminsContract",
      "outputs": [],
      "stateMutability": "nonpayable",
      "type": "function"
    },
    {
      "inputs": [
        {
          "internalType": "address",
          "name": "_gencore",
          "type": "address"
        }
      ],
      "name": "updateCoreContract",
      "outputs": [],
      "stateMutability": "nonpayable",
      "type": "function"
    },
    {
      "inputs": [
        {
          "internalType": "address",
          "name": "_randoms",
          "type": "address"
        }
      ],
      "name": "updateRandomsContract",
      "outputs": [],
      "stateMutability": "nonpayable",
      "type": "function"
    }
  ],
  "bytecode": {
    "object": "0x608060405234801561001057600080fd5b506040516109bf3803806109bf83398101604081905261002f9161009b565b600080546001600160a01b03199081166001600160a01b039586161790915560018054821693851693909317909255600380548316919093169081179092556002805490911690911790556100de565b80516001600160a01b038116811461009657600080fd5b919050565b6000806000606084860312156100b057600080fd5b6100b98461007f565b92506100c76020850161007f565b91506100d56040850161007f565b90509250925092565b6108d2806100ed6000396000f3fe608060405234801561001057600080fd5b506004361061007d5760003560e01c8063692bea2d1161005b578063692bea2d146100be578063bee666d8146100d1578063bf1b89d3146100fc578063c7b010b01461010f57600080fd5b8063012ed757146100825780632b673a2e146100975780634cf0c697146100aa575b600080fd5b61009561009036600461067b565b610122565b005b6100956100a536600461067b565b610261565b604051600181526020015b60405180910390f35b6100956100cc36600461067b565b6103a1565b6000546100e4906001600160a01b031681565b6040516001600160a01b0390911681526020016100b5565b61009561010a3660046106ab565b6104d7565b6002546100e4906001600160a01b031681565b60015460405163feb2e23360e01b815263012ed75760e01b916001600160a01b03169063feb2e2339061015b90339085906004016106d7565b602060405180830381865afa158015610178573d6000803e3d6000fd5b505050506040513d601f19601f8201168201806040525081019061019c91906106fa565b151560011480610219575060015460405163b3076d5560e01b81523360048201526001600160a01b039091169063b3076d5590602401602060405180830381865afa1580156101ef573d6000803e3d6000fd5b505050506040513d601f19601f8201168201806040525081019061021391906106fa565b15156001145b61023e5760405162461bcd60e51b81526004016102359061071c565b60405180910390fd5b50600180546001600160a01b0319166001600160a01b0392909216919091179055565b60015460405163feb2e23360e01b81526315b39d1760e11b916001600160a01b03169063feb2e2339061029a90339085906004016106d7565b602060405180830381865afa1580156102b7573d6000803e3d6000fd5b505050506040513d601f19601f820116820180604052508101906102db91906106fa565b151560011480610358575060015460405163b3076d5560e01b81523360048201526001600160a01b039091169063b3076d5590602401602060405180830381865afa15801561032e573d6000803e3d6000fd5b505050506040513d601f19601f8201168201806040525081019061035291906106fa565b15156001145b6103745760405162461bcd60e51b81526004016102359061071c565b50600380546001600160a01b039092166001600160a01b0319928316811790915560028054909216179055565b60015460405163feb2e23360e01b815263692bea2d60e01b916001600160a01b03169063feb2e233906103da90339085906004016106d7565b602060405180830381865afa1580156103f7573d6000803e3d6000fd5b505050506040513d601f19601f8201168201806040525081019061041b91906106fa565b151560011480610498575060015460405163b3076d5560e01b81523360048201526001600160a01b039091169063b3076d5590602401602060405180830381865afa15801561046e573d6000803e3d6000fd5b505050506040513d601f19601f8201168201806040525081019061049291906106fa565b15156001145b6104b45760405162461bcd60e51b81526004016102359061071c565b50600080546001600160a01b0319166001600160a01b0392909216919091179055565b6003546001600160a01b031633146104ee57600080fd5b6000826104fc600143610741565b4060008054906101000a90046001600160a01b03166001600160a01b031663ccbac9f56040518163ffffffff1660e01b8152600401602060405180830381865afa15801561054e573d6000803e3d6000fd5b505050506040513d601f19601f820116820180604052508101906105729190610768565b600080546040805163f568418360e01b815290516001600160a01b039092169263f5684183926004808401938290030181865afa1580156105b7573d6000803e3d6000fd5b505050506040513d6000823e601f3d908101601f191682016040526105df91908101906107bb565b6040516020016105f29493929190610868565b60408051808303601f19018152908290528051602090910120600254639cac0f1f60e01b83526004830187905260248301869052604483018290529092506001600160a01b031690639cac0f1f90606401600060405180830381600087803b15801561065d57600080fd5b505af1158015610671573d6000803e3d6000fd5b5050505050505050565b60006020828403121561068d57600080fd5b81356001600160a01b03811681146106a457600080fd5b9392505050565b6000806000606084860312156106c057600080fd5b505081359360208301359350604090920135919050565b6001600160a01b039290921682526001600160e01b031916602082015260400190565b60006020828403121561070c57600080fd5b815180151581146106a457600080fd5b6020808252600b908201526a139bdd08185b1b1bddd95960aa1b604082015260600190565b8181038181111561076257634e487b7160e01b600052601160045260246000fd5b92915050565b60006020828403121561077a57600080fd5b5051919050565b634e487b7160e01b600052604160045260246000fd5b60005b838110156107b257818101518382015260200161079a565b50506000910152565b6000602082840312156107cd57600080fd5b815167ffffffffffffffff808211156107e557600080fd5b818401915084601f8301126107f957600080fd5b81518181111561080b5761080b610781565b604051601f8201601f19908116603f0116810190838211818310171561083357610833610781565b8160405282815287602084870101111561084c57600080fd5b61085d836020830160208801610797565b979650505050505050565b8481528360208201528260408201526000825161088c816060850160208701610797565b919091016060019594505050505056fea264697066735822122048627763d3e89d1c3313b86030d5cafe68b925d2fe1233eabc746b8d4e61558964736f6c63430008130033",
    "linkReferences": {}
  },
  "methodIdentifiers": {
    "calculateTokenHash(uint256,uint256,uint256)": "bf1b89d3",
    "gencoreContract()": "c7b010b0",
    "isRandomizerContract()": "4cf0c697",
    "randoms()": "bee666d8",
    "updateAdminsContract(address)": "012ed757",
    "updateCoreContract(address)": "2b673a2e",
    "updateRandomsContract(address)": "692bea2d"
  },
  "id": 28
}