{
  "abi": [
    {
      "inputs": [
        {
          "internalType": "contract AuctionDemo",
          "name": "_auctionDemo",
          "type": "address"
        }
      ],
      "stateMutability": "nonpayable",
      "type": "constructor"
    },
    {
      "stateMutability": "payable",
      "type": "fallback"
    },
    {
      "inputs": [],
      "name": "INeedGasJunior",
      "outputs": [
        {
          "internalType": "address",
          "name": "",
          "type": "address"
        }
      ],
      "stateMutability": "view",
      "type": "function"
    },
    {
      "inputs": [],
      "name": "auctionDemo",
      "outputs": [
        {
          "internalType": "contract AuctionDemo",
          "name": "",
          "type": "address"
        }
      ],
      "stateMutability": "view",
      "type": "function"
    },
    {
      "inputs": [],
      "name": "bid",
      "outputs": [],
      "stateMutability": "payable",
      "type": "function"
    },
    {
      "inputs": [],
      "name": "inc",
      "outputs": [
        {
          "internalType": "uint256",
          "name": "",
          "type": "uint256"
        }
      ],
      "stateMutability": "view",
      "type": "function"
    },
    {
      "inputs": [
        {
          "internalType": "address",
          "name": "",
          "type": "address"
        },
        {
          "internalType": "address",
          "name": "",
          "type": "address"
        },
        {
          "internalType": "uint256",
          "name": "",
          "type": "uint256"
        },
        {
          "internalType": "bytes",
          "name": "",
          "type": "bytes"
        }
      ],
      "name": "onERC721Received",
      "outputs": [
        {
          "internalType": "bytes4",
          "name": "",
          "type": "bytes4"
        }
      ],
      "stateMutability": "nonpayable",
      "type": "function"
    },
    {
      "inputs": [
        {
          "internalType": "uint256",
          "name": "_tokenId",
          "type": "uint256"
        }
      ],
      "name": "setTokenId",
      "outputs": [],
      "stateMutability": "nonpayable",
      "type": "function"
    },
    {
      "inputs": [],
      "name": "tokenId",
      "outputs": [
        {
          "internalType": "uint256",
          "name": "",
          "type": "uint256"
        }
      ],
      "stateMutability": "view",
      "type": "function"
    }
  ],
  "bytecode": {
    "object": "0x608060405234801561001057600080fd5b506040516104f63803806104f683398101604081905261002f9161005d565b600180546001600160a01b039092166001600160a01b0319928316179055600080549091163317905561008d565b60006020828403121561006f57600080fd5b81516001600160a01b038116811461008657600080fd5b9392505050565b61045a8061009c6000396000f3fe6080604052600436106100705760003560e01c80631998aeef1161004e5780631998aeef14610152578063371303c01461015c5780638bb127a014610172578063c929ccf31461019257610070565b8063104f57ac146100ad578063150b7a02146100ea57806317d70f7c1461012e575b60005b6000198110156100a5576003805490600061008d836102d6565b9190505550808061009d906102d6565b915050610073565b506000600355005b3480156100b957600080fd5b506000546100cd906001600160a01b031681565b6040516001600160a01b0390911681526020015b60405180910390f35b3480156100f657600080fd5b5061011561010536600461032f565b630a85bd0160e11b949350505050565b6040516001600160e01b031990911681526020016100e1565b34801561013a57600080fd5b5061014460025481565b6040519081526020016100e1565b61015a6101b2565b005b34801561016857600080fd5b5061014460035481565b34801561017e57600080fd5b506001546100cd906001600160a01b031681565b34801561019e57600080fd5b5061015a6101ad36600461040b565b610277565b6000546001600160a01b031633146102115760405162461bcd60e51b815260206004820152601c60248201527f536f7272792c20796f752063616e27742065617420676173205e5f5e0000000060448201526064015b60405180910390fd5b60015460025460405163249a825160e21b815260048101919091526001600160a01b039091169063926a09449034906024016000604051808303818588803b15801561025c57600080fd5b505af1158015610270573d6000803e3d6000fd5b5050505050565b6000546001600160a01b031633146102d15760405162461bcd60e51b815260206004820152601c60248201527f536f7272792c20796f752063616e27742065617420676173205e5f5e000000006044820152606401610208565b600255565b6000600182016102f657634e487b7160e01b600052601160045260246000fd5b5060010190565b80356001600160a01b038116811461031457600080fd5b919050565b634e487b7160e01b600052604160045260246000fd5b6000806000806080858703121561034557600080fd5b61034e856102fd565b935061035c602086016102fd565b925060408501359150606085013567ffffffffffffffff8082111561038057600080fd5b818701915087601f83011261039457600080fd5b8135818111156103a6576103a6610319565b604051601f8201601f19908116603f011681019083821181831017156103ce576103ce610319565b816040528281528a60208487010111156103e757600080fd5b82602086016020830137600060208483010152809550505050505092959194509250565b60006020828403121561041d57600080fd5b503591905056fea26469706673582212208b5547236a5eccd0733e6f9125e6a694e35bb1ef86642476c276d8b8e079d70064736f6c63430008130033",
    "linkReferences": {}
  },
  "methodIdentifiers": {
    "INeedGasJunior()": "104f57ac",
    "auctionDemo()": "8bb127a0",
    "bid()": "1998aeef",
    "inc()": "371303c0",
    "onERC721Received(address,address,uint256,bytes)": "150b7a02",
    "setTokenId(uint256)": "c929ccf3",
    "tokenId()": "17d70f7c"
  },
  "id": 51
}