{
  "abi": [
    {
      "inputs": [
        {
          "internalType": "uint64",
          "name": "subscriptionId",
          "type": "uint64"
        },
        {
          "internalType": "address",
          "name": "vrfCoordinator",
          "type": "address"
        },
        {
          "internalType": "address",
          "name": "_gencore",
          "type": "address"
        },
        {
          "internalType": "address",
          "name": "_adminsContract",
          "type": "address"
        }
      ],
      "stateMutability": "nonpayable",
      "type": "constructor"
    },
    {
      "inputs": [
        {
          "internalType": "address",
          "name": "have",
          "type": "address"
        },
        {
          "internalType": "address",
          "name": "want",
          "type": "address"
        }
      ],
      "name": "OnlyCoordinatorCanFulfill",
      "type": "error"
    },
    {
      "anonymous": false,
      "inputs": [
        {
          "indexed": true,
          "internalType": "address",
          "name": "previousOwner",
          "type": "address"
        },
        {
          "indexed": true,
          "internalType": "address",
          "name": "newOwner",
          "type": "address"
        }
      ],
      "name": "OwnershipTransferred",
      "type": "event"
    },
    {
      "anonymous": false,
      "inputs": [
        {
          "indexed": false,
          "internalType": "uint256",
          "name": "requestId",
          "type": "uint256"
        },
        {
          "indexed": false,
          "internalType": "uint256[]",
          "name": "randomWords",
          "type": "uint256[]"
        }
      ],
      "name": "RequestFulfilled",
      "type": "event"
    },
    {
      "inputs": [],
      "name": "COORDINATOR",
      "outputs": [
        {
          "internalType": "contract VRFCoordinatorV2Interface",
          "name": "",
          "type": "address"
        }
      ],
      "stateMutability": "view",
      "type": "function"
    },
    {
      "inputs": [
        {
          "internalType": "uint256",
          "name": "_collectionID",
          "type": "uint256"
        },
        {
          "internalType": "uint256",
          "name": "_mintIndex",
          "type": "uint256"
        },
        {
          "internalType": "uint256",
          "name": "_saltfun_o",
          "type": "uint256"
        }
      ],
      "name": "calculateTokenHash",
      "outputs": [],
      "stateMutability": "nonpayable",
      "type": "function"
    },
    {
      "inputs": [],
      "name": "callbackGasLimit",
      "outputs": [
        {
          "internalType": "uint32",
          "name": "",
          "type": "uint32"
        }
      ],
      "stateMutability": "view",
      "type": "function"
    },
    {
      "inputs": [],
      "name": "gencoreContract",
      "outputs": [
        {
          "internalType": "contract INextGenCore",
          "name": "",
          "type": "address"
        }
      ],
      "stateMutability": "view",
      "type": "function"
    },
    {
      "inputs": [],
      "name": "isRandomizerContract",
      "outputs": [
        {
          "internalType": "bool",
          "name": "",
          "type": "bool"
        }
      ],
      "stateMutability": "view",
      "type": "function"
    },
    {
      "inputs": [],
      "name": "keyHash",
      "outputs": [
        {
          "internalType": "bytes32",
          "name": "",
          "type": "bytes32"
        }
      ],
      "stateMutability": "view",
      "type": "function"
    },
    {
      "inputs": [],
      "name": "numWords",
      "outputs": [
        {
          "internalType": "uint32",
          "name": "",
          "type": "uint32"
        }
      ],
      "stateMutability": "view",
      "type": "function"
    },
    {
      "inputs": [],
      "name": "owner",
      "outputs": [
        {
          "internalType": "address",
          "name": "",
          "type": "address"
        }
      ],
      "stateMutability": "view",
      "type": "function"
    },
    {
      "inputs": [
        {
          "internalType": "uint256",
          "name": "requestId",
          "type": "uint256"
        },
        {
          "internalType": "uint256[]",
          "name": "randomWords",
          "type": "uint256[]"
        }
      ],
      "name": "rawFulfillRandomWords",
      "outputs": [],
      "stateMutability": "nonpayable",
      "type": "function"
    },
    {
      "inputs": [],
      "name": "renounceOwnership",
      "outputs": [],
      "stateMutability": "nonpayable",
      "type": "function"
    },
    {
      "inputs": [],
      "name": "requestConfirmations",
      "outputs": [
        {
          "internalType": "uint16",
          "name": "",
          "type": "uint16"
        }
      ],
      "stateMutability": "view",
      "type": "function"
    },
    {
      "inputs": [
        {
          "internalType": "uint256",
          "name": "tokenid",
          "type": "uint256"
        }
      ],
      "name": "requestRandomWords",
      "outputs": [],
      "stateMutability": "nonpayable",
      "type": "function"
    },
    {
      "inputs": [
        {
          "internalType": "uint256",
          "name": "",
          "type": "uint256"
        }
      ],
      "name": "requestToToken",
      "outputs": [
        {
          "internalType": "uint256",
          "name": "",
          "type": "uint256"
        }
      ],
      "stateMutability": "view",
      "type": "function"
    },
    {
      "inputs": [
        {
          "internalType": "uint256",
          "name": "",
          "type": "uint256"
        }
      ],
      "name": "tokenIdToCollection",
      "outputs": [
        {
          "internalType": "uint256",
          "name": "",
          "type": "uint256"
        }
      ],
      "stateMutability": "view",
      "type": "function"
    },
    {
      "inputs": [
        {
          "internalType": "uint256",
          "name": "",
          "type": "uint256"
        }
      ],
      "name": "tokenToRequest",
      "outputs": [
        {
          "internalType": "uint256",
          "name": "",
          "type": "uint256"
        }
      ],
      "stateMutability": "view",
      "type": "function"
    },
    {
      "inputs": [
        {
          "internalType": "address",
          "name": "newOwner",
          "type": "address"
        }
      ],
      "name": "transferOwnership",
      "outputs": [],
      "stateMutability": "nonpayable",
      "type": "function"
    },
    {
      "inputs": [
        {
          "internalType": "uint64",
          "name": "_s_subscriptionId",
          "type": "uint64"
        },
        {
          "internalType": "uint32",
          "name": "_numWords",
          "type": "uint32"
        },
        {
          "internalType": "uint16",
          "name": "_requestConfirmations",
          "type": "uint16"
        }
      ],
      "name": "updateAdditionalData",
      "outputs": [],
      "stateMutability": "nonpayable",
      "type": "function"
    },
    {
      "inputs": [
        {
          "internalType": "address",
          "name": "_newadminsContract",
          "type": "address"
        }
      ],
      "name": "updateAdminContract",
      "outputs": [],
      "stateMutability": "nonpayable",
      "type": "function"
    },
    {
      "inputs": [
        {
          "internalType": "address",
          "name": "_gencore",
          "type": "address"
        }
      ],
      "name": "updateCoreContract",
      "outputs": [],
      "stateMutability": "nonpayable",
      "type": "function"
    },
    {
      "inputs": [
        {
          "internalType": "uint32",
          "name": "_callbackGasLimit",
          "type": "uint32"
        },
        {
          "internalType": "bytes32",
          "name": "_keyHash",
          "type": "bytes32"
        }
      ],
      "name": "updatecallbackGasLimitAndkeyHash",
      "outputs": [],
      "stateMutability": "nonpayable",
      "type": "function"
    }
  ],
  "bytecode": {
    "object": "0x60a06040527f79d3d8832d904592c0bf9818b621522c988bb8b0c05cdc3b15aea1b6e8db0c15600255600380546001600160501b0319166601000300009c401790553480156200004e57600080fd5b506040516200122638038062001226833981016040819052620000719162000163565b6001600160a01b0383166080526200008933620000f6565b600180546001600160401b03909516600160a01b026001600160e01b03199095166001600160a01b039485161794909417909355600780549183166001600160a01b03199283168117909155600880548316909117905560098054939092169216919091179055620001cd565b600080546001600160a01b038381166001600160a01b0319831681178455604051919092169283917f8be0079c531659141344cd1fd0a4f28419497f9722a3daafe3b4186f6b6457e09190a35050565b80516001600160a01b03811681146200015e57600080fd5b919050565b600080600080608085870312156200017a57600080fd5b84516001600160401b03811681146200019257600080fd5b9350620001a26020860162000146565b9250620001b26040860162000146565b9150620001c26060860162000146565b905092959194509250565b608051611036620001f06000396000818161045a015261049c01526110366000f3fe608060405234801561001057600080fd5b506004361061012c5760003560e01c80637ccfd7fc116100ad578063bc85777c11610071578063bc85777c146102b3578063bf1b89d3146102c6578063c7b010b0146102d9578063d29cc9f3146102ec578063f2fde38b146102ff57600080fd5b80637ccfd7fc146102225780638da5cb5b1461023957806394b8ae9d1461024a578063aa419ba41461026a578063b0fb162f1461028a57600080fd5b8063388d2c24116100f4578063388d2c24146101c45780633b2bcbf1146101d75780634cf0c6971461020257806361728f3914610211578063715018a61461021a57600080fd5b80631370ba381461013157806314a0f853146101645780631fe543e31461017957806324f746971461018c5780632b673a2e146101b1575b600080fd5b61015161013f366004610cd9565b60066020526000908152604090205481565b6040519081526020015b60405180910390f35b610177610172366004610d0b565b610312565b005b610177610187366004610d4b565b61044f565b60035461019c9063ffffffff1681565b60405163ffffffff909116815260200161015b565b6101776101bf366004610e15565b6104d7565b6101776101d2366004610e15565b610617565b6001546101ea906001600160a01b031681565b6040516001600160a01b03909116815260200161015b565b6040516001815260200161015b565b61015160025481565b6101776107f8565b60035461019c90600160301b900463ffffffff1681565b6000546001600160a01b03166101ea565b610151610258366004610cd9565b60046020526000908152604090205481565b610151610278366004610cd9565b60056020526000908152604090205481565b6003546102a090640100000000900461ffff1681565b60405161ffff909116815260200161015b565b6101776102c1366004610cd9565b61080c565b6101776102d4366004610e45565b6108ff565b6008546101ea906001600160a01b031681565b6101776102fa366004610e71565b610935565b61017761030d366004610e15565b610ab9565b60095460405163feb2e23360e01b81526314a0f85360e01b916001600160a01b03169063feb2e2339061034b9033908590600401610ece565b602060405180830381865afa158015610368573d6000803e3d6000fd5b505050506040513d601f19601f8201168201806040525081019061038c9190610ef1565b151560011480610409575060095460405163b3076d5560e01b81523360048201526001600160a01b039091169063b3076d5590602401602060405180830381865afa1580156103df573d6000803e3d6000fd5b505050506040513d601f19601f820116820180604052508101906104039190610ef1565b15156001145b61042e5760405162461bcd60e51b815260040161042590610f13565b60405180910390fd5b506003805463ffffffff191663ffffffff9390931692909217909155600255565b336001600160a01b037f000000000000000000000000000000000000000000000000000000000000000016146104c95760405163073e64fd60e21b81523360048201526001600160a01b037f0000000000000000000000000000000000000000000000000000000000000000166024820152604401610425565b6104d38282610b32565b5050565b60095460405163feb2e23360e01b81526315b39d1760e11b916001600160a01b03169063feb2e233906105109033908590600401610ece565b602060405180830381865afa15801561052d573d6000803e3d6000fd5b505050506040513d601f19601f820116820180604052508101906105519190610ef1565b1515600114806105ce575060095460405163b3076d5560e01b81523360048201526001600160a01b039091169063b3076d5590602401602060405180830381865afa1580156105a4573d6000803e3d6000fd5b505050506040513d601f19601f820116820180604052508101906105c89190610ef1565b15156001145b6105ea5760405162461bcd60e51b815260040161042590610f13565b50600780546001600160a01b039092166001600160a01b0319928316811790915560088054909216179055565b60095460405163feb2e23360e01b8152630e234b0960e21b916001600160a01b03169063feb2e233906106509033908590600401610ece565b602060405180830381865afa15801561066d573d6000803e3d6000fd5b505050506040513d601f19601f820116820180604052508101906106919190610ef1565b15156001148061070e575060095460405163b3076d5560e01b81523360048201526001600160a01b039091169063b3076d5590602401602060405180830381865afa1580156106e4573d6000803e3d6000fd5b505050506040513d601f19601f820116820180604052508101906107089190610ef1565b15156001145b61072a5760405162461bcd60e51b815260040161042590610f13565b816001600160a01b0316639068edac6040518163ffffffff1660e01b8152600401602060405180830381865afa158015610768573d6000803e3d6000fd5b505050506040513d601f19601f8201168201806040525081019061078c9190610ef1565b15156001146107d55760405162461bcd60e51b815260206004820152601560248201527421b7b73a3930b1ba1034b9903737ba1020b236b4b760591b6044820152606401610425565b50600980546001600160a01b0319166001600160a01b0392909216919091179055565b610800610c2f565b61080a6000610c89565b565b6007546001600160a01b0316331461082357600080fd5b6001546002546003546040516305d3b1d360e41b81526004810192909252600160a01b830467ffffffffffffffff166024830152640100000000810461ffff16604483015263ffffffff8082166064840152600160301b9091041660848201526000916001600160a01b031690635d3b1d309060a4016020604051808303816000875af11580156108b8573d6000803e3d6000fd5b505050506040513d601f19601f820116820180604052508101906108dc9190610f38565b600083815260056020908152604080832084905592825260069052209190915550565b6007546001600160a01b0316331461091657600080fd5b60008281526004602052604090208390556109308261080c565b505050565b60095460405163feb2e23360e01b815263d29cc9f360e01b916001600160a01b03169063feb2e2339061096e9033908590600401610ece565b602060405180830381865afa15801561098b573d6000803e3d6000fd5b505050506040513d601f19601f820116820180604052508101906109af9190610ef1565b151560011480610a2c575060095460405163b3076d5560e01b81523360048201526001600160a01b039091169063b3076d5590602401602060405180830381865afa158015610a02573d6000803e3d6000fd5b505050506040513d601f19601f82011682018060405250810190610a269190610ef1565b15156001145b610a485760405162461bcd60e51b815260040161042590610f13565b506001805467ffffffffffffffff909416600160a01b0267ffffffffffffffff60a01b19909416939093179092556003805461ffff9093166401000000000265ffff000000001963ffffffff909316600160301b029290921669ffffffffffff000000001990931692909217179055565b610ac1610c2f565b6001600160a01b038116610b265760405162461bcd60e51b815260206004820152602660248201527f4f776e61626c653a206e6577206f776e657220697320746865207a65726f206160448201526564647265737360d01b6064820152608401610425565b610b2f81610c89565b50565b600854600083815260066020818152604080842054808552600483528185205494889052928252516001600160a01b0390941693639cac0f1f939291610b7c918791849101610f51565b604051602081830303815290604052610b9490610f8b565b6040516001600160e01b031960e086901b168152600481019390935260248301919091526044820152606401600060405180830381600087803b158015610bda57600080fd5b505af1158015610bee573d6000803e3d6000fd5b505050507ffe2e2d779dba245964d4e3ef9b994be63856fd568bf7d3ca9e224755cb1bd54d8282604051610c23929190610fb2565b60405180910390a15050565b6000546001600160a01b0316331461080a5760405162461bcd60e51b815260206004820181905260248201527f4f776e61626c653a2063616c6c6572206973206e6f7420746865206f776e65726044820152606401610425565b600080546001600160a01b038381166001600160a01b0319831681178455604051919092169283917f8be0079c531659141344cd1fd0a4f28419497f9722a3daafe3b4186f6b6457e09190a35050565b600060208284031215610ceb57600080fd5b5035919050565b803563ffffffff81168114610d0657600080fd5b919050565b60008060408385031215610d1e57600080fd5b610d2783610cf2565b946020939093013593505050565b634e487b7160e01b600052604160045260246000fd5b60008060408385031215610d5e57600080fd5b8235915060208084013567ffffffffffffffff80821115610d7e57600080fd5b818601915086601f830112610d9257600080fd5b813581811115610da457610da4610d35565b8060051b604051601f19603f83011681018181108582111715610dc957610dc9610d35565b604052918252848201925083810185019189831115610de757600080fd5b938501935b82851015610e0557843584529385019392850192610dec565b8096505050505050509250929050565b600060208284031215610e2757600080fd5b81356001600160a01b0381168114610e3e57600080fd5b9392505050565b600080600060608486031215610e5a57600080fd5b505081359360208301359350604090920135919050565b600080600060608486031215610e8657600080fd5b833567ffffffffffffffff81168114610e9e57600080fd5b9250610eac60208501610cf2565b9150604084013561ffff81168114610ec357600080fd5b809150509250925092565b6001600160a01b039290921682526001600160e01b031916602082015260400190565b600060208284031215610f0357600080fd5b81518015158114610e3e57600080fd5b6020808252600b908201526a139bdd08185b1b1bddd95960aa1b604082015260600190565b600060208284031215610f4a57600080fd5b5051919050565b825160009082906020808701845b83811015610f7b57815185529382019390820190600101610f5f565b5050948252509092019392505050565b80516020808301519190811015610fac576000198160200360031b1b821691505b50919050565b6000604082018483526020604081850152818551808452606086019150828701935060005b81811015610ff357845183529383019391830191600101610fd7565b509097965050505050505056fea2646970667358221220839fda258e54ede57aa5d6289dfa845bf9820fe9b2d95d400a77b1f25292015264736f6c63430008130033",
    "linkReferences": {}
  },
  "methodIdentifiers": {
    "COORDINATOR()": "3b2bcbf1",
    "calculateTokenHash(uint256,uint256,uint256)": "bf1b89d3",
    "callbackGasLimit()": "24f74697",
    "gencoreContract()": "c7b010b0",
    "isRandomizerContract()": "4cf0c697",
    "keyHash()": "61728f39",
    "numWords()": "7ccfd7fc",
    "owner()": "8da5cb5b",
    "rawFulfillRandomWords(uint256,uint256[])": "1fe543e3",
    "renounceOwnership()": "715018a6",
    "requestConfirmations()": "b0fb162f",
    "requestRandomWords(uint256)": "bc85777c",
    "requestToToken(uint256)": "1370ba38",
    "tokenIdToCollection(uint256)": "94b8ae9d",
    "tokenToRequest(uint256)": "aa419ba4",
    "transferOwnership(address)": "f2fde38b",
    "updateAdditionalData(uint64,uint32,uint16)": "d29cc9f3",
    "updateAdminContract(address)": "388d2c24",
    "updateCoreContract(address)": "2b673a2e",
    "updatecallbackGasLimitAndkeyHash(uint32,bytes32)": "14a0f853"
  },
  "id": 30
}