{
  "abi": [
    {
      "inputs": [
        {
          "internalType": "address",
          "name": "_minter",
          "type": "address"
        },
        {
          "internalType": "address",
          "name": "_gencore",
          "type": "address"
        },
        {
          "internalType": "address",
          "name": "_adminsContract",
          "type": "address"
        }
      ],
      "stateMutability": "nonpayable",
      "type": "constructor"
    },
    {
      "anonymous": false,
      "inputs": [
        {
          "indexed": true,
          "internalType": "address",
          "name": "_add",
          "type": "address"
        },
        {
          "indexed": true,
          "internalType": "uint256",
          "name": "tokenid",
          "type": "uint256"
        },
        {
          "indexed": false,
          "internalType": "uint256",
          "name": "index",
          "type": "uint256"
        },
        {
          "indexed": false,
          "internalType": "bool",
          "name": "status",
          "type": "bool"
        },
        {
          "indexed": true,
          "internalType": "uint256",
          "name": "funds",
          "type": "uint256"
        }
      ],
      "name": "CancelBid",
      "type": "event"
    },
    {
      "anonymous": false,
      "inputs": [
        {
          "indexed": true,
          "internalType": "address",
          "name": "_add",
          "type": "address"
        },
        {
          "indexed": true,
          "internalType": "uint256",
          "name": "tokenid",
          "type": "uint256"
        },
        {
          "indexed": false,
          "internalType": "bool",
          "name": "status",
          "type": "bool"
        },
        {
          "indexed": true,
          "internalType": "uint256",
          "name": "funds",
          "type": "uint256"
        }
      ],
      "name": "ClaimAuction",
      "type": "event"
    },
    {
      "anonymous": false,
      "inputs": [
        {
          "indexed": true,
          "internalType": "address",
          "name": "previousOwner",
          "type": "address"
        },
        {
          "indexed": true,
          "internalType": "address",
          "name": "newOwner",
          "type": "address"
        }
      ],
      "name": "OwnershipTransferred",
      "type": "event"
    },
    {
      "anonymous": false,
      "inputs": [
        {
          "indexed": true,
          "internalType": "address",
          "name": "_add",
          "type": "address"
        },
        {
          "indexed": true,
          "internalType": "uint256",
          "name": "tokenid",
          "type": "uint256"
        },
        {
          "indexed": false,
          "internalType": "bool",
          "name": "status",
          "type": "bool"
        },
        {
          "indexed": true,
          "internalType": "uint256",
          "name": "funds",
          "type": "uint256"
        }
      ],
      "name": "Refund",
      "type": "event"
    },
    {
      "inputs": [],
      "name": "adminsContract",
      "outputs": [
        {
          "internalType": "contract INextGenAdmins",
          "name": "",
          "type": "address"
        }
      ],
      "stateMutability": "view",
      "type": "function"
    },
    {
      "inputs": [
        {
          "internalType": "uint256",
          "name": "",
          "type": "uint256"
        }
      ],
      "name": "auctionClaim",
      "outputs": [
        {
          "internalType": "bool",
          "name": "",
          "type": "bool"
        }
      ],
      "stateMutability": "view",
      "type": "function"
    },
    {
      "inputs": [
        {
          "internalType": "uint256",
          "name": "",
          "type": "uint256"
        },
        {
          "internalType": "uint256",
          "name": "",
          "type": "uint256"
        }
      ],
      "name": "auctionInfoData",
      "outputs": [
        {
          "internalType": "address",
          "name": "bidder",
          "type": "address"
        },
        {
          "internalType": "uint256",
          "name": "bid",
          "type": "uint256"
        },
        {
          "internalType": "bool",
          "name": "status",
          "type": "bool"
        }
      ],
      "stateMutability": "view",
      "type": "function"
    },
    {
      "inputs": [
        {
          "internalType": "uint256",
          "name": "_tokenid",
          "type": "uint256"
        }
      ],
      "name": "cancelAllBids",
      "outputs": [],
      "stateMutability": "nonpayable",
      "type": "function"
    },
    {
      "inputs": [
        {
          "internalType": "uint256",
          "name": "_tokenid",
          "type": "uint256"
        },
        {
          "internalType": "uint256",
          "name": "index",
          "type": "uint256"
        }
      ],
      "name": "cancelBid",
      "outputs": [],
      "stateMutability": "nonpayable",
      "type": "function"
    },
    {
      "inputs": [
        {
          "internalType": "uint256",
          "name": "_tokenid",
          "type": "uint256"
        }
      ],
      "name": "claimAuction",
      "outputs": [],
      "stateMutability": "nonpayable",
      "type": "function"
    },
    {
      "inputs": [],
      "name": "minter",
      "outputs": [
        {
          "internalType": "contract IMinterContract",
          "name": "",
          "type": "address"
        }
      ],
      "stateMutability": "view",
      "type": "function"
    },
    {
      "inputs": [],
      "name": "owner",
      "outputs": [
        {
          "internalType": "address",
          "name": "",
          "type": "address"
        }
      ],
      "stateMutability": "view",
      "type": "function"
    },
    {
      "inputs": [
        {
          "internalType": "uint256",
          "name": "_tokenid",
          "type": "uint256"
        }
      ],
      "name": "participateToAuction",
      "outputs": [],
      "stateMutability": "payable",
      "type": "function"
    },
    {
      "inputs": [],
      "name": "renounceOwnership",
      "outputs": [],
      "stateMutability": "nonpayable",
      "type": "function"
    },
    {
      "inputs": [
        {
          "internalType": "uint256",
          "name": "_tokenid",
          "type": "uint256"
        }
      ],
      "name": "returnBids",
      "outputs": [
        {
          "components": [
            {
              "internalType": "address",
              "name": "bidder",
              "type": "address"
            },
            {
              "internalType": "uint256",
              "name": "bid",
              "type": "uint256"
            },
            {
              "internalType": "bool",
              "name": "status",
              "type": "bool"
            }
          ],
          "internalType": "struct AuctionDemo.auctionInfo[]",
          "name": "",
          "type": "tuple[]"
        }
      ],
      "stateMutability": "view",
      "type": "function"
    },
    {
      "inputs": [
        {
          "internalType": "uint256",
          "name": "_tokenid",
          "type": "uint256"
        }
      ],
      "name": "returnHighestBid",
      "outputs": [
        {
          "internalType": "uint256",
          "name": "",
          "type": "uint256"
        }
      ],
      "stateMutability": "view",
      "type": "function"
    },
    {
      "inputs": [
        {
          "internalType": "uint256",
          "name": "_tokenid",
          "type": "uint256"
        }
      ],
      "name": "returnHighestBidder",
      "outputs": [
        {
          "internalType": "address",
          "name": "",
          "type": "address"
        }
      ],
      "stateMutability": "view",
      "type": "function"
    },
    {
      "inputs": [
        {
          "internalType": "address",
          "name": "newOwner",
          "type": "address"
        }
      ],
      "name": "transferOwnership",
      "outputs": [],
      "stateMutability": "nonpayable",
      "type": "function"
    }
  ],
  "bytecode": {
    "object": "0x60806040523480156200001157600080fd5b50604051620018e5380380620018e58339810160408190526200003491620000ef565b6200003f3362000082565b600180546001600160a01b039485166001600160a01b03199182161790915560038054938516938216939093179092556002805491909316911617905562000139565b600080546001600160a01b038381166001600160a01b0319831681178455604051919092169283917f8be0079c531659141344cd1fd0a4f28419497f9722a3daafe3b4186f6b6457e09190a35050565b80516001600160a01b0381168114620000ea57600080fd5b919050565b6000806000606084860312156200010557600080fd5b6200011084620000d2565b92506200012060208501620000d2565b91506200013060408501620000d2565b90509250925092565b61179c80620001496000396000f3fe6080604052600436106100dd5760003560e01c80637e3c9be71161007f578063981c8af911610059578063981c8af9146102625780639aafc6c9146102a9578063c21c9855146102c9578063f2fde38b146102e957600080fd5b80637e3c9be7146102115780638da5cb5b14610231578063926a09441461024f57600080fd5b80634b393605116100bb5780634b3936051461018d5780634e8b77b3146101af5780635d5bc347146101dc578063715018a6146101fc57600080fd5b806307546172146100e257806325ff80801461011f578063442906571461015f575b600080fd5b3480156100ee57600080fd5b50600154610102906001600160a01b031681565b6040516001600160a01b0390911681526020015b60405180910390f35b34801561012b57600080fd5b5061014f61013a3660046115f9565b60056020526000908152604090205460ff1681565b6040519015158152602001610116565b34801561016b57600080fd5b5061017f61017a3660046115f9565b610309565b604051908152602001610116565b34801561019957600080fd5b506101ad6101a8366004611612565b61045d565b005b3480156101bb57600080fd5b506101cf6101ca3660046115f9565b61071e565b6040516101169190611634565b3480156101e857600080fd5b506101ad6101f73660046115f9565b6107b8565b34801561020857600080fd5b506101ad610a9c565b34801561021d57600080fd5b50600254610102906001600160a01b031681565b34801561023d57600080fd5b506000546001600160a01b0316610102565b6101ad61025d3660046115f9565b610ab0565b34801561026e57600080fd5b5061028261027d366004611612565b610c64565b604080516001600160a01b0390941684526020840192909252151590820152606001610116565b3480156102b557600080fd5b506101ad6102c43660046115f9565b610cb3565b3480156102d557600080fd5b506101026102e43660046115f9565b611367565b3480156102f557600080fd5b506101ad6103043660046116ad565b6114d6565b600081815260046020526040812054819015610454576000805b60008581526004602052604090205481101561040257600085815260046020526040902080548391908390811061035c5761035c6116d1565b9060005260206000209060030201600101541180156103b357506000858152600460205260409020805482908110610396576103966116d1565b600091825260209091206002600390920201015460ff1615156001145b156103f05760008581526004602052604090208054829081106103d8576103d86116d1565b90600052602060002090600302016001015491508092505b806103fa816116e7565b915050610323565b506000848152600460205260409020805483908110610423576104236116d1565b600091825260209091206002600390920201015460ff16151560010361044a579392505050565b5060009392505050565b50600092915050565b60015460405163930e79f160e01b8152600481018490526001600160a01b039091169063930e79f190602401602060405180830381865afa1580156104a6573d6000803e3d6000fd5b505050506040513d601f19601f820116820180604052508101906104ca919061170e565b42111561050e5760405162461bcd60e51b815260206004820152600d60248201526c105d58dd1a5bdb88195b991959609a1b60448201526064015b60405180910390fd5b6000828152600460205260409020805433919083908110610531576105316116d1565b60009182526020909120600390910201546001600160a01b031614801561059057506000828152600460205260409020805482908110610573576105736116d1565b600091825260209091206002600390920201015460ff1615156001145b61059957600080fd5b60008281526004602052604081208054839081106105b9576105b96116d1565b60009182526020808320600392909202909101600201805460ff1916931515939093179092558381526004909152604081208054839081106105fd576105fd6116d1565b600091825260208083206003909202909101548583526004909152604090912080546001600160a01b03909216918490811061063b5761063b6116d1565b90600052602060002090600302016001015460405160006040518083038185875af1925050503d806000811461068d576040519150601f19603f3d011682016040523d82523d6000602084013e610692565b606091505b50506000848152600460205260409020805491925090839081106106b8576106b86116d1565b90600052602060002090600302016001015483336001600160a01b03167ff527f72f31596096abd31643a654c97b4bb2f1dc7a31db8dc547800d1951ee8d85856040516107119291909182521515602082015260400190565b60405180910390a4505050565b606060046000838152602001908152602001600020805480602002602001604051908101604052809291908181526020016000905b828210156107ad576000848152602090819020604080516060810182526003860290920180546001600160a01b031683526001808201548486015260029091015460ff161515918301919091529083529092019101610753565b505050509050919050565b60015460405163930e79f160e01b8152600481018390526001600160a01b039091169063930e79f190602401602060405180830381865afa158015610801573d6000803e3d6000fd5b505050506040513d601f19601f82011682018060405250810190610825919061170e565b4211156108645760405162461bcd60e51b815260206004820152600d60248201526c105d58dd1a5bdb88195b991959609a1b6044820152606401610505565b60005b600082815260046020526040902054811015610a985760008281526004602052604090208054339190839081106108a0576108a06116d1565b60009182526020909120600390910201546001600160a01b03161480156108ff575060008281526004602052604090208054829081106108e2576108e26116d1565b600091825260209091206002600390920201015460ff1615156001145b15610a86576000828152600460205260408120805483908110610924576109246116d1565b60009182526020808320600392909202909101600201805460ff191693151593909317909255838152600490915260408120805483908110610968576109686116d1565b600091825260208083206003909202909101548583526004909152604090912080546001600160a01b0390921691849081106109a6576109a66116d1565b90600052602060002090600302016001015460405160006040518083038185875af1925050503d80600081146109f8576040519150601f19603f3d011682016040523d82523d6000602084013e6109fd565b606091505b5050600084815260046020526040902080549192509083908110610a2357610a236116d1565b90600052602060002090600302016001015483336001600160a01b03167ff527f72f31596096abd31643a654c97b4bb2f1dc7a31db8dc547800d1951ee8d8585604051610a7c9291909182521515602082015260400190565b60405180910390a4505b80610a90816116e7565b915050610867565b5050565b610aa461154f565b610aae60006115a9565b565b610ab981610309565b34118015610b33575060015460405163930e79f160e01b8152600481018390526001600160a01b039091169063930e79f190602401602060405180830381865afa158015610b0b573d6000803e3d6000fd5b505050506040513d601f19601f82011682018060405250810190610b2f919061170e565b4211155b8015610bad5750600154604051631dd9714b60e21b8152600481018390526001600160a01b0390911690637765c52c90602401602060405180830381865afa158015610b83573d6000803e3d6000fd5b505050506040513d601f19601f82011682018060405250810190610ba79190611727565b15156001145b610be65760405162461bcd60e51b815260206004820152600a602482015269446f6e2774206b6e6f7760b01b6044820152606401610505565b60408051606081018252338152346020808301918252600183850181815260009687526004835294862080548083018255908752919095209251600390910290920180546001600160a01b0319166001600160a01b039093169290921782555192810192909255516002909101805460ff1916911515919091179055565b60046020528160005260406000208181548110610c8057600080fd5b60009182526020909120600390910201805460018201546002909201546001600160a01b03909116935090915060ff1683565b80639aafc6c960e01b610cc582611367565b6001600160a01b0316336001600160a01b03161480610d61575060025460405163feb2e23360e01b81523360048201526001600160e01b0319831660248201526001600160a01b039091169063feb2e23390604401602060405180830381865afa158015610d37573d6000803e3d6000fd5b505050506040513d601f19601f82011682018060405250810190610d5b9190611727565b15156001145b80610dd9575060025460405163b3076d5560e01b81523360048201526001600160a01b039091169063b3076d5590602401602060405180830381865afa158015610daf573d6000803e3d6000fd5b505050506040513d601f19601f82011682018060405250810190610dd39190611727565b15156001145b610e135760405162461bcd60e51b815260206004820152600b60248201526a139bdd08185b1b1bddd95960aa1b6044820152606401610505565b60015460405163930e79f160e01b8152600481018590526001600160a01b039091169063930e79f190602401602060405180830381865afa158015610e5c573d6000803e3d6000fd5b505050506040513d601f19601f82011682018060405250810190610e80919061170e565b4210158015610e9e575060008381526005602052604090205460ff16155b8015610f185750600154604051631dd9714b60e21b8152600481018590526001600160a01b0390911690637765c52c90602401602060405180830381865afa158015610eee573d6000803e3d6000fd5b505050506040513d601f19601f82011682018060405250810190610f129190611727565b15156001145b610f2157600080fd5b6000838152600560205260408120805460ff19166001179055610f4384610309565b6003546040516331a9108f60e11b8152600481018790529192506000916001600160a01b0390911690636352211e90602401602060405180830381865afa158015610f92573d6000803e3d6000fd5b505050506040513d601f19601f82011682018060405250810190610fb69190611749565b90506000610fc386611367565b905060005b60008781526004602052604090205481101561135e57600087815260046020526040902080546001600160a01b03841691908390811061100a5761100a6116d1565b60009182526020909120600390910201546001600160a01b03161480156110635750600087815260046020526040902080548591908390811061104f5761104f6116d1565b906000526020600020906003020160010154145b80156110a75750600087815260046020526040902080548290811061108a5761108a6116d1565b600091825260209091206002600390920201015460ff1615156001145b156111df57600354604051632142170760e11b81526001600160a01b0385811660048301528481166024830152604482018a9052909116906342842e0e90606401600060405180830381600087803b15801561110257600080fd5b505af1158015611116573d6000803e3d6000fd5b50505050600061112e6000546001600160a01b031690565b6001600160a01b03168560405160006040518083038185875af1925050503d8060008114611178576040519150601f19603f3d011682016040523d82523d6000602084013e61117d565b606091505b5050905084886111956000546001600160a01b031690565b6001600160a01b03167f35fd48bd743c126c68936e337dd48e526b4657c86747bc435165537630f1f312846040516111d1911515815260200190565b60405180910390a45061134c565b60008781526004602052604090208054829081106111ff576111ff6116d1565b600091825260209091206002600390920201015460ff16151560010361134c57600087815260046020526040812080548390811061123f5761123f6116d1565b600091825260208083206003909202909101548a83526004909152604090912080546001600160a01b03909216918490811061127d5761127d6116d1565b90600052602060002090600302016001015460405160006040518083038185875af1925050503d80600081146112cf576040519150601f19603f3d011682016040523d82523d6000602084013e6112d4565b606091505b505090508488600460008b815260200190815260200160002084815481106112fe576112fe6116d1565b60009182526020918290206003909102015460405185151581526001600160a01b03909116917fc4a05148a18292c45c38e0d7055834a3584c56acd80e84acf0642026a2ed5bce91016111d1565b80611356816116e7565b915050610fc8565b50505050505050565b60008080805b6000858152600460205260409020548110156114185760008581526004602052604090208054849190839081106113a6576113a66116d1565b9060005260206000209060030201600101541180156113fd575060008581526004602052604090208054829081106113e0576113e06116d1565b600091825260209091206002600390920201015460ff1615156001145b15611406578091505b80611410816116e7565b91505061136d565b506000848152600460205260409020805482908110611439576114396116d1565b600091825260209091206002600390920201015460ff16151560010361149b576000848152600460205260409020805482908110611479576114796116d1565b60009182526020909120600390910201546001600160a01b0316949350505050565b60405162461bcd60e51b815260206004820152601060248201526f27379020b1ba34bb32902134b23232b960811b6044820152606401610505565b6114de61154f565b6001600160a01b0381166115435760405162461bcd60e51b815260206004820152602660248201527f4f776e61626c653a206e6577206f776e657220697320746865207a65726f206160448201526564647265737360d01b6064820152608401610505565b61154c816115a9565b50565b6000546001600160a01b03163314610aae5760405162461bcd60e51b815260206004820181905260248201527f4f776e61626c653a2063616c6c6572206973206e6f7420746865206f776e65726044820152606401610505565b600080546001600160a01b038381166001600160a01b0319831681178455604051919092169283917f8be0079c531659141344cd1fd0a4f28419497f9722a3daafe3b4186f6b6457e09190a35050565b60006020828403121561160b57600080fd5b5035919050565b6000806040838503121561162557600080fd5b50508035926020909101359150565b602080825282518282018190526000919060409081850190868401855b8281101561168b57815180516001600160a01b03168552868101518786015285015115158585015260609093019290850190600101611651565b5091979650505050505050565b6001600160a01b038116811461154c57600080fd5b6000602082840312156116bf57600080fd5b81356116ca81611698565b9392505050565b634e487b7160e01b600052603260045260246000fd5b60006001820161170757634e487b7160e01b600052601160045260246000fd5b5060010190565b60006020828403121561172057600080fd5b5051919050565b60006020828403121561173957600080fd5b815180151581146116ca57600080fd5b60006020828403121561175b57600080fd5b81516116ca8161169856fea2646970667358221220119c8db2821f06ab77015b0af524ecda291cdc8ce7c39d009a46977f58bdadbf64736f6c63430008150033",
    "linkReferences": {}
  },
  "methodIdentifiers": {
    "adminsContract()": "7e3c9be7",
    "auctionClaim(uint256)": "25ff8080",
    "auctionInfoData(uint256,uint256)": "981c8af9",
    "cancelAllBids(uint256)": "5d5bc347",
    "cancelBid(uint256,uint256)": "4b393605",
    "claimAuction(uint256)": "9aafc6c9",
    "minter()": "07546172",
    "owner()": "8da5cb5b",
    "participateToAuction(uint256)": "926a0944",
    "renounceOwnership()": "715018a6",
    "returnBids(uint256)": "4e8b77b3",
    "returnHighestBid(uint256)": "44290657",
    "returnHighestBidder(uint256)": "c21c9855",
    "transferOwnership(address)": "f2fde38b"
  },
  "id": 15
}