{
  "abi": [
    {
      "inputs": [
        {
          "internalType": "contract AuctionDemo",
          "name": "_auctionDemo",
          "type": "address"
        },
        {
          "internalType": "uint256",
          "name": "_tokenId",
          "type": "uint256"
        }
      ],
      "stateMutability": "nonpayable",
      "type": "constructor"
    },
    {
      "stateMutability": "payable",
      "type": "fallback"
    },
    {
      "inputs": [],
      "name": "attacker",
      "outputs": [
        {
          "internalType": "address",
          "name": "",
          "type": "address"
        }
      ],
      "stateMutability": "view",
      "type": "function"
    },
    {
      "inputs": [],
      "name": "auctionDemo",
      "outputs": [
        {
          "internalType": "contract AuctionDemo",
          "name": "",
          "type": "address"
        }
      ],
      "stateMutability": "view",
      "type": "function"
    },
    {
      "inputs": [],
      "name": "bid",
      "outputs": [],
      "stateMutability": "payable",
      "type": "function"
    },
    {
      "inputs": [],
      "name": "inc",
      "outputs": [
        {
          "internalType": "uint256",
          "name": "",
          "type": "uint256"
        }
      ],
      "stateMutability": "view",
      "type": "function"
    },
    {
      "inputs": [
        {
          "internalType": "address",
          "name": "",
          "type": "address"
        },
        {
          "internalType": "address",
          "name": "",
          "type": "address"
        },
        {
          "internalType": "uint256",
          "name": "",
          "type": "uint256"
        },
        {
          "internalType": "bytes",
          "name": "",
          "type": "bytes"
        }
      ],
      "name": "onERC721Received",
      "outputs": [
        {
          "internalType": "bytes4",
          "name": "",
          "type": "bytes4"
        }
      ],
      "stateMutability": "nonpayable",
      "type": "function"
    },
    {
      "inputs": [],
      "name": "resetInc",
      "outputs": [],
      "stateMutability": "nonpayable",
      "type": "function"
    },
    {
      "inputs": [],
      "name": "tokenId",
      "outputs": [
        {
          "internalType": "uint256",
          "name": "",
          "type": "uint256"
        }
      ],
      "stateMutability": "view",
      "type": "function"
    }
  ],
  "bytecode": {
    "object": "0x60e060405234801561001057600080fd5b5060405161053038038061053083398101604081905261002f91610049565b6001600160a01b0390911660a0523360805260c052610083565b6000806040838503121561005c57600080fd5b82516001600160a01b038116811461007357600080fd5b6020939093015192949293505050565b60805160a05160c0516104696100c76000396000818161010101526102700152600081816101ad015261029601526000818161016101526101f001526104696000f3fe6080604052600436106100705760003560e01c8063371303c01161004e578063371303c01461013957806348eb76ee1461014f5780638bb127a01461019b578063946b09b8146101cf57610070565b8063150b7a02146100a657806317d70f7c146100ef5780631998aeef14610131575b60005b6000198110156100a45760008054908061008c836102fe565b9190505550808061009c906102fe565b915050610073565b005b3480156100b257600080fd5b506100d16100c1366004610357565b630a85bd0160e11b949350505050565b6040516001600160e01b031990911681526020015b60405180910390f35b3480156100fb57600080fd5b506101237f000000000000000000000000000000000000000000000000000000000000000081565b6040519081526020016100e6565b6100a46101e5565b34801561014557600080fd5b5061012360005481565b34801561015b57600080fd5b506101837f000000000000000000000000000000000000000000000000000000000000000081565b6040516001600160a01b0390911681526020016100e6565b3480156101a757600080fd5b506101837f000000000000000000000000000000000000000000000000000000000000000081565b3480156101db57600080fd5b506100a460008055565b336001600160a01b037f000000000000000000000000000000000000000000000000000000000000000016146102615760405162461bcd60e51b815260206004820152601c60248201527f536f7272792c20796f752063616e27742065617420676173205e5f5e00000000604482015260640160405180910390fd5b60405163249a825160e21b81527f000000000000000000000000000000000000000000000000000000000000000060048201527f00000000000000000000000000000000000000000000000000000000000000006001600160a01b03169063926a09449034906024016000604051808303818588803b1580156102e357600080fd5b505af11580156102f7573d6000803e3d6000fd5b5050505050565b60006001820161031e57634e487b7160e01b600052601160045260246000fd5b5060010190565b80356001600160a01b038116811461033c57600080fd5b919050565b634e487b7160e01b600052604160045260246000fd5b6000806000806080858703121561036d57600080fd5b61037685610325565b935061038460208601610325565b925060408501359150606085013567ffffffffffffffff808211156103a857600080fd5b818701915087601f8301126103bc57600080fd5b8135818111156103ce576103ce610341565b604051601f8201601f19908116603f011681019083821181831017156103f6576103f6610341565b816040528281528a602084870101111561040f57600080fd5b8260208601602083013760006020848301015280955050505050509295919450925056fea264697066735822122029a713729b99b4686448f62d4b283ccec7b542fe281a16f83bb190486dbd07b164736f6c63430008130033",
    "linkReferences": {}
  },
  "methodIdentifiers": {
    "attacker()": "48eb76ee",
    "auctionDemo()": "8bb127a0",
    "bid()": "1998aeef",
    "inc()": "371303c0",
    "onERC721Received(address,address,uint256,bytes)": "150b7a02",
    "resetInc()": "946b09b8",
    "tokenId()": "17d70f7c"
  },
  "id": 56
}