{
  "abi": [
    {
      "inputs": [
        {
          "internalType": "address",
          "name": "_gencore",
          "type": "address"
        },
        {
          "internalType": "address",
          "name": "_adminsContract",
          "type": "address"
        },
        {
          "internalType": "address",
          "name": "_arRNG",
          "type": "address"
        }
      ],
      "stateMutability": "nonpayable",
      "type": "constructor"
    },
    {
      "anonymous": false,
      "inputs": [
        {
          "indexed": true,
          "internalType": "address",
          "name": "previousOwner",
          "type": "address"
        },
        {
          "indexed": true,
          "internalType": "address",
          "name": "newOwner",
          "type": "address"
        }
      ],
      "name": "OwnershipTransferred",
      "type": "event"
    },
    {
      "anonymous": false,
      "inputs": [
        {
          "indexed": true,
          "internalType": "address",
          "name": "_add",
          "type": "address"
        },
        {
          "indexed": false,
          "internalType": "bool",
          "name": "status",
          "type": "bool"
        },
        {
          "indexed": true,
          "internalType": "uint256",
          "name": "funds",
          "type": "uint256"
        }
      ],
      "name": "Withdraw",
      "type": "event"
    },
    {
      "inputs": [],
      "name": "arrngController",
      "outputs": [
        {
          "internalType": "contract IArrngController",
          "name": "",
          "type": "address"
        }
      ],
      "stateMutability": "view",
      "type": "function"
    },
    {
      "inputs": [
        {
          "internalType": "uint256",
          "name": "_collectionID",
          "type": "uint256"
        },
        {
          "internalType": "uint256",
          "name": "_mintIndex",
          "type": "uint256"
        },
        {
          "internalType": "uint256",
          "name": "_saltfun_o",
          "type": "uint256"
        }
      ],
      "name": "calculateTokenHash",
      "outputs": [],
      "stateMutability": "nonpayable",
      "type": "function"
    },
    {
      "inputs": [],
      "name": "emergencyWithdraw",
      "outputs": [],
      "stateMutability": "nonpayable",
      "type": "function"
    },
    {
      "inputs": [],
      "name": "gencoreContract",
      "outputs": [
        {
          "internalType": "contract INextGenCore",
          "name": "",
          "type": "address"
        }
      ],
      "stateMutability": "view",
      "type": "function"
    },
    {
      "inputs": [],
      "name": "isRandomizerContract",
      "outputs": [
        {
          "internalType": "bool",
          "name": "",
          "type": "bool"
        }
      ],
      "stateMutability": "view",
      "type": "function"
    },
    {
      "inputs": [],
      "name": "owner",
      "outputs": [
        {
          "internalType": "address",
          "name": "",
          "type": "address"
        }
      ],
      "stateMutability": "view",
      "type": "function"
    },
    {
      "inputs": [
        {
          "internalType": "uint256",
          "name": "arrngRequestId_",
          "type": "uint256"
        },
        {
          "internalType": "uint256[]",
          "name": "randomNumbers_",
          "type": "uint256[]"
        }
      ],
      "name": "receiveRandomness",
      "outputs": [],
      "stateMutability": "payable",
      "type": "function"
    },
    {
      "inputs": [],
      "name": "renounceOwnership",
      "outputs": [],
      "stateMutability": "nonpayable",
      "type": "function"
    },
    {
      "inputs": [
        {
          "internalType": "uint256",
          "name": "tokenid",
          "type": "uint256"
        },
        {
          "internalType": "uint256",
          "name": "_ethRequired",
          "type": "uint256"
        }
      ],
      "name": "requestRandomWords",
      "outputs": [],
      "stateMutability": "payable",
      "type": "function"
    },
    {
      "inputs": [
        {
          "internalType": "uint256",
          "name": "",
          "type": "uint256"
        }
      ],
      "name": "requestToToken",
      "outputs": [
        {
          "internalType": "uint256",
          "name": "",
          "type": "uint256"
        }
      ],
      "stateMutability": "view",
      "type": "function"
    },
    {
      "inputs": [
        {
          "internalType": "uint256",
          "name": "",
          "type": "uint256"
        }
      ],
      "name": "tokenIdToCollection",
      "outputs": [
        {
          "internalType": "uint256",
          "name": "",
          "type": "uint256"
        }
      ],
      "stateMutability": "view",
      "type": "function"
    },
    {
      "inputs": [
        {
          "internalType": "uint256",
          "name": "",
          "type": "uint256"
        }
      ],
      "name": "tokenToRequest",
      "outputs": [
        {
          "internalType": "uint256",
          "name": "",
          "type": "uint256"
        }
      ],
      "stateMutability": "view",
      "type": "function"
    },
    {
      "inputs": [
        {
          "internalType": "address",
          "name": "newOwner",
          "type": "address"
        }
      ],
      "name": "transferOwnership",
      "outputs": [],
      "stateMutability": "nonpayable",
      "type": "function"
    },
    {
      "inputs": [
        {
          "internalType": "address",
          "name": "_newadminsContract",
          "type": "address"
        }
      ],
      "name": "updateAdminContract",
      "outputs": [],
      "stateMutability": "nonpayable",
      "type": "function"
    },
    {
      "inputs": [
        {
          "internalType": "address",
          "name": "_gencore",
          "type": "address"
        }
      ],
      "name": "updateCoreContract",
      "outputs": [],
      "stateMutability": "nonpayable",
      "type": "function"
    },
    {
      "inputs": [
        {
          "internalType": "uint256",
          "name": "_ethRequired",
          "type": "uint256"
        }
      ],
      "name": "updateRNGCost",
      "outputs": [],
      "stateMutability": "nonpayable",
      "type": "function"
    },
    {
      "stateMutability": "payable",
      "type": "receive"
    }
  ],
  "bytecode": {
    "object": "0x60a060405234801561001057600080fd5b5060405161110638038061110683398101604081905261002f916100f0565b6001600160a01b03811660805261004533610084565b50600280546001600160a01b039384166001600160a01b0319918216811790925560038054821690921790915560048054929093169116179055610133565b600080546001600160a01b038381166001600160a01b0319831681178455604051919092169283917f8be0079c531659141344cd1fd0a4f28419497f9722a3daafe3b4186f6b6457e09190a35050565b80516001600160a01b03811681146100eb57600080fd5b919050565b60008060006060848603121561010557600080fd5b61010e846100d4565b925061011c602085016100d4565b915061012a604085016100d4565b90509250925092565b608051610faa61015c6000396000818161026d0152818161036f01526105580152610faa6000f3fe6080604052600436106100f75760003560e01c80638da5cb5b1161008a578063bf1b89d311610059578063bf1b89d3146102bc578063c7b010b0146102dc578063db2e21bc146102fc578063f2fde38b1461031157600080fd5b80638da5cb5b146101fc57806394b8ae9d1461022e5780639d0142751461025b578063aa419ba41461028f57600080fd5b8063388d2c24116100c6578063388d2c241461018b5780634cf0c697146101ab578063715018a6146101c7578063789c6072146101dc57600080fd5b80631370ba38146101035780631b739ef1146101435780632b673a2e1461015857806337f9c70d1461017857600080fd5b366100fe57005b600080fd5b34801561010f57600080fd5b5061013061011e366004610d54565b60016020526000908152604090205481565b6040519081526020015b60405180910390f35b610156610151366004610d6d565b610331565b005b34801561016457600080fd5b50610156610173366004610da4565b610402565b610156610186366004610dc8565b61054d565b34801561019757600080fd5b506101566101a6366004610da4565b6105ff565b3480156101b757600080fd5b506040516001815260200161013a565b3480156101d357600080fd5b506101566107e2565b3480156101e857600080fd5b506101566101f7366004610d54565b6107f6565b34801561020857600080fd5b506000546001600160a01b03165b6040516001600160a01b03909116815260200161013a565b34801561023a57600080fd5b50610130610249366004610d54565b60076020526000908152604090205481565b34801561026757600080fd5b506102167f000000000000000000000000000000000000000000000000000000000000000081565b34801561029b57600080fd5b506101306102aa366004610d54565b60066020526000908152604090205481565b3480156102c857600080fd5b506101566102d7366004610e47565b610911565b3480156102e857600080fd5b50600354610216906001600160a01b031681565b34801561030857600080fd5b50610156610947565b34801561031d57600080fd5b5061015661032c366004610da4565b610b6d565b6002546001600160a01b0316331461034857600080fd5b60405163d4e0f33760e01b8152600160048201523060248201526000906001600160a01b037f0000000000000000000000000000000000000000000000000000000000000000169063d4e0f33790849060440160206040518083038185885af11580156103b9573d6000803e3d6000fd5b50505050506040513d601f19601f820116820180604052508101906103de9190610e73565b60008481526006602090815260408083208490559282526001905220929092555050565b6004805460405163feb2e23360e01b81526315b39d1760e11b926001600160a01b039092169163feb2e2339161043c913391869101610e8c565b602060405180830381865afa158015610459573d6000803e3d6000fd5b505050506040513d601f19601f8201168201806040525081019061047d9190610eaf565b1515600114806104fb57506004805460405163b3076d5560e01b815233928101929092526001600160a01b03169063b3076d5590602401602060405180830381865afa1580156104d1573d6000803e3d6000fd5b505050506040513d601f19601f820116820180604052508101906104f59190610eaf565b15156001145b6105205760405162461bcd60e51b815260040161051790610ed1565b60405180910390fd5b50600280546001600160a01b039092166001600160a01b0319928316811790915560038054909216179055565b336001600160a01b037f000000000000000000000000000000000000000000000000000000000000000016146105bd5760405162461bcd60e51b81526020600482015260156024820152746172726e6720636f6e74726f6c6c6572206f6e6c7960581b6044820152606401610517565b6105fa83838380806020026020016040519081016040528093929190818152602001838360200280828437600092019190915250610be692505050565b505050565b6004805460405163feb2e23360e01b8152630e234b0960e21b926001600160a01b039092169163feb2e23391610639913391869101610e8c565b602060405180830381865afa158015610656573d6000803e3d6000fd5b505050506040513d601f19601f8201168201806040525081019061067a9190610eaf565b1515600114806106f857506004805460405163b3076d5560e01b815233928101929092526001600160a01b03169063b3076d5590602401602060405180830381865afa1580156106ce573d6000803e3d6000fd5b505050506040513d601f19601f820116820180604052508101906106f29190610eaf565b15156001145b6107145760405162461bcd60e51b815260040161051790610ed1565b816001600160a01b0316639068edac6040518163ffffffff1660e01b8152600401602060405180830381865afa158015610752573d6000803e3d6000fd5b505050506040513d601f19601f820116820180604052508101906107769190610eaf565b15156001146107bf5760405162461bcd60e51b815260206004820152601560248201527421b7b73a3930b1ba1034b9903737ba1020b236b4b760591b6044820152606401610517565b50600480546001600160a01b0319166001600160a01b0392909216919091179055565b6107ea610caa565b6107f46000610d04565b565b6004805460405163feb2e23360e01b8152633c4e303960e11b926001600160a01b039092169163feb2e23391610830913391869101610e8c565b602060405180830381865afa15801561084d573d6000803e3d6000fd5b505050506040513d601f19601f820116820180604052508101906108719190610eaf565b1515600114806108ef57506004805460405163b3076d5560e01b815233928101929092526001600160a01b03169063b3076d5590602401602060405180830381865afa1580156108c5573d6000803e3d6000fd5b505050506040513d601f19601f820116820180604052508101906108e99190610eaf565b15156001145b61090b5760405162461bcd60e51b815260040161051790610ed1565b50600555565b6002546001600160a01b0316331461092857600080fd5b60008281526007602052604090208390556005546105fa908390610331565b6004805460405163feb2e23360e01b81526336cb886f60e21b926001600160a01b039092169163feb2e23391610981913391869101610e8c565b602060405180830381865afa15801561099e573d6000803e3d6000fd5b505050506040513d601f19601f820116820180604052508101906109c29190610eaf565b151560011480610a4057506004805460405163b3076d5560e01b815233928101929092526001600160a01b03169063b3076d5590602401602060405180830381865afa158015610a16573d6000803e3d6000fd5b505050506040513d601f19601f82011682018060405250810190610a3a9190610eaf565b15156001145b610a5c5760405162461bcd60e51b815260040161051790610ed1565b6004805460408051638da5cb5b60e01b8152905147936000936001600160a01b031692638da5cb5b92818301926020928290030181865afa158015610aa5573d6000803e3d6000fd5b505050506040513d601f19601f82011682018060405250810190610ac99190610ef6565b90506000816001600160a01b03168360405160006040518083038185875af1925050503d8060008114610b18576040519150601f19603f3d011682016040523d82523d6000602084013e610b1d565b606091505b5050905082336001600160a01b03167f4a48cb98c5be023b78a0b3ec94107a01a0397b2e389d4b5f252aef518e633ec383604051610b5f911515815260200190565b60405180910390a350505050565b610b75610caa565b6001600160a01b038116610bda5760405162461bcd60e51b815260206004820152602660248201527f4f776e61626c653a206e6577206f776e657220697320746865207a65726f206160448201526564647265737360d01b6064820152608401610517565b610be381610d04565b50565b600354600083815260016020818152604080842054808552600783528185205494889052928252516001600160a01b0390941693639cac0f1f939291610c30918791849101610f13565b604051602081830303815290604052610c4890610f4d565b6040516001600160e01b031960e086901b168152600481019390935260248301919091526044820152606401600060405180830381600087803b158015610c8e57600080fd5b505af1158015610ca2573d6000803e3d6000fd5b505050505050565b6000546001600160a01b031633146107f45760405162461bcd60e51b815260206004820181905260248201527f4f776e61626c653a2063616c6c6572206973206e6f7420746865206f776e65726044820152606401610517565b600080546001600160a01b038381166001600160a01b0319831681178455604051919092169283917f8be0079c531659141344cd1fd0a4f28419497f9722a3daafe3b4186f6b6457e09190a35050565b600060208284031215610d6657600080fd5b5035919050565b60008060408385031215610d8057600080fd5b50508035926020909101359150565b6001600160a01b0381168114610be357600080fd5b600060208284031215610db657600080fd5b8135610dc181610d8f565b9392505050565b600080600060408486031215610ddd57600080fd5b83359250602084013567ffffffffffffffff80821115610dfc57600080fd5b818601915086601f830112610e1057600080fd5b813581811115610e1f57600080fd5b8760208260051b8501011115610e3457600080fd5b6020830194508093505050509250925092565b600080600060608486031215610e5c57600080fd5b505081359360208301359350604090920135919050565b600060208284031215610e8557600080fd5b5051919050565b6001600160a01b039290921682526001600160e01b031916602082015260400190565b600060208284031215610ec157600080fd5b81518015158114610dc157600080fd5b6020808252600b908201526a139bdd08185b1b1bddd95960aa1b604082015260600190565b600060208284031215610f0857600080fd5b8151610dc181610d8f565b825160009082906020808701845b83811015610f3d57815185529382019390820190600101610f21565b5050948252509092019392505050565b80516020808301519190811015610f6e576000198160200360031b1b821691505b5091905056fea26469706673582212207049bf9138f7c9759edf7dbe4ac5a6cff2808a37515c38a5bb7a6603db4da16564736f6c63430008130033",
    "linkReferences": {}
  },
  "methodIdentifiers": {
    "arrngController()": "9d014275",
    "calculateTokenHash(uint256,uint256,uint256)": "bf1b89d3",
    "emergencyWithdraw()": "db2e21bc",
    "gencoreContract()": "c7b010b0",
    "isRandomizerContract()": "4cf0c697",
    "owner()": "8da5cb5b",
    "receiveRandomness(uint256,uint256[])": "37f9c70d",
    "renounceOwnership()": "715018a6",
    "requestRandomWords(uint256,uint256)": "1b739ef1",
    "requestToToken(uint256)": "1370ba38",
    "tokenIdToCollection(uint256)": "94b8ae9d",
    "tokenToRequest(uint256)": "aa419ba4",
    "transferOwnership(address)": "f2fde38b",
    "updateAdminContract(address)": "388d2c24",
    "updateCoreContract(address)": "2b673a2e",
    "updateRNGCost(uint256)": "789c6072"
  },
  "id": 29
}