{
  "abi": [
    {
      "inputs": [],
      "stateMutability": "nonpayable",
      "type": "constructor"
    },
    {
      "anonymous": false,
      "inputs": [
        {
          "indexed": true,
          "internalType": "address",
          "name": "previousOwner",
          "type": "address"
        },
        {
          "indexed": true,
          "internalType": "address",
          "name": "newOwner",
          "type": "address"
        }
      ],
      "name": "OwnershipTransferred",
      "type": "event"
    },
    {
      "inputs": [
        {
          "internalType": "address",
          "name": "",
          "type": "address"
        }
      ],
      "name": "adminPermissions",
      "outputs": [
        {
          "internalType": "bool",
          "name": "",
          "type": "bool"
        }
      ],
      "stateMutability": "view",
      "type": "function"
    },
    {
      "inputs": [],
      "name": "isAdminContract",
      "outputs": [
        {
          "internalType": "bool",
          "name": "",
          "type": "bool"
        }
      ],
      "stateMutability": "pure",
      "type": "function"
    },
    {
      "inputs": [],
      "name": "owner",
      "outputs": [
        {
          "internalType": "address",
          "name": "",
          "type": "address"
        }
      ],
      "stateMutability": "view",
      "type": "function"
    },
    {
      "inputs": [
        {
          "internalType": "address",
          "name": "_admin",
          "type": "address"
        },
        {
          "internalType": "bool",
          "name": "_status",
          "type": "bool"
        }
      ],
      "name": "registerAdmin",
      "outputs": [],
      "stateMutability": "nonpayable",
      "type": "function"
    },
    {
      "inputs": [
        {
          "internalType": "address",
          "name": "_address",
          "type": "address"
        },
        {
          "internalType": "bytes4[]",
          "name": "_selector",
          "type": "bytes4[]"
        },
        {
          "internalType": "bool",
          "name": "_status",
          "type": "bool"
        }
      ],
      "name": "registerBatchFunctionAdmin",
      "outputs": [],
      "stateMutability": "nonpayable",
      "type": "function"
    },
    {
      "inputs": [
        {
          "internalType": "uint256",
          "name": "_collectionID",
          "type": "uint256"
        },
        {
          "internalType": "address",
          "name": "_address",
          "type": "address"
        },
        {
          "internalType": "bool",
          "name": "_status",
          "type": "bool"
        }
      ],
      "name": "registerCollectionAdmin",
      "outputs": [],
      "stateMutability": "nonpayable",
      "type": "function"
    },
    {
      "inputs": [
        {
          "internalType": "address",
          "name": "_address",
          "type": "address"
        },
        {
          "internalType": "bytes4",
          "name": "_selector",
          "type": "bytes4"
        },
        {
          "internalType": "bool",
          "name": "_status",
          "type": "bool"
        }
      ],
      "name": "registerFunctionAdmin",
      "outputs": [],
      "stateMutability": "nonpayable",
      "type": "function"
    },
    {
      "inputs": [],
      "name": "renounceOwnership",
      "outputs": [],
      "stateMutability": "nonpayable",
      "type": "function"
    },
    {
      "inputs": [
        {
          "internalType": "address",
          "name": "_address",
          "type": "address"
        },
        {
          "internalType": "uint256",
          "name": "_collectionID",
          "type": "uint256"
        }
      ],
      "name": "retrieveCollectionAdmin",
      "outputs": [
        {
          "internalType": "bool",
          "name": "",
          "type": "bool"
        }
      ],
      "stateMutability": "view",
      "type": "function"
    },
    {
      "inputs": [
        {
          "internalType": "address",
          "name": "_address",
          "type": "address"
        },
        {
          "internalType": "bytes4",
          "name": "_selector",
          "type": "bytes4"
        }
      ],
      "name": "retrieveFunctionAdmin",
      "outputs": [
        {
          "internalType": "bool",
          "name": "",
          "type": "bool"
        }
      ],
      "stateMutability": "view",
      "type": "function"
    },
    {
      "inputs": [
        {
          "internalType": "address",
          "name": "_address",
          "type": "address"
        }
      ],
      "name": "retrieveGlobalAdmin",
      "outputs": [
        {
          "internalType": "bool",
          "name": "",
          "type": "bool"
        }
      ],
      "stateMutability": "view",
      "type": "function"
    },
    {
      "inputs": [
        {
          "internalType": "address",
          "name": "newOwner",
          "type": "address"
        }
      ],
      "name": "transferOwnership",
      "outputs": [],
      "stateMutability": "nonpayable",
      "type": "function"
    }
  ],
  "bytecode": {
    "object": "0x608060405234801561001057600080fd5b5061001a3361003c565b336000908152600160208190526040909120805460ff1916909117905561008c565b600080546001600160a01b038381166001600160a01b0319831681178455604051919092169283917f8be0079c531659141344cd1fd0a4f28419497f9722a3daafe3b4186f6b6457e09190a35050565b6108b48061009b6000396000f3fe608060405234801561001057600080fd5b50600436106100b45760003560e01c8063ad278c1511610071578063ad278c1514610169578063b3076d551461017c578063d21992db146101a8578063e5ad621d146101bb578063f2fde38b146101ce578063feb2e233146101e157600080fd5b80636558aee8146100b9578063715018a61461010757806386868b8a146101115780638da5cb5b146101245780639068edac1461013f57806390a9b86c14610146575b600080fd5b6100f26100c73660046105ee565b6001600160a01b03919091166000908152600260209081526040808320938352929052205460ff1690565b60405190151581526020015b60405180910390f35b61010f610226565b005b61010f61011f366004610628565b61023a565b6000546040516001600160a01b0390911681526020016100fe565b60016100f2565b6100f2610154366004610664565b60016020526000908152604090205460ff1681565b61010f61017736600461069e565b610321565b6100f261018a366004610664565b6001600160a01b031660009081526001602052604090205460ff1690565b61010f6101b63660046106e0565b6103ac565b61010f6101c93660046107bf565b61047c565b61010f6101dc366004610664565b6104af565b6100f26101ef3660046107f2565b6001600160a01b03821660009081526003602090815260408083206001600160e01b03198516845290915290205460ff1692915050565b61022e610528565b6102386000610582565b565b3360009081526001602081905260409091205460ff161515148061026857506000546001600160a01b031633145b61028d5760405162461bcd60e51b81526004016102849061081c565b60405180910390fd5b600083116102e95760405162461bcd60e51b815260206004820152602360248201527f436f6c6c656374696f6e204964206d757374206265206c61726765722074686160448201526206e20360ec1b6064820152608401610284565b6001600160a01b0391909116600090815260026020908152604080832094835293905291909120805460ff1916911515919091179055565b3360009081526001602081905260409091205460ff161515148061034f57506000546001600160a01b031633145b61036b5760405162461bcd60e51b81526004016102849061081c565b6001600160a01b0390921660009081526003602090815260408083206001600160e01b0319909416835292905220805491151560ff19909216919091179055565b3360009081526001602081905260409091205460ff16151514806103da57506000546001600160a01b031633145b6103f65760405162461bcd60e51b81526004016102849061081c565b60005b8251811015610476576001600160a01b0384166000908152600360205260408120845184929086908590811061043157610431610841565b6020908102919091018101516001600160e01b0319168252810191909152604001600020805460ff19169115159190911790558061046e81610857565b9150506103f9565b50505050565b610484610528565b6001600160a01b03919091166000908152600160205260409020805460ff1916911515919091179055565b6104b7610528565b6001600160a01b03811661051c5760405162461bcd60e51b815260206004820152602660248201527f4f776e61626c653a206e6577206f776e657220697320746865207a65726f206160448201526564647265737360d01b6064820152608401610284565b61052581610582565b50565b6000546001600160a01b031633146102385760405162461bcd60e51b815260206004820181905260248201527f4f776e61626c653a2063616c6c6572206973206e6f7420746865206f776e65726044820152606401610284565b600080546001600160a01b038381166001600160a01b0319831681178455604051919092169283917f8be0079c531659141344cd1fd0a4f28419497f9722a3daafe3b4186f6b6457e09190a35050565b80356001600160a01b03811681146105e957600080fd5b919050565b6000806040838503121561060157600080fd5b61060a836105d2565b946020939093013593505050565b803580151581146105e957600080fd5b60008060006060848603121561063d57600080fd5b8335925061064d602085016105d2565b915061065b60408501610618565b90509250925092565b60006020828403121561067657600080fd5b61067f826105d2565b9392505050565b80356001600160e01b0319811681146105e957600080fd5b6000806000606084860312156106b357600080fd5b6106bc846105d2565b925061064d60208501610686565b634e487b7160e01b600052604160045260246000fd5b6000806000606084860312156106f557600080fd5b6106fe846105d2565b925060208085013567ffffffffffffffff8082111561071c57600080fd5b818701915087601f83011261073057600080fd5b813581811115610742576107426106ca565b8060051b604051601f19603f83011681018181108582111715610767576107676106ca565b60405291825284820192508381018501918a83111561078557600080fd5b938501935b828510156107aa5761079b85610686565b8452938501939285019261078a565b80975050505050505061065b60408501610618565b600080604083850312156107d257600080fd5b6107db836105d2565b91506107e960208401610618565b90509250929050565b6000806040838503121561080557600080fd5b61080e836105d2565b91506107e960208401610686565b6020808252600b908201526a139bdd08185b1b1bddd95960aa1b604082015260600190565b634e487b7160e01b600052603260045260246000fd5b60006001820161087757634e487b7160e01b600052601160045260246000fd5b506001019056fea2646970667358221220ee4401c95760c297924acf0c903f259d64b1da82de850bad1179123b5a55705a64736f6c63430008150033",
    "linkReferences": {}
  },
  "methodIdentifiers": {
    "adminPermissions(address)": "90a9b86c",
    "isAdminContract()": "9068edac",
    "owner()": "8da5cb5b",
    "registerAdmin(address,bool)": "e5ad621d",
    "registerBatchFunctionAdmin(address,bytes4[],bool)": "d21992db",
    "registerCollectionAdmin(uint256,address,bool)": "86868b8a",
    "registerFunctionAdmin(address,bytes4,bool)": "ad278c15",
    "renounceOwnership()": "715018a6",
    "retrieveCollectionAdmin(address,uint256)": "6558aee8",
    "retrieveFunctionAdmin(address,bytes4)": "feb2e233",
    "retrieveGlobalAdmin(address)": "b3076d55",
    "transferOwnership(address)": "f2fde38b"
  },
  "id": 23
}