{
  "abi": [
    {
      "inputs": [],
      "stateMutability": "nonpayable",
      "type": "constructor"
    },
    {
      "anonymous": false,
      "inputs": [
        {
          "indexed": true,
          "internalType": "address",
          "name": "from",
          "type": "address"
        },
        {
          "indexed": true,
          "internalType": "address",
          "name": "collectionAddress",
          "type": "address"
        },
        {
          "indexed": true,
          "internalType": "address",
          "name": "delegationAddress",
          "type": "address"
        },
        {
          "indexed": false,
          "internalType": "uint256",
          "name": "useCase",
          "type": "uint256"
        },
        {
          "indexed": false,
          "internalType": "bool",
          "name": "allTokens",
          "type": "bool"
        },
        {
          "indexed": false,
          "internalType": "uint256",
          "name": "_tokenId",
          "type": "uint256"
        }
      ],
      "name": "RegisterDelegation",
      "type": "event"
    },
    {
      "anonymous": false,
      "inputs": [
        {
          "indexed": true,
          "internalType": "address",
          "name": "delegator",
          "type": "address"
        },
        {
          "indexed": false,
          "internalType": "address",
          "name": "from",
          "type": "address"
        },
        {
          "indexed": true,
          "internalType": "address",
          "name": "collectionAddress",
          "type": "address"
        },
        {
          "indexed": true,
          "internalType": "address",
          "name": "delegationAddress",
          "type": "address"
        },
        {
          "indexed": false,
          "internalType": "uint256",
          "name": "useCase",
          "type": "uint256"
        },
        {
          "indexed": false,
          "internalType": "bool",
          "name": "allTokens",
          "type": "bool"
        },
        {
          "indexed": false,
          "internalType": "uint256",
          "name": "_tokenId",
          "type": "uint256"
        }
      ],
      "name": "RegisterDelegationUsingSubDelegation",
      "type": "event"
    },
    {
      "anonymous": false,
      "inputs": [
        {
          "indexed": true,
          "internalType": "address",
          "name": "from",
          "type": "address"
        },
        {
          "indexed": true,
          "internalType": "address",
          "name": "collectionAddress",
          "type": "address"
        },
        {
          "indexed": true,
          "internalType": "address",
          "name": "delegationAddress",
          "type": "address"
        },
        {
          "indexed": false,
          "internalType": "uint256",
          "name": "useCase",
          "type": "uint256"
        }
      ],
      "name": "RevokeDelegation",
      "type": "event"
    },
    {
      "anonymous": false,
      "inputs": [
        {
          "indexed": true,
          "internalType": "address",
          "name": "delegator",
          "type": "address"
        },
        {
          "indexed": false,
          "internalType": "address",
          "name": "from",
          "type": "address"
        },
        {
          "indexed": true,
          "internalType": "address",
          "name": "collectionAddress",
          "type": "address"
        },
        {
          "indexed": true,
          "internalType": "address",
          "name": "delegationAddress",
          "type": "address"
        },
        {
          "indexed": false,
          "internalType": "uint256",
          "name": "useCase",
          "type": "uint256"
        }
      ],
      "name": "RevokeDelegationUsingSubDelegation",
      "type": "event"
    },
    {
      "anonymous": false,
      "inputs": [
        {
          "indexed": true,
          "internalType": "address",
          "name": "from",
          "type": "address"
        },
        {
          "indexed": true,
          "internalType": "address",
          "name": "collectionAddress",
          "type": "address"
        },
        {
          "indexed": false,
          "internalType": "address",
          "name": "olddelegationAddress",
          "type": "address"
        },
        {
          "indexed": true,
          "internalType": "address",
          "name": "newdelegationAddress",
          "type": "address"
        },
        {
          "indexed": false,
          "internalType": "uint256",
          "name": "useCase",
          "type": "uint256"
        },
        {
          "indexed": false,
          "internalType": "bool",
          "name": "allTokens",
          "type": "bool"
        },
        {
          "indexed": false,
          "internalType": "uint256",
          "name": "_tokenId",
          "type": "uint256"
        }
      ],
      "name": "UpdateDelegation",
      "type": "event"
    },
    {
      "inputs": [
        {
          "internalType": "address[]",
          "name": "_collectionAddresses",
          "type": "address[]"
        },
        {
          "internalType": "address[]",
          "name": "_delegationAddresses",
          "type": "address[]"
        },
        {
          "internalType": "uint256[]",
          "name": "_expiryDates",
          "type": "uint256[]"
        },
        {
          "internalType": "uint256[]",
          "name": "_useCases",
          "type": "uint256[]"
        },
        {
          "internalType": "bool[]",
          "name": "_allTokens",
          "type": "bool[]"
        },
        {
          "internalType": "uint256[]",
          "name": "_tokenIds",
          "type": "uint256[]"
        }
      ],
      "name": "batchDelegations",
      "outputs": [],
      "stateMutability": "nonpayable",
      "type": "function"
    },
    {
      "inputs": [
        {
          "internalType": "address[]",
          "name": "_collectionAddresses",
          "type": "address[]"
        },
        {
          "internalType": "address[]",
          "name": "_delegationAddresses",
          "type": "address[]"
        },
        {
          "internalType": "uint256[]",
          "name": "_useCases",
          "type": "uint256[]"
        }
      ],
      "name": "batchRevocations",
      "outputs": [],
      "stateMutability": "nonpayable",
      "type": "function"
    },
    {
      "inputs": [
        {
          "internalType": "address",
          "name": "_wallet1",
          "type": "address"
        },
        {
          "internalType": "address",
          "name": "_wallet2",
          "type": "address"
        },
        {
          "internalType": "address",
          "name": "_collectionAddress",
          "type": "address"
        }
      ],
      "name": "checkConsolidationStatus",
      "outputs": [
        {
          "internalType": "bool",
          "name": "",
          "type": "bool"
        }
      ],
      "stateMutability": "view",
      "type": "function"
    },
    {
      "inputs": [
        {
          "internalType": "bytes32",
          "name": "",
          "type": "bytes32"
        }
      ],
      "name": "collectionLock",
      "outputs": [
        {
          "internalType": "bool",
          "name": "",
          "type": "bool"
        }
      ],
      "stateMutability": "view",
      "type": "function"
    },
    {
      "inputs": [
        {
          "internalType": "bytes32",
          "name": "",
          "type": "bytes32"
        }
      ],
      "name": "collectionUsecaseLock",
      "outputs": [
        {
          "internalType": "bool",
          "name": "",
          "type": "bool"
        }
      ],
      "stateMutability": "view",
      "type": "function"
    },
    {
      "inputs": [
        {
          "internalType": "bytes32",
          "name": "",
          "type": "bytes32"
        },
        {
          "internalType": "uint256",
          "name": "",
          "type": "uint256"
        }
      ],
      "name": "delegationAddressHashes",
      "outputs": [
        {
          "internalType": "address",
          "name": "",
          "type": "address"
        }
      ],
      "stateMutability": "view",
      "type": "function"
    },
    {
      "inputs": [
        {
          "internalType": "bytes32",
          "name": "",
          "type": "bytes32"
        },
        {
          "internalType": "uint256",
          "name": "",
          "type": "uint256"
        }
      ],
      "name": "delegatorHashes",
      "outputs": [
        {
          "internalType": "address",
          "name": "",
          "type": "address"
        }
      ],
      "stateMutability": "view",
      "type": "function"
    },
    {
      "inputs": [
        {
          "internalType": "bytes32",
          "name": "",
          "type": "bytes32"
        },
        {
          "internalType": "uint256",
          "name": "",
          "type": "uint256"
        }
      ],
      "name": "globalDelegationHashes",
      "outputs": [
        {
          "internalType": "address",
          "name": "delegatorAddress",
          "type": "address"
        },
        {
          "internalType": "address",
          "name": "delegationAddress",
          "type": "address"
        },
        {
          "internalType": "uint256",
          "name": "registeredDate",
          "type": "uint256"
        },
        {
          "internalType": "uint256",
          "name": "expiryDate",
          "type": "uint256"
        },
        {
          "internalType": "bool",
          "name": "allTokens",
          "type": "bool"
        },
        {
          "internalType": "uint256",
          "name": "tokens",
          "type": "uint256"
        }
      ],
      "stateMutability": "view",
      "type": "function"
    },
    {
      "inputs": [
        {
          "internalType": "address",
          "name": "",
          "type": "address"
        }
      ],
      "name": "globalLock",
      "outputs": [
        {
          "internalType": "bool",
          "name": "",
          "type": "bool"
        }
      ],
      "stateMutability": "view",
      "type": "function"
    },
    {
      "inputs": [
        {
          "internalType": "address",
          "name": "_collectionAddress",
          "type": "address"
        },
        {
          "internalType": "address",
          "name": "_delegationAddress",
          "type": "address"
        },
        {
          "internalType": "uint256",
          "name": "_expiryDate",
          "type": "uint256"
        },
        {
          "internalType": "uint256",
          "name": "_useCase",
          "type": "uint256"
        },
        {
          "internalType": "bool",
          "name": "_allTokens",
          "type": "bool"
        },
        {
          "internalType": "uint256",
          "name": "_tokenId",
          "type": "uint256"
        }
      ],
      "name": "registerDelegationAddress",
      "outputs": [],
      "stateMutability": "nonpayable",
      "type": "function"
    },
    {
      "inputs": [
        {
          "internalType": "address",
          "name": "_delegatorAddress",
          "type": "address"
        },
        {
          "internalType": "address",
          "name": "_collectionAddress",
          "type": "address"
        },
        {
          "internalType": "address",
          "name": "_delegationAddress",
          "type": "address"
        },
        {
          "internalType": "uint256",
          "name": "_expiryDate",
          "type": "uint256"
        },
        {
          "internalType": "uint256",
          "name": "_useCase",
          "type": "uint256"
        },
        {
          "internalType": "bool",
          "name": "_allTokens",
          "type": "bool"
        },
        {
          "internalType": "uint256",
          "name": "_tokenId",
          "type": "uint256"
        }
      ],
      "name": "registerDelegationAddressUsingSubDelegation",
      "outputs": [],
      "stateMutability": "nonpayable",
      "type": "function"
    },
    {
      "inputs": [
        {
          "internalType": "address",
          "name": "_delegatorAddress",
          "type": "address"
        },
        {
          "internalType": "address",
          "name": "_collectionAddress",
          "type": "address"
        },
        {
          "internalType": "uint256",
          "name": "_date",
          "type": "uint256"
        },
        {
          "internalType": "uint256",
          "name": "_useCase",
          "type": "uint256"
        }
      ],
      "name": "retrieveActiveDelegations",
      "outputs": [
        {
          "internalType": "address[]",
          "name": "",
          "type": "address[]"
        }
      ],
      "stateMutability": "view",
      "type": "function"
    },
    {
      "inputs": [
        {
          "internalType": "address",
          "name": "_delegationAddress",
          "type": "address"
        },
        {
          "internalType": "address",
          "name": "_collectionAddress",
          "type": "address"
        },
        {
          "internalType": "uint256",
          "name": "_date",
          "type": "uint256"
        },
        {
          "internalType": "uint256",
          "name": "_useCase",
          "type": "uint256"
        }
      ],
      "name": "retrieveActiveDelegators",
      "outputs": [
        {
          "internalType": "address[]",
          "name": "",
          "type": "address[]"
        }
      ],
      "stateMutability": "view",
      "type": "function"
    },
    {
      "inputs": [
        {
          "internalType": "address",
          "name": "_collectionAddress",
          "type": "address"
        },
        {
          "internalType": "address",
          "name": "_delegationAddress",
          "type": "address"
        }
      ],
      "name": "retrieveCollectionLockStatus",
      "outputs": [
        {
          "internalType": "bool",
          "name": "",
          "type": "bool"
        }
      ],
      "stateMutability": "view",
      "type": "function"
    },
    {
      "inputs": [
        {
          "internalType": "address",
          "name": "_collectionAddress",
          "type": "address"
        },
        {
          "internalType": "address",
          "name": "_delegationAddress",
          "type": "address"
        },
        {
          "internalType": "uint256",
          "name": "_useCase",
          "type": "uint256"
        }
      ],
      "name": "retrieveCollectionUseCaseLockStatus",
      "outputs": [
        {
          "internalType": "bool",
          "name": "",
          "type": "bool"
        }
      ],
      "stateMutability": "view",
      "type": "function"
    },
    {
      "inputs": [
        {
          "internalType": "address",
          "name": "_collectionAddress",
          "type": "address"
        },
        {
          "internalType": "address",
          "name": "_delegationAddress",
          "type": "address"
        },
        {
          "internalType": "uint256",
          "name": "_useCase",
          "type": "uint256"
        }
      ],
      "name": "retrieveCollectionUseCaseLockStatusOneCall",
      "outputs": [
        {
          "internalType": "bool",
          "name": "",
          "type": "bool"
        }
      ],
      "stateMutability": "view",
      "type": "function"
    },
    {
      "inputs": [
        {
          "internalType": "address",
          "name": "_delegationAddress",
          "type": "address"
        },
        {
          "internalType": "address",
          "name": "_collectionAddress",
          "type": "address"
        },
        {
          "internalType": "uint256",
          "name": "_useCase",
          "type": "uint256"
        }
      ],
      "name": "retrieveDelegationAddressStatusOfDelegation",
      "outputs": [
        {
          "internalType": "bool",
          "name": "",
          "type": "bool"
        }
      ],
      "stateMutability": "view",
      "type": "function"
    },
    {
      "inputs": [
        {
          "internalType": "address",
          "name": "_delegatorAddress",
          "type": "address"
        },
        {
          "internalType": "address",
          "name": "_collectionAddress",
          "type": "address"
        },
        {
          "internalType": "uint256",
          "name": "_useCase",
          "type": "uint256"
        }
      ],
      "name": "retrieveDelegationAddresses",
      "outputs": [
        {
          "internalType": "address[]",
          "name": "",
          "type": "address[]"
        }
      ],
      "stateMutability": "view",
      "type": "function"
    },
    {
      "inputs": [
        {
          "internalType": "address",
          "name": "_delegatorAddress",
          "type": "address"
        },
        {
          "internalType": "address",
          "name": "_collectionAddress",
          "type": "address"
        },
        {
          "internalType": "uint256",
          "name": "_useCase",
          "type": "uint256"
        }
      ],
      "name": "retrieveDelegationAddressesTokensIDsandExpiredDates",
      "outputs": [
        {
          "internalType": "address[]",
          "name": "",
          "type": "address[]"
        },
        {
          "internalType": "uint256[]",
          "name": "",
          "type": "uint256[]"
        },
        {
          "internalType": "bool[]",
          "name": "",
          "type": "bool[]"
        },
        {
          "internalType": "uint256[]",
          "name": "",
          "type": "uint256[]"
        }
      ],
      "stateMutability": "view",
      "type": "function"
    },
    {
      "inputs": [
        {
          "internalType": "address",
          "name": "_delegatorAddress",
          "type": "address"
        },
        {
          "internalType": "address",
          "name": "_collectionAddress",
          "type": "address"
        },
        {
          "internalType": "uint256",
          "name": "_useCase",
          "type": "uint256"
        }
      ],
      "name": "retrieveDelegatorStatusOfDelegation",
      "outputs": [
        {
          "internalType": "bool",
          "name": "",
          "type": "bool"
        }
      ],
      "stateMutability": "view",
      "type": "function"
    },
    {
      "inputs": [
        {
          "internalType": "address",
          "name": "_delegationAddress",
          "type": "address"
        },
        {
          "internalType": "address",
          "name": "_collectionAddress",
          "type": "address"
        },
        {
          "internalType": "uint256",
          "name": "_useCase",
          "type": "uint256"
        }
      ],
      "name": "retrieveDelegators",
      "outputs": [
        {
          "internalType": "address[]",
          "name": "",
          "type": "address[]"
        }
      ],
      "stateMutability": "view",
      "type": "function"
    },
    {
      "inputs": [
        {
          "internalType": "address",
          "name": "_delegationAddress",
          "type": "address"
        },
        {
          "internalType": "address",
          "name": "_collectionAddress",
          "type": "address"
        },
        {
          "internalType": "uint256",
          "name": "_useCase",
          "type": "uint256"
        }
      ],
      "name": "retrieveDelegatorsTokensIDsandExpiredDates",
      "outputs": [
        {
          "internalType": "address[]",
          "name": "",
          "type": "address[]"
        },
        {
          "internalType": "uint256[]",
          "name": "",
          "type": "uint256[]"
        },
        {
          "internalType": "bool[]",
          "name": "",
          "type": "bool[]"
        },
        {
          "internalType": "uint256[]",
          "name": "",
          "type": "uint256[]"
        }
      ],
      "stateMutability": "view",
      "type": "function"
    },
    {
      "inputs": [
        {
          "internalType": "address",
          "name": "_delegatorAddress",
          "type": "address"
        },
        {
          "internalType": "address",
          "name": "_collectionAddress",
          "type": "address"
        },
        {
          "internalType": "address",
          "name": "_delegationAddress",
          "type": "address"
        },
        {
          "internalType": "uint256",
          "name": "_useCase",
          "type": "uint256"
        }
      ],
      "name": "retrieveGlobalHash",
      "outputs": [
        {
          "internalType": "bytes32",
          "name": "",
          "type": "bytes32"
        }
      ],
      "stateMutability": "pure",
      "type": "function"
    },
    {
      "inputs": [
        {
          "internalType": "address",
          "name": "_delegationAddress",
          "type": "address"
        }
      ],
      "name": "retrieveGlobalLockStatus",
      "outputs": [
        {
          "internalType": "bool",
          "name": "",
          "type": "bool"
        }
      ],
      "stateMutability": "view",
      "type": "function"
    },
    {
      "inputs": [
        {
          "internalType": "address",
          "name": "_delegatorAddress",
          "type": "address"
        },
        {
          "internalType": "address",
          "name": "_collectionAddress",
          "type": "address"
        },
        {
          "internalType": "address",
          "name": "_delegationAddress",
          "type": "address"
        },
        {
          "internalType": "uint256",
          "name": "_useCase",
          "type": "uint256"
        }
      ],
      "name": "retrieveGlobalStatusOfDelegation",
      "outputs": [
        {
          "internalType": "bool",
          "name": "",
          "type": "bool"
        }
      ],
      "stateMutability": "view",
      "type": "function"
    },
    {
      "inputs": [
        {
          "internalType": "address",
          "name": "_walletAddress",
          "type": "address"
        },
        {
          "internalType": "address",
          "name": "_collectionAddress",
          "type": "address"
        },
        {
          "internalType": "uint256",
          "name": "_useCase",
          "type": "uint256"
        }
      ],
      "name": "retrieveLocalHash",
      "outputs": [
        {
          "internalType": "bytes32",
          "name": "",
          "type": "bytes32"
        }
      ],
      "stateMutability": "pure",
      "type": "function"
    },
    {
      "inputs": [
        {
          "internalType": "address",
          "name": "_delegatorAddress",
          "type": "address"
        },
        {
          "internalType": "address",
          "name": "_collectionAddress",
          "type": "address"
        },
        {
          "internalType": "uint256",
          "name": "_useCase",
          "type": "uint256"
        }
      ],
      "name": "retrieveMostRecentDelegation",
      "outputs": [
        {
          "internalType": "address",
          "name": "",
          "type": "address"
        }
      ],
      "stateMutability": "view",
      "type": "function"
    },
    {
      "inputs": [
        {
          "internalType": "address",
          "name": "_delegationAddress",
          "type": "address"
        },
        {
          "internalType": "address",
          "name": "_collectionAddress",
          "type": "address"
        },
        {
          "internalType": "uint256",
          "name": "_useCase",
          "type": "uint256"
        }
      ],
      "name": "retrieveMostRecentDelegator",
      "outputs": [
        {
          "internalType": "address",
          "name": "",
          "type": "address"
        }
      ],
      "stateMutability": "view",
      "type": "function"
    },
    {
      "inputs": [
        {
          "internalType": "address",
          "name": "_delegatorAddress",
          "type": "address"
        },
        {
          "internalType": "address",
          "name": "_collectionAddress",
          "type": "address"
        },
        {
          "internalType": "address",
          "name": "_delegationAddress",
          "type": "address"
        },
        {
          "internalType": "uint256",
          "name": "_date",
          "type": "uint256"
        },
        {
          "internalType": "uint256",
          "name": "_useCase",
          "type": "uint256"
        }
      ],
      "name": "retrieveStatusOfActiveDelegator",
      "outputs": [
        {
          "internalType": "bool",
          "name": "",
          "type": "bool"
        }
      ],
      "stateMutability": "view",
      "type": "function"
    },
    {
      "inputs": [
        {
          "internalType": "address",
          "name": "_delegatorAddress",
          "type": "address"
        },
        {
          "internalType": "address",
          "name": "_collectionAddress",
          "type": "address"
        },
        {
          "internalType": "address",
          "name": "_delegationAddress",
          "type": "address"
        },
        {
          "internalType": "uint256",
          "name": "_useCase",
          "type": "uint256"
        }
      ],
      "name": "retrieveStatusOfMostRecentDelegation",
      "outputs": [
        {
          "internalType": "bool",
          "name": "",
          "type": "bool"
        }
      ],
      "stateMutability": "view",
      "type": "function"
    },
    {
      "inputs": [
        {
          "internalType": "address",
          "name": "_delegatorAddress",
          "type": "address"
        },
        {
          "internalType": "address",
          "name": "_collectionAddress",
          "type": "address"
        },
        {
          "internalType": "address",
          "name": "_delegationAddress",
          "type": "address"
        }
      ],
      "name": "retrieveSubDelegationStatus",
      "outputs": [
        {
          "internalType": "bool",
          "name": "",
          "type": "bool"
        }
      ],
      "stateMutability": "view",
      "type": "function"
    },
    {
      "inputs": [
        {
          "internalType": "address",
          "name": "_delegatorAddress",
          "type": "address"
        },
        {
          "internalType": "address",
          "name": "_collectionAddress",
          "type": "address"
        },
        {
          "internalType": "address",
          "name": "_delegationAddress",
          "type": "address"
        },
        {
          "internalType": "uint256",
          "name": "_useCase",
          "type": "uint256"
        },
        {
          "internalType": "uint256",
          "name": "_tokenId",
          "type": "uint256"
        }
      ],
      "name": "retrieveTokenStatus",
      "outputs": [
        {
          "internalType": "bool",
          "name": "",
          "type": "bool"
        }
      ],
      "stateMutability": "view",
      "type": "function"
    },
    {
      "inputs": [
        {
          "internalType": "address",
          "name": "_collectionAddress",
          "type": "address"
        },
        {
          "internalType": "address",
          "name": "_delegationAddress",
          "type": "address"
        },
        {
          "internalType": "uint256",
          "name": "_useCase",
          "type": "uint256"
        }
      ],
      "name": "revokeDelegationAddress",
      "outputs": [],
      "stateMutability": "nonpayable",
      "type": "function"
    },
    {
      "inputs": [
        {
          "internalType": "address",
          "name": "_delegatorAddress",
          "type": "address"
        },
        {
          "internalType": "address",
          "name": "_collectionAddress",
          "type": "address"
        },
        {
          "internalType": "address",
          "name": "_delegationAddress",
          "type": "address"
        },
        {
          "internalType": "uint256",
          "name": "_useCase",
          "type": "uint256"
        }
      ],
      "name": "revokeDelegationAddressUsingSubdelegation",
      "outputs": [],
      "stateMutability": "nonpayable",
      "type": "function"
    },
    {
      "inputs": [
        {
          "internalType": "address",
          "name": "_collectionAddress",
          "type": "address"
        },
        {
          "internalType": "bool",
          "name": "_status",
          "type": "bool"
        }
      ],
      "name": "setCollectionLock",
      "outputs": [],
      "stateMutability": "nonpayable",
      "type": "function"
    },
    {
      "inputs": [
        {
          "internalType": "address",
          "name": "_collectionAddress",
          "type": "address"
        },
        {
          "internalType": "uint256",
          "name": "_useCase",
          "type": "uint256"
        },
        {
          "internalType": "bool",
          "name": "_status",
          "type": "bool"
        }
      ],
      "name": "setCollectionUsecaseLock",
      "outputs": [],
      "stateMutability": "nonpayable",
      "type": "function"
    },
    {
      "inputs": [
        {
          "internalType": "bool",
          "name": "_status",
          "type": "bool"
        }
      ],
      "name": "setGlobalLock",
      "outputs": [],
      "stateMutability": "nonpayable",
      "type": "function"
    },
    {
      "inputs": [
        {
          "internalType": "address",
          "name": "_collectionAddress",
          "type": "address"
        },
        {
          "internalType": "address",
          "name": "_olddelegationAddress",
          "type": "address"
        },
        {
          "internalType": "address",
          "name": "_newdelegationAddress",
          "type": "address"
        },
        {
          "internalType": "uint256",
          "name": "_expiryDate",
          "type": "uint256"
        },
        {
          "internalType": "uint256",
          "name": "_useCase",
          "type": "uint256"
        },
        {
          "internalType": "bool",
          "name": "_allTokens",
          "type": "bool"
        },
        {
          "internalType": "uint256",
          "name": "_tokenId",
          "type": "uint256"
        }
      ],
      "name": "updateDelegationAddress",
      "outputs": [],
      "stateMutability": "nonpayable",
      "type": "function"
    },
    {
      "inputs": [],
      "name": "updateUseCaseCounter",
      "outputs": [],
      "stateMutability": "nonpayable",
      "type": "function"
    },
    {
      "inputs": [],
      "name": "useCaseCounter",
      "outputs": [
        {
          "internalType": "uint256",
          "name": "",
          "type": "uint256"
        }
      ],
      "stateMutability": "view",
      "type": "function"
    }
  ],
  "bytecode": {
    "object": "0x608060405234801561001057600080fd5b506103e760005561511e806100266000396000f3fe608060405234801561001057600080fd5b50600436106102485760003560e01c80637d20ab741161013b578063ccc4f4a4116100b8578063ea63eedc1161007c578063ea63eedc146105a0578063ec0c95ee146105b3578063ec699beb146105d6578063f5b986df14610602578063f793b96e1461061557600080fd5b8063ccc4f4a41461053c578063d141baae14610544578063d6a0a3d514610567578063d986ff6d1461057a578063db1432391461058d57600080fd5b80639bccd56c116100ff5780639bccd56c146104cd578063a4fa0303146104e0578063aa3e650a146104f3578063b2f60eec14610506578063c7cc4bb41461052957600080fd5b80637d20ab741461046a5780637ed01e121461048b5780637f1a2fdf1461049e578063850e8e06146104a75780638bb60cb6146104ba57600080fd5b806346edce67116101c957806366ff484d1161018d57806366ff484d1461040b5780636cfcae201461041e5780636ff565131461043157806373aedfff14610444578063782740d51461045757600080fd5b806346edce67146103625780634b1fe249146103af5780634b402f27146103d25780635d44c776146103e55780635e5b57a2146103f857600080fd5b80632c96e0d9116102105780632c96e0d9146102e8578063319a9395146102fb5780633465ef111461032957806336ddecfb1461033c5780633b9959521461034f57600080fd5b8063155424001461024d57806316eca9931461027d57806322b613ef146102a0578063234dd639146102c05780632a243ce7146102d3575b600080fd5b61026061025b366004614889565b610628565b6040516001600160a01b0390911681526020015b60405180910390f35b61029061028b3660046148c7565b610660565b6040519015158152602001610274565b6102b36102ae36600461491c565b61076b565b604051610274919061499c565b6102906102ce3660046148c7565b610805565b6102e66102e13660046149bf565b610874565b005b6102906102f636600461491c565b610d9b565b6102e6610309366004614a1e565b336000908152600460205260409020805460ff1916911515919091179055565b61026061033736600461491c565b610de3565b61029061034a36600461491c565b6112af565b61029061035d36600461491c565b6112fa565b610375610370366004614889565b611342565b604080516001600160a01b0397881681529690951660208701529385019290925260608401521515608083015260a082015260c001610274565b6103c26103bd36600461491c565b6113a5565b6040516102749493929190614a69565b6102e66103e0366004614ae7565b61197c565b6102906103f3366004614b58565b611fcf565b610290610406366004614b8b565b612064565b6102e661041936600461491c565b6120f1565b6102b361042c36600461491c565b612704565b61029061043f36600461491c565b61279b565b61026061045236600461491c565b6127f7565b610290610465366004614bce565b612ca7565b61047d61047836600461491c565b612cd3565b604051908152602001610274565b6102e6610499366004614bce565b612d0c565b61047d60005481565b6102e66104b5366004614ae7565b61343b565b6102906104c8366004614b8b565b6134b8565b6102e66104db366004614db1565b6135ce565b6102e66104ee366004614ea5565b613694565b6103c261050136600461491c565b6136fa565b610290610514366004614ed8565b60056020526000908152604090205460ff1681565b6102b3610537366004614ef1565b613c7c565b6102e661417b565b610290610552366004614ed8565b60066020526000908152604090205460ff1681565b6102e6610575366004614f33565b61418e565b610290610588366004614bce565b61421e565b61026061059b366004614889565b614269565b6102b36105ae366004614ef1565b614285565b6102906105c1366004614f5d565b60046020526000908152604090205460ff1681565b6102906105e4366004614f5d565b6001600160a01b031660009081526004602052604090205460ff1690565b61047d610610366004614bce565b61475a565b6102e6610623366004614f78565b614796565b6001602052816000526040600020818154811061064457600080fd5b6000918252602090912001546001600160a01b03169150829050565b6000808686868660405160200161067a9493929190614fff565b60408051601f19818403018152918152815160209283012060008181526003909352908220549092501561075b5760005b6000838152600360205260409020548110156107515760008381526003602052604090208054829081106106e1576106e1615035565b600091825260209091206004600690920201015460ff161580156107375750600083815260036020526040902080548691908390811061072357610723615035565b906000526020600020906006020160050154145b156107455760019150610751565b600091506001016106ab565b5091506107629050565b6000925050505b95945050505050565b606060008484846040516020016107849392919061504b565b60408051601f19818403018152828252805160209182012060008181526001835283902080548084028601840190945283855290945091908301828280156107f557602002820191906000526020600020905b81546001600160a01b031681526001909101906020018083116107d7575b50505050509150505b9392505050565b60008061081485878686613c7c565b90506000808251111561075b5760005b82518110156107515782818151811061083f5761083f615035565b60200260200101516001600160a01b0316896001600160a01b0316036108685760019150610751565b60009150600101610824565b60008311801561088657506000548311155b61088f57600080fd5b6000806000806000808b8b6040516020016108ab929190615074565b6040516020818303038152906040528051906020012092508b8b8a6040516020016108d89392919061504b565b6040516020818303038152906040528051906020012091507388888888888888888888888888888888888888888b8a6040516020016109199392919061504b565b60408051601f1981840301815291815281516020928301206001600160a01b038e166000908152600490935291205490915060ff161561095857600080fd5b60008381526005602052604090205460ff161561097457600080fd5b60008281526006602052604090205460ff161561099057600080fd5b60008181526006602052604090205460ff16156109ac57600080fd5b338c8c8b6040516020016109c39493929190614fff565b604051602081830303815290604052805190602001209350338c8a6040516020016109f09392919061504b565b6040516020818303038152906040528051906020012095508a8c8a604051602001610a1d9392919061504b565b604051602081830303815290604052805190602001209450600160008781526020019081526020016000208b9080600181540180825580915050600190039060005260206000200160009091909190916101000a8154816001600160a01b0302191690836001600160a01b0316021790555060026000868152602001908152602001600020339080600181540180825580915050600190039060005260206000200160009091909190916101000a8154816001600160a01b0302191690836001600160a01b031602179055508715156001151503610c195760006040518060c00160405280336001600160a01b031681526020018d6001600160a01b031681526020014281526020018c8152602001600115158152602001600081525090506003600086815260200190815260200160002081908060018154018082558091505060019003906000526020600020906006020160009091909190915060008201518160000160006101000a8154816001600160a01b0302191690836001600160a01b0316021790555060208201518160010160006101000a8154816001600160a01b0302191690836001600160a01b03160217905550604082015181600201556060820151816003015560808201518160040160006101000a81548160ff02191690831515021790555060a08201518160050155505050610d38565b60006040518060c00160405280336001600160a01b031681526020018d6001600160a01b031681526020014281526020018c81526020016000151581526020018981525090506003600086815260200190815260200160002081908060018154018082558091505060019003906000526020600020906006020160009091909190915060008201518160000160006101000a8154816001600160a01b0302191690836001600160a01b0316021790555060208201518160010160006101000a8154816001600160a01b0302191690836001600160a01b03160217905550604082015181600201556060820151816003015560808201518160040160006101000a81548160ff02191690831515021790555060a082015181600501555050505b604080518a815289151560208201529081018890526001600160a01b03808d1691908e169033907fcf23f2b40be0e08bb0a6b6d6bef575e6441f3137f93730338475a86920fd2217906060015b60405180910390a4505050505050505050505050565b600080848484604051602001610db39392919061504b565b60408051808303601f19018152918152815160209283012060009081526002909252902054151595945050505050565b600080610df1858585612704565b905060008082516001600160401b03811115610e0f57610e0f614c19565b604051908082528060200260200182016040528015610e38578160200160208202803683370190505b509050600080600080865111156112a05760005b8651811015610ed057868181518110610e6757610e67615035565b60200260200101518a8c8b604051602001610e859493929190614fff565b60405160208183030381529060405280519060200120955085858581518110610eb057610eb0615035565b6020908102919091010152610ec68460016150ac565b9350600101610e4c565b5060005b60018551610ee291906150bf565b811015610f6c576000610ef68260016150ac565b90505b8551811015610f6357858181518110610f1457610f14615035565b6020026020010151868381518110610f2e57610f2e615035565b602002602001015103610f5b57858281518110610f4d57610f4d615035565b600060209182029290920101525b600101610ef9565b50600101610ed4565b5060005b8451811015610fbe578160036000878481518110610f9057610f90615035565b6020026020010151815260200190815260200160002080549050610fb491906150ac565b9150600101610f70565b506000816001600160401b03811115610fd957610fd9614c19565b604051908082528060200260200182016040528015611002578160200160208202803683370190505b5090506000826001600160401b0381111561101f5761101f614c19565b604051908082528060200260200182016040528015611048578160200160208202803683370190505b50905060005b838110156111e15760006003600089848151811061106e5761106e615035565b602002602001015181526020019081526020016000208054905011156111d95760005b600360008984815181106110a7576110a7615035565b60200260200101518152602001908152602001600020805490508110156111d757600360008984815181106110de576110de615035565b60200260200101518152602001908152602001600020818154811061110557611105615035565b600091825260209091206006909102015484516001600160a01b039091169085908890811061113657611136615035565b60200260200101906001600160a01b031690816001600160a01b0316815250506003600089848151811061116c5761116c615035565b60200260200101518152602001908152602001600020818154811061119357611193615035565b9060005260206000209060060201600201548387815181106111b7576111b7615035565b60209081029190910101526111cd8660016150ac565b9550600101611091565b505b60010161104e565b506000826000815181106111f7576111f7615035565b6020026020010151905060008260008151811061121657611216615035565b6020026020010151905060005b845181101561128d578184828151811061123f5761123f615035565b6020026020010151106112855783818151811061125e5761125e615035565b6020026020010151915084818151811061127a5761127a615035565b602002602001015192505b600101611223565b50819a50505050505050505050506107fe565b600096505050505050506107fe565b6000816001036112ca576112c38484611fcf565b90506107fe565b6112d584848461279b565b806112c357506112c3738888888888888888888888888888888888888888848461279b565b6000808484846040516020016113129392919061504b565b60408051808303601f19018152918152815160209283012060009081526001909252902054151595945050505050565b6003602052816000526040600020818154811061135e57600080fd5b60009182526020909120600690910201805460018201546002830154600384015460048501546005909501546001600160a01b0394851697509290931694509260ff169086565b60608060608060006113b8888888612704565b905060008082516001600160401b038111156113d6576113d6614c19565b6040519080825280602002602001820160405280156113ff578160200160208202803683370190505b509050600080600080865111156119395760005b86518110156114975786818151811061142e5761142e615035565b60200260200101518d8f8e60405160200161144c9493929190614fff565b6040516020818303038152906040528051906020012095508585858151811061147757611477615035565b602090810291909101015261148d8460016150ac565b9350600101611413565b5060005b600185516114a991906150bf565b8110156115335760006114bd8260016150ac565b90505b855181101561152a578581815181106114db576114db615035565b60200260200101518683815181106114f5576114f5615035565b6020026020010151036115225785828151811061151457611514615035565b600060209182029290920101525b6001016114c0565b5060010161149b565b5060005b845181101561158557816003600087848151811061155757611557615035565b602002602001015181526020019081526020016000208054905061157b91906150ac565b9150600101611537565b506000816001600160401b038111156115a0576115a0614c19565b6040519080825280602002602001820160405280156115c9578160200160208202803683370190505b5090506000826001600160401b038111156115e6576115e6614c19565b60405190808252806020026020018201604052801561160f578160200160208202803683370190505b5090506000836001600160401b0381111561162c5761162c614c19565b604051908082528060200260200182016040528015611655578160200160208202803683370190505b5090506000846001600160401b0381111561167257611672614c19565b60405190808252806020026020018201604052801561169b578160200160208202803683370190505b50905060005b85811015611921576000600360008b84815181106116c1576116c1615035565b602002602001015181526020019081526020016000208054905011156119195760005b600360008b84815181106116fa576116fa615035565b602002602001015181526020019081526020016000208054905081101561191757600360008b848151811061173157611731615035565b60200260200101518152602001908152602001600020818154811061175857611758615035565b600091825260209091206006909102015486516001600160a01b039091169087908a90811061178957611789615035565b60200260200101906001600160a01b031690816001600160a01b031681525050600360008b84815181106117bf576117bf615035565b6020026020010151815260200190815260200160002081815481106117e6576117e6615035565b90600052602060002090600602016003015483898151811061180a5761180a615035565b602002602001018181525050600360008b848151811061182c5761182c615035565b60200260200101518152602001908152602001600020818154811061185357611853615035565b906000526020600020906006020160040160009054906101000a900460ff1684898151811061188457611884615035565b602002602001019015159081151581525050600360008b84815181106118ac576118ac615035565b6020026020010151815260200190815260200160002081815481106118d3576118d3615035565b9060005260206000209060060201600501548589815181106118f7576118f7615035565b602090810291909101015261190d8860016150ac565b97506001016116e4565b505b6001016116a1565b50929c50919a50909850965061197395505050505050565b5050604080516000808252602082018181528284018281526060840192835260808401909452919a50985090965094506119739350505050565b93509350935093565b60008061198c33896103e6612704565b8051909150156119e75760005b81518110156119e5578181815181106119b4576119b4615035565b60200260200101516001600160a01b03168a6001600160a01b0316036119dd57600192506119e5565b600101611999565b505b611a08337388888888888888888888888888888888888888886103e6612704565b805190915015611a6d57600182151514611a6d5760005b8151811015611a6b57818181518110611a3a57611a3a615035565b60200260200101516001600160a01b03168a6001600160a01b031603611a635760019250611a6b565b600101611a1f565b505b600182151514611a7c57600080fd5b5050600083118015611a9057506000548311155b611a9957600080fd5b6000806000806000808b8b604051602001611ab5929190615074565b6040516020818303038152906040528051906020012092508b8b8a604051602001611ae29392919061504b565b6040516020818303038152906040528051906020012091507388888888888888888888888888888888888888888b8a604051602001611b239392919061504b565b60408051601f1981840301815291815281516020928301206001600160a01b038e166000908152600490935291205490915060ff1615611b6257600080fd5b60008381526005602052604090205460ff1615611b7e57600080fd5b60008281526006602052604090205460ff1615611b9a57600080fd5b60008181526006602052604090205460ff1615611bb657600080fd5b8c8c8c8b604051602001611bcd9493929190614fff565b6040516020818303038152906040528051906020012093508c8c8a604051602001611bfa9392919061504b565b6040516020818303038152906040528051906020012095508a8c8a604051602001611c279392919061504b565b604051602081830303815290604052805190602001209450600160008781526020019081526020016000208b9080600181540180825580915050600190039060005260206000200160009091909190916101000a8154816001600160a01b0302191690836001600160a01b03160217905550600260008681526020019081526020016000208d9080600181540180825580915050600190039060005260206000200160009091909190916101000a8154816001600160a01b0302191690836001600160a01b031602179055508715156001151503611e235760006040518060c001604052808f6001600160a01b031681526020018d6001600160a01b031681526020014281526020018c8152602001600115158152602001600081525090506003600086815260200190815260200160002081908060018154018082558091505060019003906000526020600020906006020160009091909190915060008201518160000160006101000a8154816001600160a01b0302191690836001600160a01b0316021790555060208201518160010160006101000a8154816001600160a01b0302191690836001600160a01b03160217905550604082015181600201556060820151816003015560808201518160040160006101000a81548160ff02191690831515021790555060a08201518160050155505050611f42565b60006040518060c001604052808f6001600160a01b031681526020018d6001600160a01b031681526020014281526020018c81526020016000151581526020018981525090506003600086815260200190815260200160002081908060018154018082558091505060019003906000526020600020906006020160009091909190915060008201518160000160006101000a8154816001600160a01b0302191690836001600160a01b0316021790555060208201518160010160006101000a8154816001600160a01b0302191690836001600160a01b03160217905550604082015181600201556060820151816003015560808201518160040160006101000a81548160ff02191690831515021790555060a082015181600501555050505b8a6001600160a01b03168c6001600160a01b03168e6001600160a01b03167fbd5af040fa27449f00e35a368bb558ba6b619f0da43b8f35722fe7f8de754b5f338d8d8d604051611fb894939291906001600160a01b03949094168452602084019290925215156040830152606082015260800190565b60405180910390a450505050505050505050505050565b6000738888888888888888888888888888888888888887196001600160a01b0384160161201857506001600160a01b03811660009081526004602052604090205460ff1661205e565b6000838360405160200161202d929190615074565b60408051601f1981840301815291815281516020928301206000908152600590925290205460ff16915061205e9050565b92915050565b600080600061207684866103e6612704565b8051909150156120d15760005b81518110156120cf5781818151811061209e5761209e615035565b60200260200101516001600160a01b0316876001600160a01b0316036120c757600192506120cf565b600101612083565b505b8115156001036120e6576001925050506107fe565b6000925050506107fe565b6000806000803387878760405160200161210e9493929190614fff565b60405160208183030381529060405280519060200120915033878660405160200161213b9392919061504b565b6040516020818303038152906040528051906020012093508587866040516020016121689392919061504b565b60408051601f1981840301815291815281516020928301206000878152600190935290822054909450909150156126fb5760005b6000858152600160205260409020548110156122075760008581526001602052604090208054829081106121d2576121d2615035565b6000918252602090912001546001600160a01b03908116908816036121ff576121fc8260016150ac565b91505b60010161219c565b506000816001600160401b0381111561222257612222614c19565b60405190808252806020026020018201604052801561224b578160200160208202803683370190505b5090506000805b6000878152600160205260409020548110156122db57600087815260016020526040902080548290811061228857612288615035565b6000918252602090912001546001600160a01b03908116908a16036122d357808383815181106122ba576122ba615035565b60209081029190910101526122d08260016150ac565b91505b600101612252565b50801561241a5760005b82518110156124185760008084836001875161230191906150bf565b61230b91906150bf565b8151811061231b5761231b615035565b6020026020010151915060018060008b81526020019081526020016000208054905061234791906150bf565b60008a81526001602052604090208054919250908290811061236b5761236b615035565b60009182526020808320909101548b83526001909152604090912080546001600160a01b0390921691849081106123a4576123a4615035565b600091825260208083209190910180546001600160a01b0319166001600160a01b0394909416939093179092558a81526001909152604090208054806123ec576123ec6150d2565b600082815260209020810160001990810180546001600160a01b031916905501905550506001016122e5565b505b6000805b60008781526002602052604090205481101561248557600087815260026020526040902080548290811061245457612454615035565b6000918252602090912001546001600160a01b0316330361247d5761247a8260016150ac565b91505b60010161241e565b506000816001600160401b038111156124a0576124a0614c19565b6040519080825280602002602001820160405280156124c9578160200160208202803683370190505b5090506000805b60008981526002602052604090205481101561255557600089815260026020526040902080548290811061250657612506615035565b6000918252602090912001546001600160a01b0316330361254d578083838151811061253457612534615035565b602090810291909101015261254a8260016150ac565b91505b6001016124d0565b5080156126955760005b82518110156126935760008084836001875161257b91906150bf565b61258591906150bf565b8151811061259557612595615035565b602002602001015191506001600260008d8152602001908152602001600020805490506125c291906150bf565b60008c8152600260205260409020805491925090829081106125e6576125e6615035565b60009182526020808320909101548d83526002909152604090912080546001600160a01b03909216918490811061261f5761261f615035565b600091825260208083209190910180546001600160a01b0319166001600160a01b0394909416939093179092558c8152600290915260409020805480612667576126676150d2565b600082815260209020810160001990810180546001600160a01b0319169055019055505060010161255f565b505b60008781526003602052604081206126ac91614814565b8a6001600160a01b03168c6001600160a01b0316336001600160a01b03167feb2716ae908a1e27125f13f2a948ee7b067d22f92b1fc0152355e0085d80177e8d604051610d8591815260200190565b50505050505050565b6060600084848460405160200161271d9392919061504b565b60408051601f19818403018152828252805160209182012060008181526002835283902080548084028601840190945283855290945091908301828280156107f5576020028201919060005260206000209081546001600160a01b031681526001909101906020018083116107d75750505050509150509392505050565b6000816001036127af576112c38484611fcf565b60008484846040516020016127c69392919061504b565b60408051601f1981840301815291815281516020928301206000908152600690925290205460ff1691506107fe9050565b60008061280585858561076b565b905060008082516001600160401b0381111561282357612823614c19565b60405190808252806020026020018201604052801561284c578160200160208202803683370190505b509050600080600080865111156112a05760005b86518110156128e4578a8a88838151811061287d5761287d615035565b60200260200101518b6040516020016128999493929190614fff565b604051602081830303815290604052805190602001209550858585815181106128c4576128c4615035565b60209081029190910101526128da8460016150ac565b9350600101612860565b5060005b600185516128f691906150bf565b81101561298057600061290a8260016150ac565b90505b85518110156129775785818151811061292857612928615035565b602002602001015186838151811061294257612942615035565b60200260200101510361296f5785828151811061296157612961615035565b600060209182029290920101525b60010161290d565b506001016128e8565b5060005b84518110156129d25781600360008784815181106129a4576129a4615035565b60200260200101518152602001908152602001600020805490506129c891906150ac565b9150600101612984565b506000816001600160401b038111156129ed576129ed614c19565b604051908082528060200260200182016040528015612a16578160200160208202803683370190505b5090506000826001600160401b03811115612a3357612a33614c19565b604051908082528060200260200182016040528015612a5c578160200160208202803683370190505b50905060005b83811015612bfb57600060036000898481518110612a8257612a82615035565b60200260200101518152602001908152602001600020805490501115612bf35760005b60036000898481518110612abb57612abb615035565b6020026020010151815260200190815260200160002080549050811015612bf15760036000898481518110612af257612af2615035565b602002602001015181526020019081526020016000208181548110612b1957612b19615035565b906000526020600020906006020160010160009054906101000a90046001600160a01b0316848781518110612b5057612b50615035565b60200260200101906001600160a01b031690816001600160a01b03168152505060036000898481518110612b8657612b86615035565b602002602001015181526020019081526020016000208181548110612bad57612bad615035565b906000526020600020906006020160020154838781518110612bd157612bd1615035565b6020908102919091010152612be78660016150ac565b9550600101612aa5565b505b600101612a62565b50600082600081518110612c1157612c11615035565b60200260200101519050600082600081518110612c3057612c30615035565b6020026020010151905060005b845181101561128d5781848281518110612c5957612c59615035565b602002602001015110612c9f57838181518110612c7857612c78615035565b60200260200101519150848181518110612c9457612c94615035565b602002602001015192505b600101612c3d565b6000612cb48585846127f7565b6001600160a01b0316836001600160a01b03161490505b949350505050565b600080848484604051602001612ceb9392919061504b565b60408051808303601f19018152919052805160209091012095945050505050565b600080612d1c33866103e6612704565b805190915015612d775760005b8151811015612d7557818181518110612d4457612d44615035565b60200260200101516001600160a01b0316876001600160a01b031603612d6d5760019250612d75565b600101612d29565b505b612d98337388888888888888888888888888888888888888886103e6612704565b805190915015612dfd57600182151514612dfd5760005b8151811015612dfb57818181518110612dca57612dca615035565b60200260200101516001600160a01b0316876001600160a01b031603612df35760019250612dfb565b600101612daf565b505b600182151514612e0c57600080fd5b50506000848483604051602001612e259392919061504b565b6040516020818303038152906040528051906020012090506000838584604051602001612e549392919061504b565b604051602081830303815290604052805190602001209050600086868686604051602001612e859493929190614fff565b60408051601f1981840301815291815281516020928301206000868152600190935290822054909250156134315760005b600085815260016020526040902054811015612f21576000858152600160205260409020805482908110612eec57612eec615035565b6000918252602090912001546001600160a01b0390811690881603612f1957612f168260016150ac565b91505b600101612eb6565b506000816001600160401b03811115612f3c57612f3c614c19565b604051908082528060200260200182016040528015612f65578160200160208202803683370190505b5090506000805b600087815260016020526040902054811015612ff5576000878152600160205260409020805482908110612fa257612fa2615035565b6000918252602090912001546001600160a01b03908116908a1603612fed5780838381518110612fd457612fd4615035565b6020908102919091010152612fea8260016150ac565b91505b600101612f6c565b5080156131345760005b82518110156131325760008084836001875161301b91906150bf565b61302591906150bf565b8151811061303557613035615035565b6020026020010151915060018060008b81526020019081526020016000208054905061306191906150bf565b60008a81526001602052604090208054919250908290811061308557613085615035565b60009182526020808320909101548b83526001909152604090912080546001600160a01b0390921691849081106130be576130be615035565b600091825260208083209190910180546001600160a01b0319166001600160a01b0394909416939093179092558a8152600190915260409020805480613106576131066150d2565b600082815260209020810160001990810180546001600160a01b03191690550190555050600101612fff565b505b6000805b6000878152600260205260409020548110156131a357600087815260026020526040902080548290811061316e5761316e615035565b6000918252602090912001546001600160a01b03908116908d160361319b576131988260016150ac565b91505b600101613138565b506000816001600160401b038111156131be576131be614c19565b6040519080825280602002602001820160405280156131e7578160200160208202803683370190505b5090506000805b60008981526002602052604090205481101561327757600089815260026020526040902080548290811061322457613224615035565b6000918252602090912001546001600160a01b03908116908f160361326f578083838151811061325657613256615035565b602090810291909101015261326c8260016150ac565b91505b6001016131ee565b5080156133b75760005b82518110156133b55760008084836001875161329d91906150bf565b6132a791906150bf565b815181106132b7576132b7615035565b602002602001015191506001600260008d8152602001908152602001600020805490506132e491906150bf565b60008c81526002602052604090208054919250908290811061330857613308615035565b60009182526020808320909101548d83526002909152604090912080546001600160a01b03909216918490811061334157613341615035565b600091825260208083209190910180546001600160a01b0319166001600160a01b0394909416939093179092558c8152600290915260409020805480613389576133896150d2565b600082815260209020810160001990810180546001600160a01b03191690550190555050600101613281565b505b60008781526003602052604081206133ce91614814565b8a6001600160a01b03168c6001600160a01b03168e6001600160a01b03167f3fc9853b549d505712a2e247960ed1ec823b23c592b38d4b438cc603c2c55d70338e604051611fb89291906001600160a01b03929092168252602082015260400190565b5050505050505050565b6134468787856120f1565b613454878686868686610874565b604080516001600160a01b0388811682526020820186905284151582840152606082018490529151878316928a169133917f3660f2984c57dfe2d77b6a3d25a5a622a20793c5264ac0fb4b7d1f9b3e38b7ca9181900360800190a450505050505050565b6000806134c98584866103e761421e565b905060006134db8585886103e761421e565b9050600061350187738888888888888888888888888888888888888888886103e761421e565b90506000613527877388888888888888888888888888888888888888888a6103e761421e565b9050600184151514801561353d57506001831515145b1561354f5760019450505050506107fe565b600184151514801561356357506001811515145b156135755760019450505050506107fe565b600183151514801561358957506001821515145b1561359b5760019450505050506107fe565b60018215151480156135af57506001811515145b156135c15760019450505050506107fe565b60009450505050506107fe565b60068651106135dc57600080fd5b60005b86518110156126fb5761368c8782815181106135fd576135fd615035565b602002602001015187838151811061361757613617615035565b602002602001015187848151811061363157613631615035565b602002602001015187858151811061364b5761364b615035565b602002602001015187868151811061366557613665615035565b602002602001015187878151811061367f5761367f615035565b6020026020010151610874565b6001016135df565b816001036136ab576136a6838261418e565b505050565b60008333846040516020016136c29392919061504b565b60408051601f198184030181529181528151602092830120600090815260069092529020805483151560ff1990911617905550505050565b606080606080600061370d88888861076b565b905060008082516001600160401b0381111561372b5761372b614c19565b604051908082528060200260200182016040528015613754578160200160208202803683370190505b509050600080600080865111156119395760005b86518110156137ec578d8d88838151811061378557613785615035565b60200260200101518e6040516020016137a19493929190614fff565b604051602081830303815290604052805190602001209550858585815181106137cc576137cc615035565b60209081029190910101526137e28460016150ac565b9350600101613768565b5060005b600185516137fe91906150bf565b8110156138885760006138128260016150ac565b90505b855181101561387f5785818151811061383057613830615035565b602002602001015186838151811061384a5761384a615035565b6020026020010151036138775785828151811061386957613869615035565b600060209182029290920101525b600101613815565b506001016137f0565b5060005b84518110156138da5781600360008784815181106138ac576138ac615035565b60200260200101518152602001908152602001600020805490506138d091906150ac565b915060010161388c565b506000816001600160401b038111156138f5576138f5614c19565b60405190808252806020026020018201604052801561391e578160200160208202803683370190505b5090506000826001600160401b0381111561393b5761393b614c19565b604051908082528060200260200182016040528015613964578160200160208202803683370190505b5090506000836001600160401b0381111561398157613981614c19565b6040519080825280602002602001820160405280156139aa578160200160208202803683370190505b5090506000846001600160401b038111156139c7576139c7614c19565b6040519080825280602002602001820160405280156139f0578160200160208202803683370190505b50905060005b85811015611921576000600360008b8481518110613a1657613a16615035565b60200260200101518152602001908152602001600020805490501115613c745760005b600360008b8481518110613a4f57613a4f615035565b6020026020010151815260200190815260200160002080549050811015613c7257600360008b8481518110613a8657613a86615035565b602002602001015181526020019081526020016000208181548110613aad57613aad615035565b906000526020600020906006020160010160009054906101000a90046001600160a01b0316868981518110613ae457613ae4615035565b60200260200101906001600160a01b031690816001600160a01b031681525050600360008b8481518110613b1a57613b1a615035565b602002602001015181526020019081526020016000208181548110613b4157613b41615035565b906000526020600020906006020160030154838981518110613b6557613b65615035565b602002602001018181525050600360008b8481518110613b8757613b87615035565b602002602001015181526020019081526020016000208181548110613bae57613bae615035565b906000526020600020906006020160040160009054906101000a900460ff16848981518110613bdf57613bdf615035565b602002602001019015159081151581525050600360008b8481518110613c0757613c07615035565b602002602001015181526020019081526020016000208181548110613c2e57613c2e615035565b906000526020600020906006020160050154858981518110613c5257613c52615035565b6020908102919091010152613c688860016150ac565b9750600101613a39565b505b6001016139f6565b60606000613c8b868685612704565b905060008082516001600160401b03811115613ca957613ca9614c19565b604051908082528060200260200182016040528015613cd2578160200160208202803683370190505b50905060008060008060008751111561415d5760005b8751811015613d6c57878181518110613d0357613d03615035565b60200260200101518c8e8c604051602001613d219493929190614fff565b60405160208183030381529060405280519060200120965086868681518110613d4c57613d4c615035565b6020908102919091010152613d628560016150ac565b9450600101613ce8565b5060005b60018651613d7e91906150bf565b811015613e08576000613d928260016150ac565b90505b8651811015613dff57868181518110613db057613db0615035565b6020026020010151878381518110613dca57613dca615035565b602002602001015103613df757868281518110613de957613de9615035565b600060209182029290920101525b600101613d95565b50600101613d70565b5060005b8551811015613e5a578160036000888481518110613e2c57613e2c615035565b6020026020010151815260200190815260200160002080549050613e5091906150ac565b9150600101613e0c565b506000816001600160401b03811115613e7557613e75614c19565b604051908082528060200260200182016040528015613e9e578160200160208202803683370190505b5090506000826001600160401b03811115613ebb57613ebb614c19565b604051908082528060200260200182016040528015613ee4578160200160208202803683370190505b50905060005b8381101561407d576000600360008a8481518110613f0a57613f0a615035565b602002602001015181526020019081526020016000208054905011156140755760005b600360008a8481518110613f4357613f43615035565b602002602001015181526020019081526020016000208054905081101561407357600360008a8481518110613f7a57613f7a615035565b602002602001015181526020019081526020016000208181548110613fa157613fa1615035565b600091825260209091206006909102015484516001600160a01b0390911690859089908110613fd257613fd2615035565b60200260200101906001600160a01b031690816001600160a01b031681525050600360008a848151811061400857614008615035565b60200260200101518152602001908152602001600020818154811061402f5761402f615035565b90600052602060002090600602016003015483888151811061405357614053615035565b60209081029190910101526140698760016150ac565b9650600101613f2d565b505b600101613eea565b50600081516001600160401b0381111561409957614099614c19565b6040519080825280602002602001820160405280156140c2578160200160208202803683370190505b50905060005b8481101561414b578d8382815181106140e3576140e3615035565b602002602001015111156141435783818151811061410357614103615035565b602002602001015182878151811061411d5761411d615035565b6001600160a01b03909216602092830291909101909101526141408660016150ac565b95505b6001016140c8565b509950612ccb98505050505050505050565b50506040805160008152602081019091529550612ccb945050505050565b6000546141899060016150ac565b600055565b738888888888888888888888888888888888888887196001600160a01b038316016141d257336000908152600460205260409020805460ff19168215151790555050565b600082336040516020016141e7929190615074565b60408051601f198184030181529181528151602092830120600090815260059092529020805483151560ff19909116179055505050565b600080858585856040516020016142389493929190614fff565b60408051808303601f1901815291815281516020928301206000908152600390925290205415159695505050505050565b6002602052816000526040600020818154811061064457600080fd5b6060600061429486868561076b565b905060008082516001600160401b038111156142b2576142b2614c19565b6040519080825280602002602001820160405280156142db578160200160208202803683370190505b50905060008060008060008751111561415d5760005b8751811015614375578c8c89838151811061430e5761430e615035565b60200260200101518c60405160200161432a9493929190614fff565b6040516020818303038152906040528051906020012096508686868151811061435557614355615035565b602090810291909101015261436b8560016150ac565b94506001016142f1565b5060005b6001865161438791906150bf565b81101561441157600061439b8260016150ac565b90505b8651811015614408578681815181106143b9576143b9615035565b60200260200101518783815181106143d3576143d3615035565b602002602001015103614400578682815181106143f2576143f2615035565b600060209182029290920101525b60010161439e565b50600101614379565b5060005b855181101561446357816003600088848151811061443557614435615035565b602002602001015181526020019081526020016000208054905061445991906150ac565b9150600101614415565b506000816001600160401b0381111561447e5761447e614c19565b6040519080825280602002602001820160405280156144a7578160200160208202803683370190505b5090506000826001600160401b038111156144c4576144c4614c19565b6040519080825280602002602001820160405280156144ed578160200160208202803683370190505b50905060005b8381101561468c576000600360008a848151811061451357614513615035565b602002602001015181526020019081526020016000208054905011156146845760005b600360008a848151811061454c5761454c615035565b602002602001015181526020019081526020016000208054905081101561468257600360008a848151811061458357614583615035565b6020026020010151815260200190815260200160002081815481106145aa576145aa615035565b906000526020600020906006020160010160009054906101000a90046001600160a01b03168488815181106145e1576145e1615035565b60200260200101906001600160a01b031690816001600160a01b031681525050600360008a848151811061461757614617615035565b60200260200101518152602001908152602001600020818154811061463e5761463e615035565b90600052602060002090600602016003015483888151811061466257614662615035565b60209081029190910101526146788760016150ac565b9650600101614536565b505b6001016144f3565b50600081516001600160401b038111156146a8576146a8614c19565b6040519080825280602002602001820160405280156146d1578160200160208202803683370190505b50905060005b8481101561414b578d8382815181106146f2576146f2615035565b602002602001015111156147525783818151811061471257614712615035565b602002602001015182878151811061472c5761472c615035565b6001600160a01b039092166020928302919091019091015261474f8660016150ac565b95505b6001016146d7565b600080858585856040516020016147749493929190614fff565b60408051808303601f1901815291905280516020909101209695505050505050565b60068351106147a457600080fd5b60005b835181101561480e576148068482815181106147c5576147c5615035565b60200260200101518483815181106147df576147df615035565b60200260200101518484815181106147f9576147f9615035565b60200260200101516120f1565b6001016147a7565b50505050565b50805460008255600602906000526020600020908101906148359190614838565b50565b5b808211156148855780546001600160a01b0319908116825560018201805490911690556000600282018190556003820181905560048201805460ff191690556005820155600601614839565b5090565b6000806040838503121561489c57600080fd5b50508035926020909101359150565b80356001600160a01b03811681146148c257600080fd5b919050565b600080600080600060a086880312156148df57600080fd5b6148e8866148ab565b94506148f6602087016148ab565b9350614904604087016148ab565b94979396509394606081013594506080013592915050565b60008060006060848603121561493157600080fd5b61493a846148ab565b9250614948602085016148ab565b9150604084013590509250925092565b600081518084526020808501945080840160005b838110156149915781516001600160a01b03168752958201959082019060010161496c565b509495945050505050565b6020815260006107fe6020830184614958565b803580151581146148c257600080fd5b60008060008060008060c087890312156149d857600080fd5b6149e1876148ab565b95506149ef602088016148ab565b94506040870135935060608701359250614a0b608088016149af565b915060a087013590509295509295509295565b600060208284031215614a3057600080fd5b6107fe826149af565b600081518084526020808501945080840160005b8381101561499157815187529582019590820190600101614a4d565b608081526000614a7c6080830187614958565b602083820381850152614a8f8288614a39565b8481036040860152865180825282880193509082019060005b81811015614ac6578451151583529383019391830191600101614aa8565b50508481036060860152614ada8187614a39565b9998505050505050505050565b600080600080600080600060e0888a031215614b0257600080fd5b614b0b886148ab565b9650614b19602089016148ab565b9550614b27604089016148ab565b94506060880135935060808801359250614b4360a089016149af565b915060c0880135905092959891949750929550565b60008060408385031215614b6b57600080fd5b614b74836148ab565b9150614b82602084016148ab565b90509250929050565b600080600060608486031215614ba057600080fd5b614ba9846148ab565b9250614bb7602085016148ab565b9150614bc5604085016148ab565b90509250925092565b60008060008060808587031215614be457600080fd5b614bed856148ab565b9350614bfb602086016148ab565b9250614c09604086016148ab565b9396929550929360600135925050565b634e487b7160e01b600052604160045260246000fd5b604051601f8201601f191681016001600160401b0381118282101715614c5757614c57614c19565b604052919050565b60006001600160401b03821115614c7857614c78614c19565b5060051b60200190565b600082601f830112614c9357600080fd5b81356020614ca8614ca383614c5f565b614c2f565b82815260059290921b84018101918181019086841115614cc757600080fd5b8286015b84811015614ce957614cdc816148ab565b8352918301918301614ccb565b509695505050505050565b600082601f830112614d0557600080fd5b81356020614d15614ca383614c5f565b82815260059290921b84018101918181019086841115614d3457600080fd5b8286015b84811015614ce95780358352918301918301614d38565b600082601f830112614d6057600080fd5b81356020614d70614ca383614c5f565b82815260059290921b84018101918181019086841115614d8f57600080fd5b8286015b84811015614ce957614da4816149af565b8352918301918301614d93565b60008060008060008060c08789031215614dca57600080fd5b86356001600160401b0380821115614de157600080fd5b614ded8a838b01614c82565b97506020890135915080821115614e0357600080fd5b614e0f8a838b01614c82565b96506040890135915080821115614e2557600080fd5b614e318a838b01614cf4565b95506060890135915080821115614e4757600080fd5b614e538a838b01614cf4565b94506080890135915080821115614e6957600080fd5b614e758a838b01614d4f565b935060a0890135915080821115614e8b57600080fd5b50614e9889828a01614cf4565b9150509295509295509295565b600080600060608486031215614eba57600080fd5b614ec3846148ab565b925060208401359150614bc5604085016149af565b600060208284031215614eea57600080fd5b5035919050565b60008060008060808587031215614f0757600080fd5b614f10856148ab565b9350614f1e602086016148ab565b93969395505050506040820135916060013590565b60008060408385031215614f4657600080fd5b614f4f836148ab565b9150614b82602084016149af565b600060208284031215614f6f57600080fd5b6107fe826148ab565b600080600060608486031215614f8d57600080fd5b83356001600160401b0380821115614fa457600080fd5b614fb087838801614c82565b94506020860135915080821115614fc657600080fd5b614fd287838801614c82565b93506040860135915080821115614fe857600080fd5b50614ff586828701614cf4565b9150509250925092565b6001600160601b0319606095861b8116825293851b841660148201529190931b9091166028820152603c810191909152605c0190565b634e487b7160e01b600052603260045260246000fd5b6001600160601b0319606094851b811682529290931b9091166014830152602882015260480190565b6001600160601b0319606093841b811682529190921b16601482015260280190565b634e487b7160e01b600052601160045260246000fd5b8082018082111561205e5761205e615096565b8181038181111561205e5761205e615096565b634e487b7160e01b600052603160045260246000fdfea264697066735822122066319091602129674d3efa534492e03992835a68f37fb90b95eb625452b062a964736f6c63430008130033",
    "linkReferences": {}
  },
  "methodIdentifiers": {
    "batchDelegations(address[],address[],uint256[],uint256[],bool[],uint256[])": "9bccd56c",
    "batchRevocations(address[],address[],uint256[])": "f793b96e",
    "checkConsolidationStatus(address,address,address)": "8bb60cb6",
    "collectionLock(bytes32)": "b2f60eec",
    "collectionUsecaseLock(bytes32)": "d141baae",
    "delegationAddressHashes(bytes32,uint256)": "db143239",
    "delegatorHashes(bytes32,uint256)": "15542400",
    "globalDelegationHashes(bytes32,uint256)": "46edce67",
    "globalLock(address)": "ec0c95ee",
    "registerDelegationAddress(address,address,uint256,uint256,bool,uint256)": "2a243ce7",
    "registerDelegationAddressUsingSubDelegation(address,address,address,uint256,uint256,bool,uint256)": "4b402f27",
    "retrieveActiveDelegations(address,address,uint256,uint256)": "ea63eedc",
    "retrieveActiveDelegators(address,address,uint256,uint256)": "c7cc4bb4",
    "retrieveCollectionLockStatus(address,address)": "5d44c776",
    "retrieveCollectionUseCaseLockStatus(address,address,uint256)": "6ff56513",
    "retrieveCollectionUseCaseLockStatusOneCall(address,address,uint256)": "36ddecfb",
    "retrieveDelegationAddressStatusOfDelegation(address,address,uint256)": "2c96e0d9",
    "retrieveDelegationAddresses(address,address,uint256)": "22b613ef",
    "retrieveDelegationAddressesTokensIDsandExpiredDates(address,address,uint256)": "aa3e650a",
    "retrieveDelegatorStatusOfDelegation(address,address,uint256)": "3b995952",
    "retrieveDelegators(address,address,uint256)": "6cfcae20",
    "retrieveDelegatorsTokensIDsandExpiredDates(address,address,uint256)": "4b1fe249",
    "retrieveGlobalHash(address,address,address,uint256)": "f5b986df",
    "retrieveGlobalLockStatus(address)": "ec699beb",
    "retrieveGlobalStatusOfDelegation(address,address,address,uint256)": "d986ff6d",
    "retrieveLocalHash(address,address,uint256)": "7d20ab74",
    "retrieveMostRecentDelegation(address,address,uint256)": "73aedfff",
    "retrieveMostRecentDelegator(address,address,uint256)": "3465ef11",
    "retrieveStatusOfActiveDelegator(address,address,address,uint256,uint256)": "234dd639",
    "retrieveStatusOfMostRecentDelegation(address,address,address,uint256)": "782740d5",
    "retrieveSubDelegationStatus(address,address,address)": "5e5b57a2",
    "retrieveTokenStatus(address,address,address,uint256,uint256)": "16eca993",
    "revokeDelegationAddress(address,address,uint256)": "66ff484d",
    "revokeDelegationAddressUsingSubdelegation(address,address,address,uint256)": "7ed01e12",
    "setCollectionLock(address,bool)": "d6a0a3d5",
    "setCollectionUsecaseLock(address,uint256,bool)": "a4fa0303",
    "setGlobalLock(bool)": "319a9395",
    "updateDelegationAddress(address,address,address,uint256,uint256,bool,uint256)": "850e8e06",
    "updateUseCaseCounter()": "ccc4f4a4",
    "useCaseCounter()": "7f1a2fdf"
  },
  "id": 47
}